:020000020000FC
:0200000059C0E5
:0200040018954D
:02000800189549
:02000C00189545
:02001000189541
:0200140018953D
:02001800189539
:02001C00189535
:02002000189531
:0200240018952D
:02002800189529
:02002C00189525
:02003000189521
:0200340018951D
:02003800189519
:02003C00189515
:02004000189511
:0200440018950D
:02004800189509
:02004C00189505
:02005000189501
:020054001895FD
:020058001895F9
:02005C001895F5
:020060001895F1
:020064001895ED
:020068001895E9
:02006C001895E5
:020070001895E1
:020074001895DD
:020078001895D9
:02007C001895D5
:020080001895D1
:020084001895CD
:04008A001895189518
:020090001895C1
:020094001895BD
:020098001895B9
:02009C001895B5
:0200A0001895B1
:0200A4001895AD
:0200A8001895A9
:0200AC001895A5
:0200B0001895A1
:1000B40058E05EBF5FEF5EBF0E94ED110E94971093
:1000C40051E05093B5010E942C1050E050938E01E2
:1000D40050938F0160908E01639460928E016090C2
:1000E4008F0109F4639460928F01A0918E010E94A4
:1000F400C3090092E601A0918E010E94E3090092D7
:10010400E701A0918E010E94F8090092E801A091F4
:100114008E010E94D8090092E90150E05093EF014A
:100124005093F00150E05093F1015093F201ABD79A
:100134005BE65093010251E0509302025FEF50934B
:100144009501509396015093970150E05093980174
:100154000E94DA0F5AE05093DA0150E05093DB0129
:1001640055E75093DE0150E05093DF016090A90100
:1001740001E0601A6092DC016090AA0100E0600A6C
:100184006092DD0155E75093E00150E05093E101A6
:1001940050E05093C8015FEF5093C9015093CA01D6
:1001A40050E05093CB010E94F6116090A90109E040
:1001B400601A6092DA016090AA0100E0600A60921D
:1001C400DB015EE65093DE0150E05093DF01609066
:1001D400A90101E0601A6092DC016090AA0100E0CC
:1001E400600A6092DD0154E75093E00150E05093BF
:1001F400E1015091E6015093C8015091E7015093F9
:10020400C9015091E8015093CA015091E9015093FA
:10021400CB010E94410E5DE7509312025091E6011A
:100224005093EA015091E7015093EB015091E8019A
:100234005093EC015091E9015093ED019FD7F1E007
:100244000E943B0E60918E0170918F01C3E1D0E05A
:100254000E94681700FC3ECF38CF00C08895FECFBF
:10026400AF3E10F000240895EAE7F2E0EA0F08F444
:10027400F395C8950895F0008080F8FCFC849C9C5C
:100284001800000021213F3F3F2121010000000010
:1002940080C0C0404040C080C040000047CFDF98CD
:1002A4009898FFFF7F00000004FCFCFC804040C0E5
:1002B400C0800000203F3F3F0100003F3F3F00005F
:1002C40000404040DCDCDC00000000000020202076
:1002D4003F3F3F2020200000000000404040DCDC85
:1002E400DC0000002060E08080C0FFFF7F00000091
:1002F40004FCFCFC000080C0C0400000203F3F3FE5
:1003040002070F3D3830000000040404FCFCFC002C
:1003140000000000002020203F3F3F20202000005C
:10032400C0C0C04040C04040C0C080003F3F3F000C
:10033400003F00003F3F3F00C0C0C0404040C0C03D
:10034400800000003F3F3F0000003F3F3F000000AF
:1003540080C0C0404040C0C0800000001F3F3F201C
:1003640020203F3F1F00A03F10F000240895E0E844
:10037400F3E0EA0F08F4F395C8950895F00040C03F
:1003840080C0404040C0C080000080FFFFFF90104C
:10039400101F1F0F0080C0C0404040C080C04000FC
:1003A400000F1F1F101090FFFFFF8000000040C0CF
:1003B400C0C080C0C0C0C0800000203F3F3F2100BB
:1003C40000010101000080C0C040404040C08000E6
:1003D4000000193B232626263C3D1900000040401E
:1003E400E0F0F84040404000000000001F3F3F2084
:1003F400383818000000C0C0C0000000C0C0C000F1
:1004040000001F3F3F2020203F1F3F200000C0C0AE
:10041400C0000000C0C0C0000000070F1F38303803
:100424001F0F07000000C0C0C00000000000C0C0D3
:10043400C000070F3F38380E38383F0F0700C0C0E0
:10044400C00000C0C0C00000000030393F0F0F3FA3
:1004540039300000000000C0C0C0000000C0C0C0AF
:10046400000080878F9FD8F8783F0F07AD3610F0D3
:1004740000240895E6E8F4E0EA0F08F4F395C8953B
:1004840008957800C0C0404040C0C0C000000000D3
:1004940031383C2E27233138000000008080C0789A
:1004A4007C3C0404040400000101031E3E3C2020A3
:1004B4002020000000000000FEFEFE0000000000FE
:1004C400000000007F7F7F0000000000040404049B
:1004D4003C7C78C080800000202020203C3E1E030D
:1004E400010100383C3C040C1C3830203C3C1C000E
:1004F400A03F10F000240895EAE0F5E0EA0F08F4C4
:10050400F395C8950895F000E0F0F81C0C0C1CF865
:10051400F0E000003F3F3F020202023F3F3F000085
:1005240004FCFCFC848484FCFC780000203F3F3FF6
:100534002424243F3F1E000000FCFCFC0C0C0C0C8B
:100544000C000000003F3F3F0000000000000000DE
:10055400E0F0F81C0C0C1CF8F0E000003F3F3F30CA
:100564003030303F3F3F000004FCFCFC848484C4F2
:10057400CC1C0000203F3F3F2424242333380000B8
:100584003C1C0C0484C4E47C3C1C0000383C3E2726
:1005940023242030383C0000FCFCFC808080FCFCE0
:1005A400FC0000003F3F3F0101013F3F3F000000CE
:1005B400E0F0F89C8C8C8C9CF8F0E000070F1F395D
:1005C400313131391F0F0700000404FCFCFC040422
:1005D400000000000020203F3F3F202000000000DA
:1005E40004FCFCFCC0E0703C1C0C0000203F3F3FBE
:1005F40003070E3C3830AE3E10F000240895E0E1CD
:10060400F6E0EA0F08F4F395C8950895F000E0F0D9
:10061400F81C0C0C1CF8F0E000003F3F3F00000009
:10062400003F3F3F0000FCFCFC78F0E0F078FCFC6D
:10063400FC003F3F3F00000100003F3F3F00FCFC47
:10064400FC70E0C08000FCFCFC003F3F3F00000168
:1006540003073F3F3F00001C1C9C9C9C9C9C1C1C53
:100664000000003838393939393938380000E0F0B9
:10067400F81C0C0C0C1CF8F0E000070F1F3830308D
:1006840030381F0F0700FCFCFC1C1C1C1CFCFCFC71
:1006940000003F3F3F000000003F3F3F000004FCDC
:1006A400FCFC848484FCFC780000203F3F3F240150
:1006B400010101000000003C7CFCDC9C9C1C1C1C17
:1006C4000000003C3E3F3B393938383800001C0CF0
:1006D4000404FCFCFC04040C1C00000020203F3F2C
:1006E4003F20200000007CFCFC800080FCFC7C009F
:1006F40000000020243F3F3F2420AF3510F00024A9
:100704000895E4E1F7E0EA0F08F4F395C895089535
:1007140060E0F0F83818FCFC1838F8F0E0070F1F18
:100724001C183F3F181C1F0F07001C3C7CE0C0E056
:100734007C3C1C000000383C3E0703073E3C38006C
:100744000000FCFCFC80F8F8F880FCFCFC000001D4
:1007540003233F3F3F23030100000070FCFC8C8C0B
:100764008CFCFC7000000000313333333333310030
:10077400AF3E10F000240895EAE8F7E0EA0F08F429
:10078400F395C8950895F0000000000000000000F3
:100794000000000000000000000000000000000055
:1007A40000F8FCFCFCF8000000000000000073737B
:1007B4007300000000000000001E3E3E0000003EEA
:1007C4003E1E000000000000000000000000003099
:1007D40030FEFE30303030FEFE30300C0C7F7F0CAB
:1007E4000C0C0C7F7F0C0C00F0F898FE9898FE9887
:1007F400981800001819197F19197F191F0F000084
:100804000038383880C0E07038000000001C0E0743
:1008140003011C1C1C00000038FCC4C4FC3800008C
:10082400008000001E3F2121333F1E1E372300009D
:1008340000203C3C1C000000000000000000000000
:10084400000000000000000000C0E0F0381C0C04B0
:10085400040000000003070F1C38302020000000B3
:100864000004040C1C38F0E0C0000000002020301C
:10087400381C0F070300A03F10F000240895E0E99E
:10088400F8E0EA0F08F4F395C8950895F08088908D
:10089400E0E0FCFCE0E090888001110907073F3F9D
:1008A40007070911010000808080F0F0808080003B
:1008B4000000000101010F0F010101000000000010
:1008C40000000000000000000000004078783800BC
:1008D4000000000000008080808080808080808014
:1008E40000000101010101010101010100000000FA
:1008F400000000000000000000000000383838004C
:1009040000000000000000000000000080C0E07053
:1009140038002030381C0E07030100000000F8FCEA
:10092400FC04040404FCFCF800001F3F3F202020CA
:10093400203F3F1F0000606060F0FCFC00000000EE
:1009440000002020203F3F3F202020000000181CF2
:100954001C040484CCFC7830000030383C2E27235F
:10096400213838380000181C1C848484CC7C7830EE
:100974000000183838242121333E1E0CA13F10F00A
:1009840000240895E6E9F9E0EA0F08F4F395C89520
:100994000895F00080C0603018FCFCFC00000000EA
:1009A40003030323233F3F3F23230000FCFCFC8479
:1009B4008484848404040000193939242121333FB8
:1009C4001F0E0000E0F0F89C8C84848480000000FA
:1009D4001F3F3F242421213F3F1F00003C3C3C0497
:1009E40004040484FCFC7C00000000383C3E070343
:1009F40001000000787CFCC4C48484FC7C78000082
:100A04001E3E3F212123233F3E1E0000F8FCFC84B0
:100A1400848484FCFCF80000000124212131391F66
:100A24000F0700000000007070700000000000005C
:100A34000000000E0E0E0000000000000000007018
:100A440070700000000000000000101E1E0E000068
:100A54000000000080C0E070381C0E060200000098
:100A64000103070E1C387060400000606060606025
:100A7400606060606060600606060606060606069C
:100A840006060600A03F10F000240895EEE9FAE0FF
:100A9400EA0F08F4F395C8950895F00002060E1CB9
:100AA4003870E0C080000000406070381C0E0703FE
:100AB40001000000181C0C0E0686CEFC7C380000D9
:100AC400000000007373730000000000FCFEFE02CF
:100AD40002C2C2C2FEFEFC003F3F7F6060636363EC
:100AE40063430300E0F0F81C0C0C1CF8F0E0000079
:100AF4003F3F3F020202023F3F3F000004FCFCFC78
:100B0400848484FCFC780000203F3F3F2421213F63
:100B14003F1E0000F0F8FC0C0404041C1C18000028
:100B24000F1F3F30202020383818000004FCFCFC44
:100B340004040CFCF8F00000203F3F3F2020303F2D
:100B44001F0F000004FCFCFC848484C4CC1C000043
:100B5400203F3F3F242121233338000004FCFCFCC8
:100B6400848484C4CC1C0000203F3F3F2101010346
:100B740003000000F0F8FC0C0404043C3C380000C2
:100B84000F1F3F302022223E3E3EA13F10F00024A2
:100B94000895E4EAFBE0EA0F08F4F395C895089594
:100BA400F000FCFCFC808080FCFCFC0000003F3F6B
:100BB4003F0101013F3F3F000000000404FCFCFC36
:100BC4000404000000000020203F3F3F20200000DC
:100BD4000000000000000404FCFCFC04041E1E3E93
:100BE400202020203F3F1F00000004FCFCFCC0E04C
:100BF400703C1C0C0000203F3F3F03070E3C383084
:100C0400000004FCFCFC0400000000000000203F85
:100C14003F3F20202030383C0000FCFCFC78F0E012
:100C2400F078FCFCFC003F3F3F00000100003F3F28
:100C34003F00FCFCFC70E0C08000FCFCFC003F3F7B
:100C44003F00000103073F3F3F00E0F0F81C0C0C9D
:100C54000C1CF8F0E000070F1F38303030381F0F3D
:100C6400070004FCFCFC848484FCFC780000203F26
:100C74003F3F2101010101000000E0F8F81C0C04D1
:100C84000C1CF8F8E000071F1F18185C5E7E7F7FBD
:100C94004700AF3E10F000240895ECEAFCE0EA0FB0
:100CA40008F4F395C8950895F00004FCFCFC8484D2
:100CB40084FCFC780000203F3F3F0101033F3F3CA0
:100CC400000078FCFC84848484BC3C3800001C3C18
:100CD4003D242421213F3F1E00001C0C0404FCFC85
:100CE400FC04040C1C00000020203F3F3F20200097
:100CF4000000FCFCFC000000FCFCFC0000001F3FAA
:100D04003F2020203F3F1F000000FCFCFC000000AF
:100D1400FCFCFC000000070F1F3830381F0F0700D1
:100D24000000FCFCFC0000800000FCFCFC00030F45
:100D34003F3C3C0F3C3C3F0F03001C3C7CE0C0E0CC
:100D44007C3C1C000000383C3E0703073E3C380056
:100D540000007CFCFC800080FCFC7C000000002087
:100D6400213F3F3F2120000000003C1C0C0484C4B0
:100D7400E47C3C1C0000383C3E2723212030383CD6
:100D840000000000FCFCFC0404040400000000005B
:100D94003F3F3F2020202000AF3E10F00024089564
:100DA400E2EBFDE0EA0F08F4F395C8950895F0002E
:100DB4001C3870E0C080000000000000000000004B
:100DC4000103070E1C183000000004040404FCFC9A
:100DD400FC0000000000202020203F3F3F000000D6
:100DE4002030381C0E0E1C3830200000000000009B
:100DF40000000000000000000000000000000000EF
:100E0400000000C0C0C0C0C0C0C0C0C0C0C0C000DE
:100E14000C0C3C303000000000000000000000001A
:100E24000000000000000000004040404040C0C0FE
:100E3400800000001C3E3E2222223F1F3F20000073
:100E440004FCFCFC404040C0C0800000203F1F3F29
:100E54002020203F3F1F000080C0C0404040C0C051
:100E6400800000001F3F3F20202039391900000076
:100E740080C0C0404044FCFCFC0400001F3F3F20F5
:100E840020203F1F3F20000080C0C0404040C0C021
:100E9400800000001F3F3F2222223B3B1B00CAE789
:100EA400D1E0EAE4F0E30E94071858E05093060208
:100EB40050908D0157FE10C0CAE7D1E0992759918F
:100EC400AAE7B1E00E949F17ECE4F0E30E940E1839
:100ED400AAE7B1E09C930FC0CAE7D1E099275991E2
:100EE400AAE7B1E00E949F17EEE4F0E30E940E1817
:100EF400AAE7B1E09C9350918D01551F50938D0149
:100F0400609006026A946092060291F608956091D8
:100F1400FE01603020F450E050930001089551E048
:100F2400509300015091FE015093010108956A2FDE
:100F34007B2FCEE1D1E00E94681700FE0895EEE415
:100F4400FFE0EA0FFB1FC89508951D5446545F4205
:100F54004C41434B2020202020205446545F5245CE
:100F64004420202020202020205446545F4752450E
:100F7400454E2020202020205446545F424C5545A5
:100F8400202020202020205446545F5748495445AF
:100F94002020202020205446545F4359414E2020D5
:100FA40020202020205446545F4441524B43594151
:100FB4004E2020205446545F4441524B47524545ED
:100FC4004E20205446545F4441524B4752455920C9
:100FD40020205446545F475245454E59454C4C4F8A
:100FE400575446545F4C494748544752455920206A
:100FF4005446545F4D4147454E54412020202054CF
:1010040046545F4D41524F4F4E20202020205446DD
:10101400545F4E415659202020202020205446540D
:101024005F4F4C4956452020202020205446545FD1
:101034004F52414E474520202020205446545F50B3
:10104400494E4B202020202020205446545F5055E8
:1010540052504C4520202020205446545F59454C82
:101064004C4F5720202020206A2F7B2FC1E0D0E056
:101074000E94681700FE0895E8E8F0E1EA0FFB1FFC
:10108400C89508950100CBE6D1E0EAE4F0E30E94BC
:1010940007185FEF5093FA015093FB016090FA0137
:1010A40063946092FA016090FB0109F46394609286
:1010B400FB0100918E0121E0021B602E00918F0143
:1010C40020E0020B702E662D772DCFE0D0E00E9439
:1010D400C117002D112D2091FA01020F602E2091CD
:1010E400FB01121F712E21E0620EA62D20E0721E5C
:1010F400B72D1DDF0092F80120918E0101E0201B25
:10110400622E20918F0100E0200B722E662D772D28
:10111400CFE0D0E00E94C117002D112D2091FA01DB
:10112400020F602E2091FB01121F712E21E0620E2E
:10113400A62D20E0721EB72D97DF0092F901509181
:10114400F8015093FE01E3DECBE6D1E099275991F3
:10115400ABE6B1E00E949F17A0E0B1E00E949F17A8
:10116400ABE6B1E09C936091FA017091FB01CEE093
:10117400D0E00E94681700FC91CF08955AE0509384
:10118400EF0150E05093F001509112025093F1019D
:1011940050E05093F2015091EA0150930E025091A5
:1011A400EB0150930F025091EC01509310025091B7
:1011B400ED01509311020E94EB13C2E5D1E099278F
:1011C4005991EEE3F0E30E940E18A3E8B1E00E9407
:1011D4009F17A2E5B1E09C9352E55093010251E0C0
:1011E400509302025091AF01509395015091B00178
:1011F400509396018BD650EA5093EF0150E05093F0
:10120400F001509112025093F10150E05093F20119
:10121400C2E5D1E0E2E4F0E30E94071852E55093FE
:10122400010251E0509302025091AF015093950195
:101234005091B0015093960169D65091EC015093AE
:10124400F3015091EB015093BE015091EA01509388
:101254008C015AE05093EF0150E05093F0016090FC
:1012640012020CE3600E6092F101662408F46394A8
:101274006092F2015091F30150938D0110DE5AE710
:1012840050930C0251E050930D0256E05093FF012D
:101294000E94401659E25093010251E05093020219
:1012A40050E050939501509396015CEF5093970151
:1012B40050E0509398017CD65AE55093EF0150E0EA
:1012C4005093F001609012020CE3600E6092F10101
:1012D400662408F463946092F2015091BE01509325
:1012E4008D01DDDD5AE750930C0251E050930D025D
:1012F40056E05093FF010E94401659E250930102B8
:1013040051E05093020250E0509395015CEF5093EA
:10131400960150E0509397015093980149D65CEAA6
:101324005093EF0150E05093F001609012020CE3EF
:10133400600E6092F101662408F463946092F201F5
:1013440050918C0150938D01AADD5AE750930C0201
:1013540051E050930D0256E05093FF010E94401655
:1013640059E25093010251E0509302025CEF509312
:10137400950150E050939601509397015093980132
:1013840017C6A33110F000240895ECE9F3E1EA0F45
:1013940008F4F395C895089513000000FCFF3FAFCF
:1013A40000AA33C9CC7E3E00000F9E00A03010F08E
:1013B40000240895E6ECF3E1EA0F08F4F395C895E8
:1013C4000895A43110F000240895ECEDF3E1EA0F40
:1013D40008F4F395C8950895000000FC00FF3FAFA2
:1013E40021AAFCC90000003E29001FFFA43110F00F
:1013F40000240895E6E0F4E1EA0F08F4F395C895B3
:1014040008950000FC0000FF000000AA93C9CC7EF0
:101414000078FCFCF0FF6EE7C09190016C1738F087
:101424006090900120E2621A6092900118C062ED0F
:10143400C09190016C1738F06090900121E2621A1B
:10144400609290010CC06AEFC09190016C1738F063
:101454006090900122E2621A6092900100C050E014
:1014640050939901609099016394609299016091FD
:101474009001CAE00E94A917662E60919001C8E10C
:101484000E94B917202D662DC0EF0E94B917009154
:101494009901020F602E601860929C016091900186
:1014A400C0E00E9462170094602CC091900169E032
:1014B4000E9462170094002D0621202F20FF05C0F2
:1014C400A0919C0155D900929B0160919001CAE0C2
:1014D4000E9462170094602CC091900163E10E9405
:1014E40062170094002D0621202F20FF05C0A09133
:1014F4009C01C1D900929B0160919001C4E10E94BA
:1015040062170094602CC09190016DE10E946217F3
:101514000094002D0621202F20FF05C0A0919C01DE
:101524002DDA00929B0160919001CEE10E94621736
:101534000094602CC091900167E20E9462170094AD
:10154400002D0621202F20FF05C0A0919C019ADACE
:1015540000929B0160919001C8E20E94621700947E
:10156400602CC091900161E30E9462170094002DE9
:101574000621202F20FF05C0A0919C0106DB0092CC
:101584009B0160919001C2E30E9462170094602C59
:10159400C09190016BE30E9462170094002D062114
:1015A400202F20FF05C0A0919C0173DB00929B01BA
:1015B40060919001CCE30E9462170094602CC0916A
:1015C400900165E40E9462170094002D0621202FEB
:1015D40020FF05C0A0919C01DFDB00929B0160917C
:1015E4009001C6E40E9462170094602CC09190019F
:1015F4006FE40E9462170094002D0621202F20FF23
:1016040006C0A0919C010E94320100929B0160914E
:101614009001C0E50E9462170094602CC091900173
:1016240069E50E9462170094002D0621202F20FFF7
:1016340006C0A0919C010E94B50100929B0160919B
:101644009001CAE50E9462170094602CC091900139
:1016540063E60E9462170094002D0621202F20FFCC
:1016640006C0A0919C010E94380200929B016091E7
:101674009001C0EA0E9462170094602CC09190010E
:1016840069EA0E9462170094002D0621202F20FF92
:1016940006C0A0919C010E947A0200929B01609175
:1016A4009001CAEA0E9462170094602CC0919001D4
:1016B40063EB0E9462170094002D0621202F20FF67
:1016C40006C0A0919C010E94FD0200929B016091C2
:1016D4009001C4EB0E9462170094602CC0919001A9
:1016E40067EB0E9462170094002D0621202F20FF33
:1016F40005C0A0919C0101D800929B0160919B01BF
:10170400643219F451E250939B0150E050939A01D2
:1017140060909A01639460929A0160909101209183
:101724009901620E6092E2016090920120E0621ED3
:101734006092E3016090930120919A01620E60929D
:10174400E4016090940120E0621E6092E5016CE087
:10175400C09199016C17C0F46090E2012CE0621A08
:101764006092E2016090E30120E0620A6092E3018A
:101774006090E40128E0620E6092E4016090E5016B
:1017840020E0621E6092E50150909B0150FE20C053
:101794005091E2015093B8015091E3015093B90183
:1017A4005091E4015093BA015091E5015093BB016B
:1017B400509195015093A301509196015093A40127
:1017C40050E05093A5015093A6010E94411422C0F9
:1017D4005091E2015093B8015091E3015093B90143
:1017E4005091E4015093BA015091E5015093BB012B
:1017F40050919F015093A3015091A0015093A401D3
:101804005091A1015093A5015091A2015093A601BA
:101814000E94411450919B01579550939B016091F4
:101824009A01683008F474CF60919901683108F422
:1018340019CE08956EE7C09190016C1738F060904E
:10184400900120E2621A6092900118C062EDC0918A
:1018540090016C1738F06090900121E2621A609256
:1018640090010CC06AEFC09190016C1738F0609041
:10187400900122E2621A6092900100C050E05093FD
:10188400990160909901639460929901609190012B
:10189400CAE00E94A917662E60919001C8E10E94D7
:1018A400B917202D662DC0EF0E94B9170091990138
:1018B400020F602E601860929C0160919001C0E05C
:1018C4000E9462170094602CC091900169E00E940C
:1018D40062170094002D0621202F20FF06C0A0913E
:1018E4009C010E94BA0300929B0160919001CAE09E
:1018F4000E9462170094602CC091900163E10E94E1
:1019040062170094002D0621202F20FF06C0A0910D
:101914009C010E943D0400929B0160919001C4E1EE
:101924000E9462170094602CC09190016DE10E94A6
:1019340062170094002D0621202F20FF05C0A091DE
:101944009C011CD800929B0160919001CEE10E9401
:1019540062170094602CC091900167E20E946217A4
:101964000094002D0621202F20FF05C0A0919C018A
:1019740089D800929B0160919001C8E20E9462178D
:101984000094602CC091900161E30E94621700945E
:10199400002D0621202F20FF05C0A0919C01F5D821
:1019A40000929B0160919001C2E30E94621700942F
:1019B400602CC09190016BE30E9462170094002D8B
:1019C4000621202F20FF05C0A0919C0162D900921E
:1019D4009B0160919001CCE30E9462170094602CFB
:1019E400C091900165E40E9462170094002D0621C5
:1019F400202F20FF05C0A0919C01CED900929B010D
:101A040060919001C6E40E9462170094602CC0911A
:101A140090016FE40E9462170094002D0621202F8C
:101A240020FF06C0A0919C010E94320100929B01FC
:101A340060919001C0E50E9462170094602CC091EF
:101A4400900169E50E9462170094002D0621202F61
:101A540020FF06C0A0919C010E94B50100929B0149
:101A640060919001CAE50E9462170094602CC091B5
:101A7400900163E60E9462170094002D0621202F36
:101A840020FF06C0A0919C010E94380200929B0195
:101A940060919001C0EA0E9462170094602CC0918A
:101AA400900169EA0E9462170094002D0621202FFC
:101AB40020FF06C0A0919C010E947A0200929B0123
:101AC40060919001CAEA0E9462170094602CC09150
:101AD400900163EB0E9462170094002D0621202FD1
:101AE40020FF06C0A0919C010E94FD0200929B0170
:101AF40060919001C4EB0E9462170094602CC09125
:101B0400900167EB0E9462170094002D0621202F9C
:101B140020FF06C0A0919C010E947F0300929B01BC
:101B240060919B01643219F451E250939B0150E09F
:101B340050939A0160909A01639460929A01609024
:101B4400910120919901620E6092E20160909201EC
:101B540020E0621E6092E3016090930120919A015B
:101B6400620E6092E4016090940120E0621E609233
:101B7400E5016CE0C09199016C17C0F46090E2013A
:101B84002CE0621A6092E2016090E30120E0620AB4
:101B94006092E3016090E40128E0620E6092E40147
:101BA4006090E50120E0621E6092E50150909B0187
:101BB40050FE22C05091E2015093B8015091E301CC
:101BC4005093B9015091E4015093BA015091E50149
:101BD4005093BB01509195015093A30150919601EC
:101BE4005093A401509197015093A50150919801ED
:101BF4005093A60144D621C05091E2015093B801FC
:101C04005091E3015093B9015091E4015093BA010A
:101C14005091E5015093BB0150919F015093A30152
:101C24005091A0015093A4015091A1015093A5019A
:101C34005091A2015093A60122D650919B01579531
:101C440050939B0160919A01683008F473CF6091BE
:101C54009901683108F415CE0895E395AEEF94E147
:101C64009A95F1F7AA95D9F7DA95C1F7EA95B1F7FC
:101C74000895D8EEE3E0F1DFFA95D9F70895C0911D
:101C8400DA01D091DB016091DC017091DD010E94E9
:101C9400681700FE18C05091DA015093B6015091B4
:101CA400DB015093B7015091DC015093DA0150915C
:101CB400DD015093DB015091B6015093DC0150914A
:101CC400B7015093DD01C091DE01D091DF01609135
:101CD400E0017091E1010E94681700FE18C0509164
:101CE400DE015093B6015091DF015093B70150913A
:101CF400E0015093DE015091E1015093DF015091D6
:101D0400B6015093E0015091B7015093E101609006
:101D1400DA0121E0621A60929D016090DB0120E00B
:101D2400620A60929E01C091DA01D091DB01609158
:101D3400DC017091DD010E94681700FC67C06090AF
:101D44009D01639460929D0160909E0109F46394E7
:101D540060929E016090DE0121E0621A6092B601F9
:101D64006090DF0120E0620A6092B701C091DE0159
:101D7400D091DF016091E0017091E1010E94681748
:101D840000FC38C06090B60163946092B601609024
:101D9400B70109F463946092B70150919D01509387
:101DA400B80150919E015093B9015091B6015093DE
:101DB400BA015091B7015093BB015091C80150939F
:101DC400A3015091C9015093A4015091CA015093A9
:101DD400A5015091CB015093A60151D56091B60154
:101DE4007091B701C091E001D091E1010E946817A0
:101DF40000FCC8CF60919D0170919E01C091DC01EF
:101E0400D091DD010E94681700FC99CF089550E03D
:101E14005093BC015093BD0150E050931302509372
:101E2400140250E050931702509318025FE350934A
:101E3400150251E0509316025FED5093190251E0E0
:101E440050931A02A3D750919F015093C30150910C
:101E5400A0015093C4015091A1015093C501509128
:101E6400A2015093C6015091C3015093BF015091F8
:101E7400C4015093C0015091C5015093C1015091C8
:101E8400C6015093C2012A98289A50E05093070241
:101E940058E55093080253E05093090251E05093DF
:101EA4000A025091C1015EBD5DB457FEFDCF5EB51F
:101EB4005093F6015091C0015EBD5DB457FEFDCF55
:101EC4005EB55093F6015091BF015EBD5DB457FEFF
:101ED400FDCF5EB55093F601609007027090080242
:101EE4008090090290900A026A9460920702C9F6EF
:101EF4007A9470920802A9F68A948092090289F66B
:101F04009A9490920A0269F62A9A0895A09101027D
:101F1400B09102025C915093EE016091EE01662350
:101F240009F408955091EF015093B3015091F001D9
:101F34005093B40150E0509303026091EE0161307C
:101F4400B0F1609003026394609203025091B30174
:101F5400509391015091B401509392015091F10129
:101F6400509393015091F2015093940160900102B7
:101F740020910302620EA62D6090020220E0621EF0
:101F8400B62D5C915093900146DA6090B3012DE038
:101F9400620E6092B3016090B40120E0621E609210
:101FA400B40160910302C091EE016C1750F20895E0
:101FB400A0910102B09102025C915093EE016091F4
:101FC400EE01662309F408955091EF015093B30193
:101FD4005091F0015093B40150E05093030260918A
:101FE400EE016130B0F160900302639460920302E9
:101FF4005091B301509391015091B40150939201C7
:102004005091F101509393015091F2015093940136
:102014006090010220910302620EA62D60900202DC
:1020240020E0621EB62D5C915093900103DC609019
:10203400B3012DE0620E6092B3016090B40120E020
:10204400621E6092B40160910302C091EE016C17AC
:1020540050F208956091B501643069F450E45093EE
:10206400A90151E05093AA0150EE5093A70151E009
:102074005093A8013FC06091B501613069F450EEFE
:102084005093A90151E05093AA0150E45093A70141
:1020940051E05093A8012EC06091B501623069F4FB
:1020A40050E45093A90151E05093AA0150EE50938B
:1020B400A70151E05093A8011DC06091B5016330A0
:1020C40069F450EE5093A90151E05093AA0150E4F1
:1020D4005093A70151E05093A8010CC050E45093D1
:1020E400A90151E05093AA0150EE5093A70151E089
:1020F4005093A80108956AE0C091F5016C1738F473
:102104005091F7015EBD5DB457FEFDCF07C05DB4CD
:1021140056FE04C05091F7015EBDF9CF5DB457FE81
:10212400FDCF5EB55093F6010895229A209A219A24
:102134002498239A259A5EE05093F50150E0509339
:10214400F40158D62A9A289AD2E3E0E086DD299A47
:10215400D2E3E0E082DD2998A3E090E09A95F1F7DC
:10216400AA95D9F79DE19A95F1F7299AD6E9E0E085
:1021740074DD50EE5093F701DDD550E05093F70134
:10218400DFD553E05093F701DBD559E05093F701C5
:10219400D7D558E05093F701D3D556E15093F701C2
:1021A400CFD55AE05093F701CBD55FE35093F701B5
:1021B400C7D558E75093F701C3D55CE45093F701B2
:1021C400BFD559E05093F701BBD55AE05093F701BE
:1021D400B7D558E05093F701B3D556E15093F701C2
:1021E400AFD55AE15093F701ABD55FE05093F701B7
:1021F400A7D551EE5093F7019DD550E05093F701C8
:102204009FD556E15093F7019BD559E15093F701BF
:1022140097D553E05093F70193D55FE05093F701BE
:102224008FD555E05093F7018BD552E35093F701C6
:1022340087D555E45093F70183D556E45093F701BD
:102244007FD554E05093F7017BD55EE05093F701BE
:1022540077D55DE05093F70173D555E35093F701BB
:102264006FD557E35093F7016BD55FE05093F701B7
:1022740067D550EC5093F7015DD557E15093F701C2
:102284005FD555E15093F7015BD551EC5093F701BD
:1022940051D551E45093F70153D555EC5093F701C0
:1022A40049D550E05093F7014BD552E15093F701D3
:1022B40047D550E85093F70143D556E35093F701BF
:1022C40039D550E45093F7013BD55AE35093F701C5
:1022D40031D556E65093F70133D550EB5093F701BF
:1022E40029D550E85093F7012BD551EB5093F701C2
:1022F40021D550EA5093F70123D554EB5093F701BD
:1023040019D552E05093F7011BD556EB5093F701C2
:1023140011D552E05093F70113D552E05093F701D1
:102324000FD559EE5093F70105D550E05093F701BE
:1023340007D557EF5093F701FDD459EA5093F701AD
:10234400FFD451E55093F701FBD45CE25093F701BD
:10235400F7D452E85093F701F3D451E15093F701C5
:10236400E9D4D8E7E0E079DC59E25093F701E2D40C
:10237400D9E1E0E072DC5FEF5093AF015093B0011C
:102384005093B10150E05093B20150E050939F013B
:102394005093A0015093A1015093A20150E4509393
:1023A400A90151E05093AA0150EE5093A70151E0C6
:1023B4005093A80156E05093AE0150E05093AB0106
:1023C40052E05093AD0157E05093AC0154E0509368
:1023D400B50140DE1CCD50E055B950E058B950E08D
:1023E4005BB950E05EB9089550E05093CC0150932E
:1023F400CD0150E05093D0015093D10150E050935F
:10240400D6015093D70150E05093D8015093D9018D
:1024140050E05093CE015093CF0150E05093D2013D
:102424005093D30150E05093D4015093D501609060
:10243400DC012091DA01621A6092CC016090DD0126
:102444002091DB01620A6092CD016090E00120914D
:10245400DE01621A6092D0016090E1012091DF01F7
:10246400620A6092D101C091CC01D091CD0160E0AB
:1024740070E036D500FE07C051E05093D60150E01D
:102484005093D70105C05FEF5093D6015093D70105
:10249400C091D001D091D10160E070E021D500FE5F
:1024A40007C051E05093D80150E05093D90105C0C2
:1024B4005FEF5093D8015093D9016091D601709188
:1024C400D701C091CC01D091CD0179D50092CC0136
:1024D4001092CD016091D8017091D901C091D001C1
:1024E400D091D1016CD50092D0011092D1016091AC
:1024F400CC017091CD01C2E0D0E061D50092CE0153
:102504001092CF016091D0017091D101C2E0D0E06E
:1025140056D50092D2011092D3016091CC017091F2
:10252400CD01C091D001D091D101DAD4009400FE44
:10253400A8C06090D2012091CC01621A6092D401AB
:102544006090D3012091CD01620A6092D50160911F
:10255400DA017091DB01C091DC01D091DD01A9D4D5
:10256400009400FE6CC05091DA015093B801509170
:10257400DB015093B9015091DE015093BA0150919F
:10258400DF015093BB015091C8015093A3015091B6
:10259400C9015093A4015091CA015093A5015091CF
:1025A400CB015093A6016BD16090DA012091D60142
:1025B400620E6092DA016090DB012091D701621E05
:1025C4006092DB016091D4017091D501C0E0D0E04C
:1025D40087D400FE0FC06090D4012091D201620E16
:1025E4006092D4016090D5012091D301621E609263
:1025F400D50124C02091D2010091CE01201B622E6E
:102604002091D3010091CF01200B722E2091D4018F
:10261400260D2093D4016090D501671C6092D501EA
:102624006090DE012091D801620E6092DE0160901C
:10263400DF012091D901621E6092DF0188CF5091A1
:10264400DA015093B8015091DB015093B9015091D4
:10265400DE015093BA015091DF015093BB015091B8
:10266400C8015093A3015091C9015093A401509102
:10267400CA015093A5015091CB015093A601FFD0FC
:10268400A7C06090CE012091D001621A6092D4015B
:102694006090CF012091D101620A6092D5016091CE
:1026A400DE017091DF01C091E001D091E10101D41C
:1026B400009400FE6CC05091DA015093B80150911F
:1026C400DB015093B9015091DE015093BA0150914E
:1026D400DF015093BB015091C8015093A301509165
:1026E400C9015093A4015091CA015093A50150917E
:1026F400CB015093A601C3D06090DE012091D80194
:10270400620E6092DE016090DF012091D901621EA9
:102714006092DF016091D4017091D501C0E0D0E0F6
:10272400DFD300FE0FC06090D4012091CE01620E71
:102734006092D4016090D5012091CF01621E609215
:10274400D50124C02091CE010091D201201B622E1C
:102754002091CF010091D301200B722E2091D4013E
:10276400260D2093D4016090D501671C6092D50199
:102774006090DA012091D601620E6092DA016090D5
:10278400DB012091D701621E6092DB0188CF50915A
:10279400DA015093B8015091DB015093B901509183
:1027A400DE015093BA015091DF015093BB01509167
:1027B400C8015093A3015091C9015093A4015091B1
:1027C400CA015093A5015091CB015093A60157D053
:1027D400089558E05093830158E0509304022FE089
:1027E40060900E02622260920B0269E0C0910B02BB
:1027F4006C1730F460900B0227E0620E60920B02BB
:1028040060900B0220E3620E6092FC0160908301F1
:1028140023E8620EA62D20E001E0201FB22F509184
:10282400FC015D9354E050930502509111025795B9
:1028340050931102509110025795509310025091E9
:102844000F02579550930F0250910E0257955093D3
:102854000E02609005026A946092050231F760905E
:1028640083016A9460928301609004026A94609286
:10287400040209F0B4CF58E05093830108956091A5
:10288400B501643009F04FC05091B8015093130260
:102894005091B901509314025091BA015093170208
:1028A4005091BB01509318025091B80150931502F6
:1028B4005091B901509316025091BA0150931902E4
:1028C4005091BB0150931A0261D25091A3015093CD
:1028D400C3015091A4015093C4015091A501509398
:1028E400C5015091A6015093C60130D25091C30145
:1028F4005093A3015091C4015093A4015091C50178
:102904005093A5015091C6015093A60150E45093F1
:10291400A90151E05093AA0150EE5093A70151E050
:102924005093A801AAC16091B501613009F067C054
:102934005091BA01509313025091BB015093140269
:102944002091A9010091B801201B622E2091AA01B7
:102954000091B901200B722E21E0621A60921702D5
:1029640020E0720A709218025091BA015093150235
:102974005091BB01509316022091A9010091B80116
:10298400201B622E2091AA010091B901200B722E06
:1029940021E0621A6092190220E0720A70921A020F
:1029A400F5D15091A3015093C3015091A4015093C8
:1029B400C4015091A5015093C5015091A6015093B3
:1029C400C601C4D15091C3015093A3015091C401D5
:1029D4005093A4015091C5015093A5015091C60193
:1029E4005093A60150EE5093A90151E05093AA01CF
:1029F40050E45093A70151E05093A8013EC1609167
:102A0400B501623009F07FC02091A9010091B8019D
:102A1400201B622E2091AA010091B901200B722E75
:102A240021E0621A6092130220E0720A709214028A
:102A34002091A7010091BA01201B622E2091A801C8
:102A44000091BB01200B722E21E0621A60921702E2
:102A540020E0720A709218022091A9010091B80135
:102A6400201B622E2091AA010091B901200B722E25
:102A740021E0621A6092150220E0720A7092160236
:102A84002091A7010091BA01201B622E2091A80178
:102A94000091BB01200B722E21E0621A6092190290
:102AA40020E0720A70921A0271D15091A3015093DE
:102AB400C3015091A4015093C4015091A5015093B6
:102AC400C5015091A6015093C60140D15091C30154
:102AD4005093A3015091C4015093A4015091C50196
:102AE4005093A5015091C6015093A60150E4509310
:102AF400A90151E05093AA0150EE5093A70151E06F
:102B04005093A801BAC06091B501633009F067C061
:102B14002091A7010091BA01201B622E2091A801E7
:102B24000091BB01200B722E21E0621A6092130205
:102B340020E0720A709214025091B8015093170267
:102B44005091B901509318022091A7010091BA0144
:102B5400201B622E2091A8010091BB01200B722E34
:102B640021E0621A6092150220E0720A7092160245
:102B74005091B801509319025091B90150931A021F
:102B840005D15091A3015093C3015091A4015093D6
:102B9400C4015091A5015093C5015091A6015093D1
:102BA400C601D4D05091C3015093A3015091C401E4
:102BB4005093A4015091C5015093A5015091C601B1
:102BC4005093A60150EE5093A90151E05093AA01ED
:102BD40050E45093A70151E05093A8014EC0509186
:102BE400B801509313025091B901509314025091BB
:102BF400BA01509317025091BB015093180250919F
:102C0400B801509315025091B90150931602509196
:102C1400BA01509319025091BB0150931A02B6D0D5
:102C24005091A3015093C3015091A4015093C40146
:102C34005091A5015093C5015091A6015093C6012E
:102C440085D05091C3015093A3015091C401509376
:102C5400A4015091C5015093A5015091C601509310
:102C6400A60150E45093A90151E05093AA0150EEFB
:102C74005093A70151E05093A8010895A0910C022C
:102C8400B0910D026C91662321F450E05093290118
:102C94000895A0910C02B0910D026C91C091FF01B6
:102CA4006C1738F4A0910C02B0910D025C91509312
:102CB400FF01A0910C02B0910D026C902091FF01D4
:102CC400621A6092000250E050930B026091FF017F
:102CD400613058F160900B02639460920B02209172
:102CE400000200910B02200F622E20910C02260D8F
:102CF400A22F60900D0220E0621EB62D5D915093CC
:102D0400FD015093FC0160900B0229E2620EA62D96
:102D140020E001E0201FB22F5091FC015D936091EF
:102D24000B02C091FF016C17A8F25091FF01509360
:102D3400290108952A982898DED92A9A0895089591
:102D44002A98289AD8D92A9A089508952A98289AC8
:102D54005091C3015093F701CED95091F60150938D
:102D6400C7015091C4015093F701C5D95091F601A0
:102D74005093C7015091C5015093F701BCD95091AC
:102D8400F6015093C7012A9A089508955AE2509380
:102D9400F701D0DF509114025093F701D1DF509125
:102DA40013025093F701CCDF509116025093F701B0
:102DB400C7DF509115025093F701C2DF5BE25093D5
:102DC400F701B8DF509118025093F701B9DF509121
:102DD40017025093F701B4DF50911A025093F70190
:102DE400AFDF509119025093F701AADF5CE25093D0
:102DF400F701A0CF5CB55F7B5CBD5CB55B7F5CBD60
:102E04005090F40150FE03C05CB554605CBD5CB5E9
:102E1400577F5CBD5090F40151FE03C05CB558600F
:102E24005CBD5CB55F7E5CBD5DB55E7F5DBD5CB564
:102E34005E7F5CBD5CB55D7F5CBD6091F5016E300D
:102E440039F45CB550615CBD5DB551605DBD2DC0AC
:102E54006091F5016D3021F45CB550615CBD25C015
:102E64006091F5016C3039F45CB550615CBD5CB5C2
:102E740051605CBD1AC06091F5016B3051F45CB5D2
:102E840050615CBD5CB552605CBD5CB551605CBDBD
:102E94000CC06091F501662309F407C06091F50147
:102EA400613019F45CB550685CBD5CB550645CBDC0
:102EB400089500246C1719F47D1709F400940895FB
:102EC40000246C1708F00895009408950024D7177F
:102ED40030F07D1718F06C1708F0089500940895E9
:102EE40050E0052E77FF1BC0D7FD04C0602C609412
:102EF400062C0895662E772E60947094639409F4DA
:102F04007394862D972D6C2E7D2E6094709463940B
:102F140009F47394662D772DC82FD92F02C0D7FDDD
:102F24000895D71730F07D1718F06C1708F008953E
:102F3400009408956D91699302C06D91960F60306D
:102F440009F40895ED91E9936A95E1F70895CC2386
:102F540009F40895002458E0552E660F001C0C1A3D
:102F6400616010F46E7F0C0E5A94B9F70895002432
:102F7400C0FD060EC695660FCC23D1F70895862FA3
:102F8400972FEC2FFD2F50E0252E50E0352EE0FF3B
:102F940006C0622C680E262C632C691E362C88947D
:102FA400F795E7958894881F991FCE2FDF2F60E04F
:102FB40070E08CDF00FCEBCF022C132C08956D2EF7
:102FC4006726462C77FF09C0662E772E609470948E
:102FD400639409F47394662D772DD7FF09C06C2E82
:102FE4007D2E60947094639409F47394C62DD72D48
:102FF400C6DF47FE09C0602C712C60947094639402
:1030040009F47394062C172C0895C895602DE39544
:1030140009F4F395699306C0C895602DE39509F406
:10302400F395960F603009F40895C895E39509F473
:10303400F39509926A95C9F708950230780006520B
:0C304400474236363600000001310130F2
:00000001FF
