:020000020000FC
:0200000059C0E5
:0200040018954D
:02000800189549
:02000C00189545
:02001000189541
:0200140018953D
:02001800189539
:02001C00189535
:02002000189531
:0200240018952D
:02002800189529
:02002C00189525
:02003000189521
:0200340018951D
:02003800189519
:02003C00189515
:02004000189511
:0200440018950D
:060048000C94F31D189555
:02005000189501
:020054001895FD
:020058001895F9
:02005C001895F5
:020060001895F1
:020064001895ED
:020068001895E9
:02006C001895E5
:020070001895E1
:020074001895DD
:020078001895D9
:02007C001895D5
:020080001895D1
:020084001895CD
:04008A001895189518
:020090001895C1
:020094001895BD
:020098001895B9
:02009C001895B5
:0200A0001895B1
:0200A4001895AD
:0200A8001895A9
:0200AC001895A5
:0200B0001895A1
:1000B40058E05EBF5FEF5EBF0E94D31D0E94DC1D4F
:1000C4000E94381C78940E942C1C51E05093E40147
:1000D4000E94A21B50E050930D0250930E0250E078
:1000E40050931102509312026090D60101E0601AFD
:1000F40060920F026090D70100E0600A60921002E3
:100104006090D40101E0601A609213026090D501FE
:1001140000E0600A6092140250E05093FB015FEF2C
:100124005093FC015093FD0150E05093FE010E9456
:10013400B40C51E050930D0250E050930E0251E084
:100144005093110250E0509312026090D60102E0E5
:10015400601A60920F026090D70100E0600A60921A
:1001640010026090D40102E0601A60921302609061
:10017400D50100E0600A6092140250E05093FB0144
:100184005FEF5093FC015093FD0150E05093FE014A
:100194000E94B40C6091D6017091D701C2E0D0E006
:1001A4000E945D28662E772E01E0601A60920D028F
:1001B40000E0700A70920E0254E15093110250E074
:1001C400509312026091D6017091D701C2E0D0E041
:1001D4000E945D28662E772E01E0600E60920F0269
:1001E40000E0701E709210025091D40150931302DB
:1001F4005091D5015093140250E05093FB015FEFEE
:100204005093FC015093FD0150E05093FE010E9475
:10021400F31350E050930D0250930E0250E05093AC
:100224001102509312025091D60150930F02509133
:10023400D7015093100254E15093130250E05093AD
:10024400140250E05093FB015FEF5093FC01509374
:10025400FD0150E05093FE010E94B40C5AE8509303
:10026400370250E05093380252E05093390250E084
:1002740050933A02C2E5D1E0EAE9F2E50E9401298D
:1002840052E55093680251E0509369025FEF509336
:10029400AC015093AD015093AE0150E05093AF01C7
:1002A4000E94B21A55E05093370250E0509338023E
:1002B4005EE15093390250E050933A02C2E5D1E036
:1002C400EAEAF2E50E94012952E55093680251E0FE
:1002D4005093690250E05093AC015CEF5093AD0130
:1002E40050E05093AE015093AF010E94B21A5FE008
:1002F4005093370250E0509338025CE35093390234
:1003040050E050933A02C2E5D1E0EAEBF2E50E94F4
:10031400012952E55093680251E0509369025091CB
:10032400DC015093AC015091DD015093AD010E946A
:100334005F1A5FE05093370250E05093380250E563
:100344005093390250E050933A02C2E5D1E0E2EC16
:10035400F2E50E94012952E55093680251E050935E
:1003640069025091DC015093AC015091DD0150932E
:10037400AD010E945F1A6091D6017091D701C2E06D
:10038400D0E00E945D28662E772E0AE0600E60920F
:100394000D0200E0701E70920E0258E2509311029A
:1003A40050E0509312026090D6010AE0601A609205
:1003B4000F026090D70100E0600A60921002609022
:1003C400D40104E1601A609213026090D50100E048
:1003D400600A6092140250E05093FB015FEF509367
:1003E400FC015093FD0150E05093FE010E94B40CB7
:1003F4006091D6017091D701C2E0D0E00E945D28DF
:10040400662E772E0AE0600E60920D0200E0701EE8
:1004140070920E0258E25093110250E0509312026F
:100424006090D6010AE0601A60920F026090D701D2
:1004340000E0600A6092100250E55093130250E00D
:100444005093140250E05093FB015CEF5093FC0175
:1004540050E05093FD015093FE010E94F31360910C
:10046400D6017091D701C2E0D0E00E945D28662ECB
:10047400772E04E1600E6092400200E0701E7092DC
:10048400410258E75093440250E050934502609073
:10049400D60104E1601A609242026090D70100E044
:1004A400600A609243026090D40108E2601A60928C
:1004B40046026090D50100E0600A6092470250E075
:1004C4005093AC015FEF5093AD015093AE0150E0F7
:1004D4005093AF010E94E02350E050933B0258E157
:1004E4005093370251E0509338025CE8509339023C
:1004F40050E050933A02C2E5D1E0ECECF2E50E9400
:10050400012952E55093640251E05093650254E08E
:10051400509386025091DC0150938C025091DD017E
:1005240050938D020E94051B58E15093370251E00D
:100534005093380254EB5093390250E050933A02EE
:10054400C2E5D1E0EEECF2E50E94012952E55093B8
:10055400640251E05093650254E050938602509136
:10056400DC0150938C025091DD0150938D020E9466
:10057400051B58E15093370251E0509338025CED6B
:100584005093390250E050933A02C2E5D1E0E0EDD5
:10059400F2E50E94012952E55093640251E0509320
:1005A400650254E0509386025091DC0150938C0212
:1005B4005091DD0150938D020E94051B50E0509331
:1005C40054025093550254E65093560250E050930F
:1005D400570250E05093CA015093CB0150E050931E
:1005E40020025093210251E05093B80150E05093FF
:1005F400B90151E05093BA0150E05093BB016091AE
:100604002802C09129026C1709F47AC061D3509171
:100614009A015093F70160915E02662351F4609150
:10062400F701C0911D026C1719F451E050935E025A
:100634005BC060915E026130A9F46091F701C3E090
:100644000E94FA2700FE0AC052E050935E0251E075
:100654005093B80150E05093B90103C050E0509357
:100664005E0242C060915E02623009F03AC060915D
:10067400B8017091B901C2E0D0E00E94FF2700FEEA
:1006840001C02BC06091B8017091B901C3E0D0E002
:100694000E94FF2700FE05C05091F70150939C0172
:1006A4001CC06091B8017091B901C4E0D0E00E940F
:1006B400FF2700FE05C05091F70150939B010DC028
:1006C4006091B8017091B901C5E0D0E00E94FF27A4
:1006D40000FE03C050E050935E0250E050933B0292
:1006E40003C050E050935E026090B801639460923E
:1006F400B8016090B90109F463946092B9017FCFA5
:1007040060913B02662301F552EC50937B0251E069
:1007140050937C0252E65093830250E0509384023B
:100724005AE050937D0250E050937E0250E0509383
:10073400FB015CEF5093FC0150E05093FD0150939A
:10074400FE010E94BC144CC052EC50937B0251E059
:1007540050937C0252E65093830250E050938402FB
:100764005AE050937D0250E050937E025091CC01A8
:100774005093FB015091CD015093FC015091CE0157
:100784005093FD015091CF015093FE010E94BC147F
:1007940052EC50937B0251E050937C0252E650930A
:1007A400830250E05093840259E05093F80150E0E2
:1007B4005093F90150E05093FB015093FC015CEF1E
:1007C4005093FD0150E05093FE015091EB01509382
:1007D40085020E94E30D50E050939B0150939C01CD
:1007E40060903B02639460923B0250E05093CC01D2
:1007F4005CEF5093CD0150E05093CE015093CF0164
:1008040050E45093370251E05093380252E350932E
:10081400390250E050933A02C2E5D1E0E2EDF2E54C
:100824000E94012952E55093640251E050936502FD
:1008340050E05093FB015093FC015093FD01509301
:10084400FE010E94F81950E05093CC015093CD0161
:100854005093CE015093CF0160911E0270911F02FC
:10086400C0E0D0E00E94FF2700FE09C050919B0128
:100874005093240250919C015093250250C06091E2
:100884001E0270911F02C8E6D0E00E94FF2700FEFE
:1008940009C050919B015093220250919C015093A6
:1008A40023023DC060911E0270911F02C1E1D0E09D
:1008B4000E94FF2700FE09C050919B015093CA017A
:1008C40050919C015093CB012AC060911E027091FB
:1008D4001F02CBE0D0E00E94FF2700FE09C0509128
:1008E4009B015093260250919C015093270217C0FC
:1008F40060911E0270911F02CCE0D0E00E94FF279D
:1009040000FE0DC050919B015093200250919C0118
:100914005093210259E250935C020E946F265CE8D6
:1009240050932E0250E050932F025CE35093320216
:1009340050E05093330256E35093300251E0509309
:1009440031025CE85093340250E0509335025091E8
:10095400260250938A025091270250938B025AE048
:100964005093880250E05093890254E050938602D9
:1009740050E05093870250E05093AC015093AD0186
:100984005CEF5093AE0150E05093AF010E94EC2015
:1009940050918A025093260250918B025093270261
:1009A40050E050932E0250932F0250E050933202A5
:1009B4005093330256E35093300251E05093310286
:1009C40054EB5093340250E050933502509120027E
:1009D40050938A025091210250938B0254E6509313
:1009E400880250E05093890254E05093860250E00C
:1009F4005093870250E05093AC015093AD015CEFEB
:100A04005093AE0150E05093AF010E94EC205091FE
:100A14008A025093200250918B02509321025CE889
:100A240050932E0250E050932F0250E5509332021F
:100A340050E05093330256E35093300251E0509308
:100A440031025CED5093340250E0509335025091E2
:100A5400CA0150938A025091CB0150938B0254E601
:100A64005093880250E05093890254E050938602D8
:100A740050E05093870250E05093AC015093AD0185
:100A84005CEF5093AE0150E05093AF010E94EC2014
:100A940050918A025093CA0150918B025093CB011A
:100AA4005CE850932E0250E050932F0254E650938A
:100AB400320250E05093330250E05093300250938E
:100AC400310250E050933402509335025091240285
:100AD40050938A025091250250938B0254E650930E
:100AE400880250E05093890254E05093860250E00B
:100AF4005093870250E05093AC015093AD015CEFEA
:100B04005093AE0150E05093AF010E94EC205091FD
:100B14008A025093240250918B02509325025CE880
:100B240050932E0250E050932F0258E75093320214
:100B340050E05093330250E050933002509331020E
:100B440050E0509334025093350250912202509356
:100B54008A025091230250938B0254E650938802E8
:100B640050E05093890254E05093860250E0509331
:100B7400870250E05093AC015093AD015CEF509369
:100B8400AE0150E05093AF010E94EC2050918A02D4
:100B94005093220250918B025093230251E05093C0
:100BA4001D0251E050931A02A091BA0173D0009231
:100BB4001E02A091BA017DD000921F0260911E0214
:100BC40070911F02CFEFDFEF0E94FF2700FE07C0E6
:100BD40051E05093BA0150E05093BB010BC06090B8
:100BE400BA0163946092BA016090BB0109F4639402
:100BF4006092BB0150911D025093980253E05093B0
:100C0400900250911E025093960250911F025093ED
:100C1400970250911A025093940250E05093950217
:100C24005CE85093780251E0509379020E9474205A
:100C34005091980250931D025091960250931E02B7
:100C44005091970250931F025091940250931A02AC
:100C54005FEF50931B0260901B02639460921B022F
:100C64000CE8600EA62D00E021E0021FB02F5C917D
:100C7400509358020E94091C60911B02673058F37C
:100C8400D9E1E0E00E94E713BACC50E050931C0293
:100C94008895FECFA73010F000240895EEEAFCE01A
:100CA400EA0F08F4F395C895089506110B0C226811
:100CB400FF00A73010F000240895ECECFCE0EA0FEC
:100CC40008F4F395C8950895000000000000FF00A3
:100CD40050912902509315026090150204E8600EA9
:100CE400A62D00E021E0021FB02F5C9150939A01E1
:100CF400009115020395602E662DC8E00E944D28D0
:100D040000921502509163025E7F0FF4516050937C
:100D14006302F89450911502509329025090630293
:100D240050FC78940895AF3E10F000240895E0E458
:100D3400FDE0EA0F08F4F395C8950895F00080806B
:100D4400F8FCFC849C9C1800000021213F3F3F21BB
:100D540021010000000080C0C0404040C080C0406D
:100D6400000047CFDF989898FFFF7F00000004FC45
:100D7400FCFC804040C0C0800000203F3F3F010099
:100D8400003F3F3F000000404040DCDCDC0000004E
:100D94000000002020203F3F3F20202000000000D2
:100DA40000404040DCDCDC0000002060E08080C0CB
:100DB400FFFF7F00000004FCFCFC000080C0C0407A
:100DC4000000203F3F3F02070F3D38300000000481
:100DD4000404FCFCFC0000000000002020203F3F35
:100DE4003F2020200000C0C0C04040C04040C0C0E0
:100DF40080003F3F3F00003F00003F3F3F00C0C036
:100E0400C0404040C0C0800000003F3F3F000000A1
:100E14003F3F3F00000080C0C0404040C0C0800051
:100E240000001F3F3F2020203F3F1F00A03F10F045
:100E340000240895E6E4FEE0EA0F08F4F395C8956B
:100E44000895F00040C080C0404040C0C080000011
:100E540080FFFFFF9010101F1F0F0080C0C0404094
:100E640040C080C04000000F1F1F101090FFFFFF04
:100E74008000000040C0C0C080C0C0C0C08000006E
:100E8400203F3F3F210000010101000080C0C0401D
:100E9400404040C080000000193B232626263C3DEC
:100EA400190000004040E0F0F840404040000000DD
:100EB40000001F3F3F20383818000000C0C0C000A9
:100EC4000000C0C0C00000001F3F3F2020203F1F83
:100ED4003F200000C0C0C0000000C0C0C00000002F
:100EE400070F1F3830381F0F07000000C0C0C000B4
:100EF40000000000C0C0C000070F3F38380E38386B
:100F04003F0F0700C0C0C00000C0C0C00000000008
:100F140030393F0F0F3F39300000000000C0C0C01F
:100F2400000000C0C0C0000080878F9FD8F8783FC1
:100F34000F07AD3610F000240895ECE4FFE0EA0F4B
:100F440008F4F395C89508957800C0C0404040C0A7
:100F5400C0C00000000031383C2E27233138000087
:100F640000008080C0787C3C04040404000001017B
:100F7400031E3E3C20202020000000000000FEFE56
:100F8400FE0000000000000000007F7F7F000000E2
:100F94000000040404043C7C78C08080000020200D
:100FA40020203C3E1E03010100383C3C040C1C384C
:100FB40030203C3C1C00A03F10F000240895E0EDDC
:100FC400FFE0EA0F08F4F395C8950895F000E0F007
:100FD400F81C0C0C1CF8F0E000003F3F3F0202023A
:100FE400023F3F3F000004FCFCFC848484FCFC784A
:100FF4000000203F3F3F2424243F3F1E000000FC0C
:10100400FCFC0C0C0C0C0C000000003F3F3F0000EB
:10101400000000000000E0F0F81C0C0C1CF8F0E0EC
:1010240000003F3F3F303030303F3F3F000004FC82
:10103400FCFC848484C4CC1C0000203F3F3F242457
:101044002423333800003C1C0C0484C4E47C3C1C82
:101054000000383C3E2723242030383C0000FCFCB0
:10106400FC808080FCFCFC0000003F3F3F0101014C
:101074003F3F3F000000E0F0F89C8C8C8C9CF8F023
:10108400E000070F1F39313131391F0F0700000409
:1010940004FCFCFC0404000000000020203F3F3F4F
:1010A40020200000000004FCFCFCC0E0703C1C0C90
:1010B4000000203F3F3F03070E3C3830AE3E10F0A7
:1010C40000240895E6EDF0E1EA0F08F4F395C895DD
:1010D4000895F000E0F0F81C0C0C1CF8F0E000009F
:1010E4003F3F3F000000003F3F3F0000FCFCFC7816
:1010F400F0E0F078FCFCFC003F3F3F000001000002
:101104003F3F3F00FCFCFC70E0C08000FCFCFC00A6
:101114003F3F3F00000103073F3F3F00001C1C9C72
:101124009C9C9C9C1C1C0000003838393939393986
:1011340038380000E0F0F81C0C0C0C1CF8F0E0004F
:10114400070F1F38303030381F0F0700FCFCFC1C21
:101154001C1C1CFCFCFC00003F3F3F000000003F47
:101164003F3F000004FCFCFC848484FCFC78000009
:10117400203F3F3F2401010101000000003C7CFCB2
:10118400DC9C9C1C1C1C0000003C3E3F3B39393855
:10119400383800001C0C0404FCFCFC04040C1C0087
:1011A400000020203F3F3F20200000007CFCFC800A
:1011B4000080FCFC7C0000000020243F3F3F2420F2
:1011C400AF3510F000240895EAEDF1E1EA0F08F4D8
:1011D400F395C895089560E0F0F83818FCFC1838C9
:1011E400F8F0E0070F1F1C183F3F181C1F0F0700E3
:1011F4001C3C7CE0C0E07C3C1C000000383C3E070A
:1012040003073E3C38000000FCFCFC80F8F8F88042
:10121400FCFCFC00000103233F3F3F2303010000CB
:101224000070FCFC8C8C8CFCFC70000000003133E2
:10123400333333333100AF3E10F000240895E0E53A
:10124400F2E1EA0F08F4F395C8950895F000000060
:10125400000000000000000000000000000000008A
:1012640000000000000000F8FCFCFCF80000000096
:101274000000000073737300000000000000001EF3
:101284003E3E0000003E3E1E000000000000000044
:1012940000000000003030FEFE30303030FEFE3002
:1012A400300C0C7F7F0C0C0C0C7F7F0C0C00F0F8C6
:1012B40098FE9898FE98981800001819197F191923
:1012C4007F191F0F00000038383880C0E0703800E4
:1012D4000000001C0E0703011C1C1C00000038FC4D
:1012E400C4C4FC380000008000001E3F2121333FAD
:1012F4001E1E3723000000203C3C1C0000000000A0
:10130400000000000000000000000000000000C019
:10131400E0F0381C0C04040000000003070F1C3824
:101324003020200000000004040C1C38F0E0C00051
:10133400000000202030381C0F070300A03F10F0ED
:1013440000240895E6E5F3E1EA0F08F4F395C8955F
:101354000895F0808890E0E0FCFCE0E09088800153
:10136400110907073F3F070709110100008080802A
:10137400F0F0808080000000000101010F0F0101E6
:101384000100000000000000000000000000000058
:1013940000407878380000000000000080808080E1
:1013A4008080808080800000010101010101010131
:1013B4000101000000000000000000000000000027
:1013C4000000383838000000000000000000000071
:1013D400000080C0E07038002030381C0E07030184
:1013E40000000000F8FCFC04040404FCFCF8000009
:1013F4001F3F3F202020203F3F1F0000606060F01F
:10140400FCFC0000000000002020203F3F3F202083
:1014140020000000181C1C040484CCFC783000005C
:1014240030383C2E2723213838380000181C1C84FF
:101434008484CC7C78300000183838242121333E51
:101444001E0CA13F10F000240895ECE5F4E1EA0F2E
:1014540008F4F395C8950895F00080C0603018FC36
:10146400FCFC0000000003030323233F3F3F23232E
:101474000000FCFCFC848484848404040000193986
:1014840039242121333F1F0E0000E0F0F89C8C84A6
:101494008484800000001F3F3F242421213F3F1FFC
:1014A40000003C3C3C0404040484FCFC7C0000007C
:1014B40000383C3E070301000000787CFCC4C4846F
:1014C40084FC7C7800001E3E3F212123233F3E1EE6
:1014D4000000F8FCFC84848484FCFCF80000000117
:1014E40024212131391F0F070000000000707070A3
:1014F4000000000000000000000E0E0E00000000BE
:101504000000000000707070000000000000000087
:10151400101E1E0E00000000000080C0E070381C89
:101524000E06020000000103070E1C387060400024
:101534000060606060606060606060606006060615
:1015440006060606060606060600A03F10F000245E
:101554000895E4E6F5E1EA0F08F4F395C8950895D3
:10156400F00002060E1C3870E0C0800000004060ED
:1015740070381C0E070301000000181C0C0E0686B0
:10158400CEFC7C3800000000000073737300000080
:101594000000FCFEFE0202C2C2C2FEFEFC003F3F8F
:1015A4007F606063636363430300E0F0F81C0C0C2A
:1015B4001CF8F0E000003F3F3F020202023F3F3FC1
:1015C400000004FCFCFC848484FCFC780000203FC4
:1015D4003F3F2421213F3F1E0000F0F8FC0C04048F
:1015E400041C1C1800000F1F3F302020203838181E
:1015F400000004FCFCFC04040CFCF8F00000203F98
:101604003F3F2020303F1F0F000004FCFCFC84847B
:1016140084C4CC1C0000203F3F3F242121233338C5
:10162400000004FCFCFC848484C4CC1C0000203F27
:101634003F3F2101010303000000F0F8FC0C040407
:10164400043C3C3800000F1F3F302022223E3E3E27
:10165400A13F10F000240895EAE6F6E1EA0F08F449
:10166400F395C8950895F000FCFCFC808080FCFC98
:10167400FC0000003F3F3F0101013F3F3F000000ED
:10168400000404FCFCFC0404000000000020203FD3
:101694003F3F202000000000000000000404FCFC88
:1016A400FC04041E1E3E202020203F3F1F0000009B
:1016B40004FCFCFCC0E0703C1C0C0000203F3F3FDD
:1016C40003070E3C3830000004FCFCFC040000005E
:1016D40000000000203F3F3F20202030383C000025
:1016E400FCFCFC78F0E0F078FCFCFC003F3F3F00A1
:1016F400000100003F3F3F00FCFCFC70E0C08000A4
:10170400FCFCFC003F3F3F00000103073F3F3F005C
:10171400E0F0F81C0C0C0C1CF8F0E000070F1F386C
:10172400303030381F0F070004FCFCFC848484FC38
:10173400FC780000203F3F3F21010101010000002F
:10174400E0F8F81C0C040C1CF8F8E000071F1F1844
:10175400185C5E7E7F7F4700AF3E10F00024089542
:10176400E2E7F7E1EA0F08F4F395C8950895F0006D
:1017740004FCFCFC848484FCFC780000203F3F3F94
:101784000101033F3F3C000078FCFC84848484BC5A
:101794003C3800001C3C3D242421213F3F1E000016
:1017A4001C0C0404FCFCFC04040C1C0000002020A1
:1017B4003F3F3F2020000000FCFCFC000000FCFC3C
:1017C400FC0000001F3F3F2020203F3F1F0000007F
:1017D400FCFCFC000000FCFCFC000000070F1F38B0
:1017E40030381F0F07000000FCFCFC0000800000E4
:1017F400FCFCFC00030F3F3C3C0F3C3C3F0F030050
:101804001C3C7CE0C0E07C3C1C000000383C3E07F3
:1018140003073E3C380000007CFCFC800080FCFC9C
:101824007C0000000020213F3F3F212000000000F9
:101834003C1C0C0484C4E47C3C1C0000383C3E2763
:1018440023212030383C00000000FCFCFC0404048C
:101854000400000000003F3F3F2020202000AF3E56
:1018640010F000240895E8E7F8E1EA0F08F4F3958E
:10187400C8950895F0001C3870E0C0800000000096
:101884000000000000000103070E1C1830000000D7
:1018940004040404FCFCFC000000000020202020C0
:1018A4003F3F3F0000002030381C0E0E1C38302013
:1018B4000000000000000000000000000000000024
:1018C400000000000000000000C0C0C0C0C0C0C0D4
:1018D400C0C0C0C0C0000C0C3C3030000000000090
:1018E40000000000000000000000000000000040B4
:1018F40040404040C0C0800000001C3E3E222222E6
:101904003F1F3F20000004FCFCFC404040C0C0805E
:101914000000203F1F3F2020203F3F1F000080C0C9
:10192400C0404040C0C0800000001F3F3F20202036
:1019340039391900000080C0C0404044FCFCFC045C
:1019440000001F3F3F2020203F1F3F20000080C099
:10195400C0404040C0C0800000001F3F3F22222200
:101964003B3B1B00C0910D02D0910E0260910F020F
:10197400709110020E940C2800FE18C050910D02B4
:101984005093E50150910E025093E60150910F02DD
:1019940050930D025091100250930E025091E501A4
:1019A40050930F025091E60150931002C09111021E
:1019B400D091120260911302709114020E940C28BB
:1019C40000FE18C0509111025093E501509112028B
:1019D4005093E60150911302509311025091140256
:1019E400509312025091E501509313025091E60175
:1019F4005093140260900D0221E0621A6092C001BB
:101A040060900E0220E0620A6092C101C0910D0252
:101A1400D0910E0260910F02709110020E940C2866
:101A240000FC5BC06090C00163946092C001609050
:101A3400C10109F463946092C1015091C0015093B3
:101A4400E7015091C1015093E80150911102509364
:101A5400E901509112025093EA015091FB01509315
:101A6400D0015091FC015093D1015091FD0150934C
:101A7400D2015091FE015093D3010E94BC21509198
:101A8400C0015093E7015091C1015093E801509176
:101A940013025093E901509114025093EA015091BA
:101AA400FB015093D0015091FC015093D10150910E
:101AB400FD015093D2015091FE015093D3010E9435
:101AC400BC216091C0017091C101C0910F02D091FD
:101AD40010020E940C2800FCA5CF6090110221E0A6
:101AE400621A6092C0016090120220E0620A609261
:101AF400C101C0911102D091120260911302709140
:101B040014020E940C2800FC5BC06090C001639426
:101B14006092C0016090C10109F463946092C101B4
:101B240050910D025093E70150910E025093E80139
:101B34005091C0015093E9015091C1015093EA01C1
:101B44005091FB015093D0015091FC015093D1016D
:101B54005091FD015093D2015091FE015093D30155
:101B64000E94BC2150910F025093E7015091100242
:101B74005093E8015091C0015093E9015091C10183
:101B84005093EA015091FB015093D0015091FC0114
:101B94005093D1015091FD015093D2015091FE0117
:101BA4005093D3010E94BC216091C0017091C10186
:101BB400C0911302D09114020E940C2800FCA5CFFE
:101BC40008955091F80150937D025091F90150937A
:101BD4007E0260917D0270917E02C2E0D0E00E949C
:101BE4008C28662E772E60947094639409F4739411
:101BF40060923C0270923D0260917D0270917E027F
:101C0400C0918502D0E00E941628009400FEBAC15B
:101C140060907B0220917D02620E6092E7016090E9
:101C24007C0220917E02621E6092E8016090830231
:101C340020918502620E6092E9016090840220E0A6
:101C4400621E6092EA015091FB015093D0015091C1
:101C5400FC015093D1015091FD015093D201509158
:101C6400FE015093D3010E94BC2160907B0220911D
:101C74008502620E6092E70160907C0220E0621EA1
:101C84006092E8016090830220917D02620E60926E
:101C9400E9016090840220917E02621E6092EA0152
:101CA4005091FB015093D0015091FC015093D1010C
:101CB4005091FD015093D2015091FE015093D301F4
:101CC4000E94BC2160907B0220917D02621A609286
:101CD400E70160907C0220917E02620A6092E80132
:101CE4006090830220918502620E6092E901609007
:101CF400840220E0621E6092EA015091FB0150933D
:101D0400D0015091FC015093D1015091FD015093A9
:101D1400D2015091FE015093D3010E94BC216090E6
:101D24007B0220918502621A6092E70160907C0236
:101D340020E0620A6092E8016090830220917D02B3
:101D4400620E6092E9016090840220917E02621E1C
:101D54006092EA015091FB015093D0015091FC0133
:101D64005093D1015091FD015093D2015091FE0145
:101D74005093D3010E94BC2160907B0220917D028C
:101D8400621A6092E70160907C0220917E02620AEE
:101D94006092E8016090830220918502621A609249
:101DA400E9016090840220E0620A6092EA015091A5
:101DB400FB015093D0015091FC015093D1015091FB
:101DC400FD015093D2015091FE015093D3010E9422
:101DD400BC2160907B0220918502621A6092E70127
:101DE40060907C0220E0620A6092E80160908302C5
:101DF40020917D02621A6092E90160908402209130
:101E04007E02620A6092EA015091FB015093D00174
:101E14005091FC015093D1015091FD015093D20196
:101E24005091FE015093D3010E94BC2160907B022B
:101E340020917D02620E6092E70160907C02209105
:101E44007E02621E6092E801609083022091850206
:101E5400621A6092E9016090840220E0620A609252
:101E6400EA015091FB015093D0015091FC01509331
:101E7400D1015091FD015093D2015091FE01509334
:101E8400D3010E94BC2160907B0220918502620EE6
:101E94006092E70160907C0220E0621E6092E8019B
:101EA4006090830220917D02621A6092E901609041
:101EB400840220917E02620A6092EA015091FB0141
:101EC4005093D0015091FC015093D1015091FD01E8
:101ED4005093D2015091FE015093D3010E94BC2132
:101EE4006090850263946092850260913C027091D7
:101EF4003D02C0E0D0E00E94162800FE15C02091EB
:101F04008502220F00913C02020F602E20913D02B7
:101F140000E0201F722E21E0620E60923C0220E05D
:101F2400721E70923D022DC060907D0221E0621A03
:101F340060927D0260907E0220E0620A60927E02DE
:101F44002091850200917D02201B622E20E00091E9
:101F54007E02200B722E21E0620E062D20E0721EFE
:101F6400172D602F712FC2E0D0E00E94DB28609013
:101F74003C02600C60923C0260903D02611C6092E5
:101F84003D023ACE08956EE7C0919D016C1738F07A
:101F9400A0909D0120E2A21AA0929D0118C062EDBA
:101FA400C0919D016C1738F0A0909D0121E2A21A06
:101FB400A0929D010CC06AEFC0919D016C1738F08E
:101FC400A0909D0122E2A21AA0929D0100C050E0BF
:101FD4005093B101A090B101A394A092B10160917A
:101FE4009D01CAE00E944D28A62E60919D01C8E182
:101FF4006C9F602C6A2DC0EF6C9F2091B101260D5F
:10200400A22EA018A092B70160919D01C0E00E9489
:1020140006280094A02CC0919D0169E00E94062826
:102024000094202D2A21622E60FE05C0A091B701E4
:1020340002D90092B50160919D01CAE00E94062870
:102044000094A02CC0919D0163E10E940628009495
:10205400202D2A21622E60FE05C0A091B7016ED901
:102064000092B50160919D01C4E10E94062800948C
:10207400A02CC0919D016DE10E9406280094202DA2
:102084002A21622E60FE05C0A091B701DAD9009220
:10209400B50160919D01CEE10E9406280094A02C18
:1020A400C0919D0167E20E9406280094202D2A21F8
:1020B400622E60FE05C0A091B70147DA0092B50117
:1020C40060919D01C8E20E9406280094A02CC09152
:1020D4009D0161E30E9406280094202D2A21622E8E
:1020E40060FE05C0A091B701B3DA0092B50160911A
:1020F4009D01C2E30E9406280094A02CC0919D017A
:102104006BE30E9406280094202D2A21622E60FE93
:1021140005C0A091B70120DB0092B50160919D013B
:10212400CCE30E9406280094A02CC0919D0165E494
:102134000E9406280094202D2A21622E60FE05C0EC
:10214400A091B7018CDB0092B50160919D01C6E4BA
:102154000E9406280094A02CC0919D016FE40E9467
:1021640006280094202D2A21622E60FE06C0A0912C
:10217400B7010E9495060092B50160919D01C0E5EA
:102184000E9406280094A02CC0919D0169E50E943C
:1021940006280094202D2A21622E60FE06C0A091FC
:1021A400B7010E9418070092B50160919D01CAE52C
:1021B4000E9406280094A02CC0919D0163E60E9411
:1021C40006280094202D2A21622E60FE06C0A091CC
:1021D400B7010E949B070092B50160919D01C0EA7E
:1021E4000E9406280094A02CC0919D0169EA0E94D7
:1021F40006280094202D2A21622E60FE06C0A0919C
:10220400B7010E94DD070092B50160919D01CAEA01
:102214000E9406280094A02CC0919D0163EB0E94AB
:1022240006280094202D2A21622E60FE06C0A0916B
:10223400B7010E9460080092B50160919D01C4EB52
:102244000E9406280094A02CC0919D0167EB0E9477
:1022540006280094202D2A21622E60FE06C0A0913B
:10226400B7010E94E2080092B5016091B5016432A1
:1022740019F451E25093B50150E05093B301A0908A
:10228400B301A394A092B301A090A2016090B10104
:10229400A60CA0921602A090A30120E0A21EA09278
:1022A4001702A090A4016090B301A60CA09218029A
:1022B400A090A50120E0A21EA09219026CE0C0919A
:1022C400B1016C17C0F4A09016022CE0A21AA092DF
:1022D4001602A090170220E0A20AA0921702A09072
:1022E400180228E0A20EA0921802A090190220E081
:1022F400A21EA09219025090B50150FE20C0509128
:1023040016025093E701509117025093E80150913F
:1023140018025093E901509119025093EA01509127
:10232400AC015093D0015091AD015093D10150E0D4
:102334005093D2015093D3010E94BC2122C05091EA
:1023440016025093E701509117025093E8015091FF
:1023540018025093E901509119025093EA015091E7
:10236400CC015093D0015091CD015093D1015091A3
:10237400CE015093D2015091CF015093D3010E94CA
:10238400BC215091B50157955093B5016091B301AB
:10239400683008F474CF6091B101683108F41ACE42
:1023A40008956EE7C0919D016C1738F0A0909D01CF
:1023B40020E2A21AA0929D0118C062EDC0919D0175
:1023C4006C1738F0A0909D0121E2A21AA0929D0101
:1023D4000CC06AEFC0919D016C1738F0A0909D016C
:1023E40022E2A21AA0929D0100C050E05093B101D4
:1023F400A090B101A394A092B10160919D01CAE0A3
:102404000E944D28A62E60919D01C8E16C9F602C0E
:102414006A2DC0EF6C9F2091B101260DA22EA01849
:10242400A092B70160919D01C0E00E94062800942B
:10243400A02CC0919D0169E00E9406280094202DE3
:102444002A21622E60FE06C0A091B7010E941D09D8
:102454000092B50160919D01CAE00E940628009493
:10246400A02CC0919D0163E10E9406280094202DB8
:102474002A21622E60FE06C0A091B7010E94A00925
:102484000092B50160919D01C4E10E940628009468
:10249400A02CC0919D016DE10E9406280094202D7E
:1024A4002A21622E60FE06C0A091B7010E94230A71
:1024B4000092B50160919D01CEE10E94062800942E
:1024C400A02CC0919D0167E20E9406280094202D53
:1024D4002A21622E60FE05C0A091B70136D8009271
:1024E400B50160919D01C8E20E9406280094A02CC9
:1024F400C0919D0161E30E9406280094202D2A21A9
:10250400622E60FE05C0A091B701A2D80092B50169
:1025140060919D01C2E30E9406280094A02CC09102
:102524009D016BE30E9406280094202D2A21622E2F
:1025340060FE05C0A091B7010FD90092B50160916A
:102544009D01CCE30E9406280094A02CC0919D011B
:1025540065E40E9406280094202D2A21622E60FE44
:1025640005C0A091B7017BD90092B50160919D018E
:10257400C6E40E9406280094A02CC0919D016FE43B
:102584000E9406280094202D2A21622E60FE06C097
:10259400A091B7010E9495060092B50160919D013A
:1025A400C0E50E9406280094A02CC0919D0169E515
:1025B4000E9406280094202D2A21622E60FE06C067
:1025C400A091B7010E9418070092B50160919D0186
:1025D400CAE50E9406280094A02CC0919D0163E6E0
:1025E4000E9406280094202D2A21622E60FE06C037
:1025F400A091B7010E949B070092B50160919D01D3
:10260400C0EA0E9406280094A02CC0919D0169EAAA
:102614000E9406280094202D2A21622E60FE06C006
:10262400A091B7010E94DD070092B50160919D0160
:10263400CAEA0E9406280094A02CC0919D0163EB75
:102644000E9406280094202D2A21622E60FE06C0D6
:10265400A091B7010E9460080092B50160919D01AC
:10266400C4EB0E9406280094A02CC0919D0167EB46
:102674000E9406280094202D2A21622E60FE06C0A6
:10268400A091B7010E94E2080092B5016091B501E2
:10269400643219F451E25093B50150E05093B30100
:1026A400A090B301A394A092B301A090A201609062
:1026B400B101A60CA0921602A090A30120E0A21ED4
:1026C400A0921702A090A4016090B301A60CA0925E
:1026D4001802A090A50120E0A21EA09219026CE0AD
:1026E400C091B1016C17C0F4A09016022CE0A21A9C
:1026F400A0921602A090170220E0A20AA09217024C
:10270400A090180228E0A20EA0921802A09019022C
:1027140020E0A21EA09219025090B50150FE23C0E1
:10272400509116025093E701509117025093E8011B
:10273400509118025093E901509119025093EA0103
:102744005091AC015093D0015091AD015093D101FF
:102754005091AE015093D2015091AF015093D301E7
:102764000E94BC2122C0509116025093E70150915F
:1027740017025093E801509118025093E9015091C7
:1027840019025093EA015091CC015093D001509119
:10279400CD015093D1015091CE015093D20150916B
:1027A400CF015093D3010E94BC215091B50157959C
:1027B4005093B5016091B301683008F471CF609112
:1027C400B101683108F414CE0895E395AEEF94E1B5
:1027D4009A95F1F7AA95D9F7DA95C1F7EA95B1F781
:1027E4000895C0910D02D0910E0260910F02709174
:1027F40010020E940C2800FE18C050910D02509344
:10280400E50150910E025093E60150910F0250934E
:102814000D025091100250930E025091E501509315
:102824000F025091E60150931002C0911102D09111
:10283400120260911302709114020E940C2800FE8F
:1028440018C0509111025093E50150911202509317
:10285400E6015091130250931102509114025093C7
:1028640012025091E501509313025091E6015093E6
:102874001402A0900D0221E0A21AA092C001A0901F
:102884000E0220E0A20AA092C101C0910D02D091D3
:102894000E0260910F02709110020E940C2800FC3D
:1028A40068C0A090C001A394A092C001A090C101EF
:1028B40009F4A394A092C101A090110221E0A21AEC
:1028C400A092E501A090120220E0A20AA092E601E3
:1028D400C0911102D09112026091130270911402FE
:1028E4000E940C2800FC39C0A090E501A394A0929A
:1028F400E501A090E60109F4A394A092E6015091A9
:10290400C0015093E7015091C1015093E8015091E7
:10291400E5015093E9015091E6015093EA01509189
:10292400FB015093D0015091FC015093D10150917F
:10293400FD015093D2015091FE015093D3010E94A6
:10294400BC216091E5017091E601C0911302D09120
:1029540014020E940C2800FCC7CF6091C001709142
:10296400C101C0910F02D09110020E940C2800FCFA
:1029740098CF089521E060907D0226192093C2012A
:1029840020E060907E0226092093C30151E0509319
:10299400BC0150E05093BD0160917D0270917E02B4
:1029A400CEEFDFEF0E94DB280092BE011092BF0140
:1029B40050E05093C40150917D025093C501609042
:1029C400830220917D02620E6092810260908402F3
:1029D40020917E02621E60928202609083022091A6
:1029E4007D02621A60927F026090840220917E02CE
:1029F400620A6092800250917B0250930D025091C2
:102A04007C0250930E0250917F0250931102509118
:102A140080025093120250917B0250930F02509106
:102A24007C025093100250918102509313025091F2
:102A34008202509314020E94051E6091C401C09149
:102A4400C5016C1708F020C16091C2017091C301E7
:102A5400C0E0D0E00E941628009400FE1FC06090E1
:102A6400C5016A946092C5016090BE0122E0620EC5
:102A74006092BE016090BF0120E0621E6092BF01BF
:102A84006090C2012091BE01620E6092C20160900A
:102A9400C3012091BF01621E6092C3016090C40112
:102AA40063946092C4016090BC0122E0620E609263
:102AB400BC016090BD0120E0621E6092BD01609087
:102AC400C2012091BC01620E6092C2016090C301F8
:102AD4002091BD01621E6092C30160907B0220912F
:102AE400C401620E60920D0260907C0220E0621EBE
:102AF40060920E02609083022091C501620E609282
:102B040011026090840220E0621E609212026090C2
:102B14007B022091C401620E60920F0260907C02DD
:102B240020E0621E60921002609083022091C50131
:102B3400621A609213026090840220E0620A60923A
:102B440014020E94051E60907B022091C401621A47
:102B540060920D0260907C0220E0620A60920E0294
:102B6400609083022091C501620E60921102609010
:102B7400840220E0621E6092120260907B02209127
:102B8400C401621A60920F0260907C0220E0620A23
:102B940060921002609083022091C501621A6092D3
:102BA40013026090840220E0620A609214020E9480
:102BB400051E60907B022091C501620E60920D0299
:102BC40060907C0220E0621E60920E02609083029C
:102BD4002091C401620E609211026090840220E090
:102BE400621E609212026090C50120917B02620E07
:102BF40060920F0220E060907C02261D2093100258
:102C0400609083022091C401621A60921302609062
:102C1400840220E0620A60921402F5D760907B027D
:102C24002091C501621A60920D0260907C0220E03E
:102C3400620A60920E02609083022091C401620EC7
:102C4400609211026090840220E0621E609212027F
:102C540060907B022091C501621A60920F0260901D
:102C64007C0220E0620A609210026090830220914C
:102C7400C401621A609213026090840220E0620A26
:102C840060921402C0D7D9CE089550912A0250936D
:102C94006B0260916B02662309F409C08894D7958E
:102CA400C795A0906B02AA94A0926B02B9F7C09347
:102CB400C601D093C7010895A13710F000240895E8
:102CC400E2EDFCE2EA0F08F4F395C895089570006C
:102CD400100C0A882238200820101080804004003C
:102CE40000002848466C0000002810001000407CBA
:102CF400008482304E78066C0C00001028000464B6
:102D0400F8FE7CFEFEFE7CFE0040FEFEFEFE7CFE27
:102D14007CFE4C027E3E7EC60EC20004000880008B
:102D240040FE7070701010FE0040FE00F8F870F85D
:102D340010F89010783878881888000000207800FF
:102D4400A13710F000240895EAE5FDE2EA0F08F443
:102D5400F395C895089570FE380A06CC667C700415
:102D640040103888A2701C00000EFE5426920A38C7
:102D7400821010A010C020A284C282288A940292D9
:102D8400926CAC282882029224928282921282103F
:102D9400828010800408821282129202804080286D
:102DA40010A2FE0882048002A8908888A8FCA810BB
:102DB40090802082081088282810A87C80408050A9
:102DC400A0C8100082104400A13710F00024089518
:102DD400E2EEFDE2EA0F08F4F395C8950895707CDD
:102DE4007C0000EEEE7CA8FEFE545494947C7C009F
:102DF4009E0028FE10AA0644447C7C6010C01092F9
:102E0400FEA28A248A92E292926C6C442844A2F232
:102E14002292828292129210FE82288018108212CC
:102E2400A23292FE80807010E092821082028004AE
:102E3400A8888888A812A808FA8850FEF00888286C
:102E44002808A89080806020A0A86CFE6C10420026
:102E5400A13710F000240895EAE6FEE2EA0F08F430
:102E6400F395C89508957038FE0C0ACC667C20044E
:102E7400403810A288701C00000EFE54C844008222
:102E8400381010001000088A809296FE8A921292DE
:102E940052000082282812822492824492129210B4
:102EA400827E448004208212425292028040802812
:102EB400108A8220FE048008A8888890A802A808A6
:102EC400807A8880080888283008A880404080508C
:102ED400A098820010204400A13710F00024089527
:102EE400E2EFFEE2EA0F08F4F395C8950895701036
:102EF400000A068822383E08201010808040040012
:102F040000002824C4A00000002810001000047C45
:102F1400008C622072600E6C3C00000028100C7C57
:102F2400F86C44388202F4FE00028280FEFE7C0CBF
:102F3400BC8C64027E3E7EC60E8600400008800083
:102F4400F07040FE300478F000000000F0F07010E3
:102F5400F8104040F838788878880000001078002D
:102F640050E05093EB015093EC0150E050939B02DE
:102F740050939C0250E050939F025093A0025FE351
:102F840050939D0251E050939E025FED5093A10235
:102F940051E05093A2020E94A0265091CC0150937C
:102FA400F2015091CD015093F3015091CE01509311
:102FB400F4015091CF015093F5015091F2015093D7
:102FC400EE015091F3015093EF015091F4015093AD
:102FD400F0015091F5015093F1012A98289A50E09C
:102FE40050936C0258E550936D0253E050936E0277
:102FF40051E050936F025091F0015EBD5DB457FEF5
:10300400FDCF5EB550935B025091EF015EBD5DB4A0
:1030140057FEFDCF5EB550935B025091EE015EBD4D
:103024005DB457FEFDCF5EB550935B0260906C02B9
:1030340070906D0280906E0290906F026A9460921C
:103044006C02C9F67A9470926D02A9F68A94809201
:103054006E0289F69A9490926F0269F62A9A0895FC
:10306400A0909D012FE0A21AA0929D0150E05093E0
:103074009E0150939F0160919D01C2EB0E9406281E
:103084000094A02CC0919D016AEC0E940628009433
:10309400202D2A21622E60FE0CC0A090A40121E004
:1030A400A21AA092A401A090A50120E0A20AA092D5
:1030B400A50150E05093B1015093B201A090B10129
:1030C400A394A092B101A090B20109F4A394A09298
:1030D400B2016091B1017091B201C1E0D0E00E94EF
:1030E400FF2700FE09C0A0919D01E6DD0092B50115
:1030F40050E05093B6014BC06091B1017091B201A0
:10310400C2E0D0E00E94FF2700FE09C0A0919D010B
:1031140017DE0092B50150E05093B60138C06091BB
:10312400B1017091B201C3E0D0E00E94FF2700FE1C
:1031340009C0A0919D0148DE0092B50150E0509372
:10314400B60125C06091B1017091B201C4E0D0E034
:103154000E94FF2700FE09C0A0919D0179DE009224
:10316400B50150E05093B60112C06091B101709165
:10317400B201C5E0D0E00E94FF2700FE08C0A09184
:103184009D01AADE0092B50150E05093B60150E0D3
:103194005093A6015093A70150E05093B30150936C
:1031A400B401A090B301A394A092B301A090B40180
:1031B40009F4A394A092B40150E05093A001509359
:1031C400A10150E05093AA015093AB016091DA0140
:1031D400613008F4D2C0A090AA01A394A092AA01DD
:1031E400A090AB0109F4A394A092AB01A090A0011C
:1031F400A394A092A001A090A10109F4A394A09289
:10320400A10150E05093A8015093A90150E05093BC
:103214003E0250933F026091DA01613008F4A2C08B
:10322400A0903E02A394A0923E02A0903F0209F413
:10323400A394A0923F02A090A801A394A092A801F5
:10324400A090A90109F4A394A092A9015090B501FA
:1032540050FE3FC0A090A20120919E01A20E6A2CB4
:10326400A090A30120919F01A21E7A2CA090A001FE
:103274006A0C6092E701A090A1017A1C7092E801A7
:10328400A090A4012091A601A20E6A2CA090A501F1
:103294002091A701A21E7A2CA090A8016A0C60922A
:1032A400E901A090A9017A1C7092EA015091FB01F6
:1032B4005093D0015091FC015093D1015091FD01E4
:1032C4005093D2015091FE015093D3010E94BC212E
:1032D4003EC0A090A20120919E01A20E6A2CA09053
:1032E400A30120919F01A21E7A2CA090A0016A0C38
:1032F4006092E701A090A1017A1C7092E801A0906D
:10330400A4012091A601A20E6A2CA090A5012091EF
:10331400A701A21E7A2CA090A8016A0C6092E90170
:10332400A090A9017A1C7092EA015091CC015093AB
:10333400D0015091CD015093D1015091CE015093C1
:10334400D2015091CF015093D3010E94BC216091CE
:103354003E0270913F02C091DA01D0E00E940C2835
:1033640000FC5ECF6091AA017091AB01C091DA01BB
:10337400D0E00E940C2800FC2ECF5091B601579546
:103384005093B6015091B50157955093B501A09053
:10339400A6016090DA01A60CA092A601A090A70154
:1033A40020E0A21EA092A7016091B3017091B40124
:1033B400C8E0D0E00E940C2800FCF3CEA0909E014F
:1033C4006090DA01A60CA0929E01A0909F0120E0DB
:1033D400A21EA0929F016091B1017091B201C5E05B
:1033E400D0E00E940C2800FC69CE0895A0916402EC
:1033F400B09165025C915093E0016091E001662315
:1034040009F40895509137025093E1015091380224
:103414005093E20150E05093E3016091E001613088
:1034240008F442C06090E30163946092E301509118
:10343400E1015093A2015091E2015093A3015091F4
:1034440039025093A40150913A025093A50160901F
:1034540064020091E301600EA62D6090650200E015
:10346400601EB62D5C9150939D01FADD6091DB01E5
:10347400C091DA016C9F602C2091E101260D022F8E
:103484006090E20120E0621E162D21E0020F0093FD
:10349400E10120E0121F1093E2016091E301C09169
:1034A400E0016C1708F4BECF5091E101509337024C
:1034B4005091E201509338020895A0916802B091AE
:1034C40069025C915093360260913602662309F4D6
:1034D4000895509137025093E1015091380250936E
:1034E400E20150E050936A02609136026130B8F113
:1034F400A0906A02A394A0926A025091E1015093B1
:10350400A2015091E2015093A301509139025093CA
:10351400A40150913A025093A501A09068026090D2
:103524006A02A60CAA2DA090690220E0A21EBA2D60
:103534005C9150939D010E94C50FA090E1012DE084
:10354400A20EA092E101A090E20120E0A21EA092AE
:10355400E20160916A02C09136026C1748F2089544
:10356400A0916802B09169025C9150933602609117
:103574003602662309F40895509137025093E1010D
:10358400509138025093E20150E050936A026091E6
:1035940036026130B8F1A0906A02A394A0926A0244
:1035A4005091E1015093A2015091E2015093A30183
:1035B400509139025093A40150913A025093A501BD
:1035C400A090680260906A02A60CAA2DA0906902DD
:1035D40020E0A21EBA2D5C9150939D010E94D3114C
:1035E400A090E1012DE0A20EA092E101A090E201E1
:1035F40020E0A21EA092E20160916A02C09136020C
:103604006C1748F208955091DA0150932B025091AF
:1036140086025093DA015091DC0150932C025091B0
:10362400DD0150932D0250918C025093DC01509196
:103634008D025093DD0150E05093DE015093DF0181
:10364400A0916402B09165025C915093E001609195
:10365400E001662309F40895509137025093E10183
:10366400509138025093E20150E05093E30160918D
:10367400E001613008F452C06090E3016394609209
:10368400E3015091E1015093A2015091E201509362
:10369400A301509139025093A40150913A025093DE
:1036A400A501609064022091E301620EA62D609052
:1036B400650220E0621EB62D5C9150939D015091ED
:1036C400DC015093FB015091DD015093FC015091BA
:1036D400DE015093FD015091DF015093FE01C0DCE7
:1036E4006091DB01C091DA016C9F602C2091E101B3
:1036F400260D022F6090E20120E0621E162D21E0CB
:10370400020F0093E10120E0121F1093E201609187
:10371400E301C091E0016C1708F4AECF50912B0285
:103724005093DA0150912C025093DC0150912D02F8
:103734005093DD0150E05093DE015093DF01089572
:103744006091E401643069F450E45093D60151E08F
:103754005093D70150EE5093D40151E05093D501CA
:103764003FC06091E401613069F450EE5093D6019A
:1037740051E05093D70150E45093D40151E0509359
:10378400D5012EC06091E401623069F450E4509395
:10379400D60151E05093D70150EE5093D40151E03B
:1037A4005093D5011DC06091E401633069F450EE7B
:1037B4005093D60151E05093D70150E45093D40173
:1037C40051E05093D5010CC050E45093D60151E020
:1037D4005093D70150EE5093D40151E05093D5014A
:1037E400089505D0509158025093ED0108956091C9
:1037F400B001613059F45FEF509358025090C0000B
:1038040057FE04C05091C60050935802089550903A
:10381400C00055FEFCCF509158025093C600089545
:103824006AE0C0915A026C1738F450915C025EBD94
:103834005DB457FEFDCF07C05DB456FE04C0509181
:103844005C025EBDF9CF5DB457FEFDCF5EB550930B
:103854005B02089550E05093280250E050932902EF
:103864005091C10050685093C1000895229A209A43
:10387400219A2498239A259A5EE050935A0250E0A4
:10388400509359020E94D4262A9A289AD2E3E0E05F
:103894000E94E713299AD2E3E0E00E94E7132998F3
:1038A400A3E090E09A95F1F7AA95D9F79DE19A954E
:1038B400F1F7299AD6E9E0E00E94E71350EE50931D
:1038C4005C020E946F2650E050935C020E947626B0
:1038D40053E050935C020E94762659E050935C02B8
:1038E4000E94762658E050935C020E94762656E1A8
:1038F40050935C020E9476265AE050935C020E9428
:1039040076265FE350935C020E94762658E7509334
:103914005C020E9476265CE450935C020E94762648
:1039240059E050935C020E9476265AE050935C0260
:103934000E94762658E050935C020E94762656E157
:1039440050935C020E9476265AE150935C020E94D6
:1039540076265FE050935C020E94762651EE5093E7
:103964005C020E946F2650E050935C020E9476260F
:1039740056E150935C020E94762659E150935C0212
:103984000E94762653E050935C020E9476265FE004
:1039940050935C020E94762655E050935C020E948C
:1039A400762652E350935C020E94762655E45093A7
:1039B4005C020E94762656E450935C020E947626AE
:1039C40054E050935C020E9476265EE050935C02C1
:1039D4000E9476265DE050935C020E94762655E3B1
:1039E40050935C020E94762657E350935C020E9437
:1039F40076265FE050935C020E94762650EC50934A
:103A04005C020E946F2657E150935C020E94762666
:103A140055E150935C020E94762651EC50935C026F
:103A24000E946F2651E450935C020E94762655EC66
:103A340050935C020E946F2650E050935C020E94F7
:103A4400762652E150935C020E94762650E8509309
:103A54005C020E94762656E350935C020E946F2615
:103A640050E450935C020E9476265AE350935C0221
:103A74000E946F2656E650935C020E94762650EB15
:103A840050935C020E946F2650E850935C020E949F
:103A9400762651EB50935C020E946F2650EA5093B5
:103AA4005C020E94762654EB50935C020E946F26BF
:103AB40052E050935C020E94762656EB50935C02CF
:103AC4000E946F2652E050935C020E94762652E0D8
:103AD40050935C020E94762659EE50935C020E9439
:103AE4006F2650E050935C020E94762657EF509365
:103AF4005C020E946F2659EA50935C020E9476266B
:103B040051E550935C020E9476265CE250935C027D
:103B14000E94762652E850935C020E94762651E178
:103B240050935C020E946F26D8E7E0E00E94E713FE
:103B340059E250935C020E946F26D9E1E0E00E94B2
:103B4400E7135FEF5093DC015093DD015093DE01E6
:103B540050E05093DF0150E05093CC015093CD01DD
:103B64005093CE015093CF0150E45093D60151E0CD
:103B74005093D70150EE5093D40151E05093D501A6
:103B840056E05093DB0150E05093D80152E050933B
:103B9400DA0157E05093D90154E05093E401D0DDA9
:103BA400DFC950E055B950E058B950E05BB950E076
:103BB4005EB9089551E05093B0015091C000526035
:103BC4005093C0005FEC5093C40050E05093C50084
:103BD4005091C10050615093C10058605093C1008E
:103BE40008950E943329C5D55091C0005F77509342
:103BF400C0000C941929A0916602B09167025C91EF
:103C04005093FA01089550E05093FF01509300023D
:103C140050E0509303025093040250E05093090281
:103C240050930A0250E050930B0250930C0250E060
:103C3400509301025093020250E0509305025093B6
:103C4400060250E0509307025093080260900F025E
:103C540020910D02621A6092FF016090100220917F
:103C64000E02620A60920002609013022091110217
:103C7400621A609203026090140220911202620A96
:103C840060920402C091FF01D091000260E070E0F4
:103C94000E94162800FE07C051E05093090250E02C
:103CA40050930A0205C05FEF5093090250930A0231
:103CB400C0910302D091040260E070E00E941628D3
:103CC40000FE07C051E050930B0250E050930C02E9
:103CD40005C05FEF50930B0250930C0260910902F0
:103CE40070910A02C091FF01D09100020E94DB286A
:103CF4000092FF011092000260910B0270910C027D
:103D0400C0910302D09104020E94DB2800920302B6
:103D1400109204026091FF0170910002C2E0D0E0B1
:103D24000E94DB28009201021092020260910302B9
:103D340070910402C2E0D0E00E94DB2800920502E8
:103D4400109206026091FF0170910002C09103027B
:103D5400D09104020E941628009400FEAAC060902C
:103D640005022091FF01621A609207026090060228
:103D740020910002620A6092080260910D02709123
:103D84000E02C0910F02D09110020E94FF270094EE
:103D940000FE6DC050910D025093E70150910E0248
:103DA4005093E801509111025093E901509112028D
:103DB4005093EA015091FB015093D0015091FC01C2
:103DC4005093D1015091FD015093D2015091FE01C5
:103DD4005093D301CFD260900D0220910902620E5C
:103DE40060920D0260900E0220910A02621E60929F
:103DF4000E026091070270910802C0E0D0E00E94B8
:103E0400162800FE0FC06090070220910502620E82
:103E1400609207026090080220910602621E60927E
:103E2400080224C02091050200910102201B622E89
:103E34002091060200910202200B722E20910702AB
:103E4400260D2093070260900802671C6092080206
:103E54006090110220910B02620E60921102609038
:103E6400120220910C02621E6092120286CF5091BF
:103E74000D025093E70150910E025093E8015091C6
:103E840011025093E901509112025093EA015091AA
:103E9400FB015093D0015091FC015093D1015091FA
:103EA400FD015093D2015091FE015093D30162D28F
:103EB400A9C06090010220910302621A6092070275
:103EC4006090020220910402620A609208026091EA
:103ED400110270911202C0911302D09114020E9437
:103EE400FF27009400FE6DC050910D025093E7012E
:103EF40050910E025093E801509111025093E90140
:103F0400509112025093EA015091FB015093D00159
:103F14005091FC015093D1015091FD015093D20175
:103F24005091FE015093D30125D26090110220914B
:103F34000B02620E609211026090120220910C0238
:103F4400621E609212026091070270910802C0E042
:103F5400D0E00E94162800FE0FC060900702209156
:103F64000102620E60920702609008022091020230
:103F7400621E6092080224C0209101020091050291
:103F8400201B622E2091020200910602200B722E49
:103F940020910702260D2093070260900802671CF7
:103FA4006092080260900D0220910902620E6092F4
:103FB4000D0260900E0220910A02621E60920E02AF
:103FC40086CF50910D025093E70150910E02509309
:103FD400E801509111025093E9015091120250935B
:103FE400EA015091FB015093D0015091FC01509390
:103FF400D1015091FD015093D2015091FE01509393
:10400400D301B8D10895A0917202B09173026C915A
:10401400662321F450E050930001089560916202F8
:10402400613018F451E050936202A0917202B09191
:1040340073026C91C09162026C1720F450E05093AB
:1040440000010895A0906202AA94A0926202A09135
:104054007202B0917302AC9060906202A618A092B2
:10406400710260917102C09161026C1720F4509149
:1040740071025093610250E05093710260916102A9
:10408400613058F1A0907102A394A09271026090E3
:10409400620220917102620EA62C609072026A0C78
:1040A400A62DA090730220E0A21EBA2D5D9150931C
:1040B4005F0250936002A090710220E0A20EAA2D2C
:1040C40020E001E0201FB22F509160025D936091C7
:1040D4007102C09161026C17A8F250916102509371
:1040E40000010895A0917802B0917902509198024C
:1040F4005C93A090780221E0A20EAA2DA0907902F0
:1041040020E0A21EBA2D509190025C93A0907802F8
:1041140022E0A20EAA2DA090790220E0A21EBA2DC0
:10412400509197025C93A090780223E0A20EAA2DEE
:10413400A090790220E0A21EBA2D509196025C93C1
:10414400A090780224E0A20EAA2DA090790220E08B
:10415400A21EBA2D509195025C93A090780225E09E
:10416400A20EAA2DA090790220E0A21EBA2D509191
:1041740094025C93509178025093760250917902A4
:104184005093770256E0509393020E947229509103
:104194008E025093990250918F0250939A02A090EC
:1041A400780226E0A20EAA2DA090790220E0A21E99
:1041B400BA2D509199025C93A090780227E0A20E48
:1041C400AA2DA090790220E0A21EBA2D50919A0245
:1041D4005C930895C9E2D1E0EAEDF2E50E94012979
:1041E40060918A0270918B02C0E0D0E006D70094FF
:1041F40000FE5DC060918A0270918B02C0918802BA
:10420400D091890258D7609374027093750229D6AD
:10421400C9E2D1E099275991A4E9B1E032D7E0EE9F
:10422400F2E5F4D7A9E2B1E09C9350918A0250934D
:10423400740250918B025093750213D654E9509333
:10424400720251E05093730250918A0250937402A7
:1042540050918B025093750204D6CBE6D1E0992796
:104264005991A4E9B1E00DD7E2EEF2E5CFD7ABE680
:10427400B1E09C935BE65093660251E05093670271
:10428400BADC6090FA016A946092620253E050933F
:104294006102B9DEC9E2D1E099275991A9E2B1E0FE
:1042A400F0D6A0E0B1E0EDD6A9E2B1E09C93609134
:1042B4002E0270912F02C0E0D0E09FD60094602CB3
:1042C4006091320270913302C0E0D0E096D600943F
:1042D400202D2629022F00FF17C050912E02509343
:1042E400370250912F02509338025091320250936A
:1042F40039025091330250933A0259E250936802C2
:1043040051E0509369022CD96091300270913102CE
:10431400C0E0D0E072D60094602C609134027091B9
:104324003502C0E0D0E069D60094202D2629022F62
:1043340000FF1FC050913002509337025091310258
:1043440050933802509134025093390250913502FF
:1043540050933A0259E25093640251E0509365023B
:104364005091DC0150938C025091DD0150938D02E9
:104374004AD908956091E401643009F04FC0509126
:10438400E70150939B025091E80150939C02509195
:10439400E90150939F025091EA015093A002509179
:1043A400E70150939D025091E80150939E02509171
:1043B400E9015093A1025091EA015093A202BED4A4
:1043C4005091D0015093F2015091D1015093F301D7
:1043D4005091D2015093F4015091D3015093F501BF
:1043E4008AD45091F2015093D0015091F30150932B
:1043F400D1015091F4015093D2015091F5015093A1
:10440400D30150E45093D60151E05093D70150EEBC
:104414005093D40151E05093D501AAC16091E401B5
:10442400613009F067C05091E90150939B025091AB
:10443400EA0150939C02A090D6012091E701A21AB0
:104444006A2CA090D7012091E801A20A7A2C21E0DD
:10445400621A60929F0220E0720A7092A002509148
:10446400E90150939D025091EA0150939E02A0905D
:10447400D6012091E701A21A6A2CA090D7012091BD
:10448400E801A20A7A2C21E0621A6092A10220E0DB
:10449400720A7092A20252D45091D0015093F20148
:1044A4005091D1015093F3015091D2015093F401F2
:1044B4005091D3015093F5011ED45091F2015093C1
:1044C400D0015091F3015093D1015091F4015093D4
:1044D400D2015091F5015093D30150EE5093D6017F
:1044E40051E05093D70150E45093D40151E05093DC
:1044F400D5013EC16091E401623009F07FC0A09013
:10450400D6012091E701A21A6A2CA090D70120912C
:10451400E801A20A7A2C21E0621A60929B0220E050
:10452400720A70929C02A090D4012091E901A21A0F
:104534006A2CA090D5012091EA01A20A7A2C21E0EC
:10454400621A60929F0220E0720A7092A002A09008
:10455400D6012091E701A21A6A2CA090D7012091DC
:10456400E801A20A7A2C21E0621A60929D0220E0FE
:10457400720A70929E02A090D4012091E901A21ABD
:104584006A2CA090D5012091EA01A20A7A2C21E09C
:10459400621A6092A10220E0720A7092A202CED343
:1045A4005091D0015093F2015091D1015093F301F5
:1045B4005091D2015093F4015091D3015093F501DD
:1045C4009AD35091F2015093D0015091F30150933A
:1045D400D1015091F4015093D2015091F5015093BF
:1045E400D30150E45093D60151E05093D70150EEDB
:1045F4005093D40151E05093D501BAC06091E401C5
:10460400633009F067C0A090D4012091E901A21A97
:104614006A2CA090D5012091EA01A20A7A2C21E00B
:10462400621A60929B0220E0720A70929C0250917E
:10463400E70150939F025091E8015093A002A0908B
:10464400D4012091E901A21A6A2CA090D5012091ED
:10465400EA01A20A7A2C21E0621A60929D0220E00B
:10466400720A70929E025091E7015093A1025091F8
:10467400E8015093A20262D35091D0015093F20109
:104684005091D1015093F3015091D2015093F40110
:104694005091D3015093F5012ED35091F2015093D0
:1046A400D0015091F3015093D1015091F4015093F2
:1046B400D2015091F5015093D30150EE5093D6019D
:1046C40051E05093D70150E45093D40151E05093FA
:1046D400D5014EC05091E70150939B025091E801DF
:1046E40050939C025091E90150939F025091EA012A
:1046F4005093A0025091E70150939D025091E8011C
:1047040050939E025091E9015093A1025091EA0105
:104714005093A20213D35091D0015093F2015091BF
:10472400D1015093F3015091D2015093F40150916F
:10473400D3015093F501DFD25091F2015093D0018F
:104744005091F3015093D1015091F4015093D2014F
:104754005091F5015093D30150E45093D60151E0A8
:104764005093D70150EE5093D40151E05093D501AA
:10477400089537D8A090280224E8A20EAA2D20E09C
:1047840001E0201FB22F5091ED015C93509128025B
:1047940050937A02609028026394A62C6A2DC8E094
:1047A4007AD40092280260912802C09129026C17E1
:1047B40021F450917A02509328020895C091400246
:1047C400D0914102609142027091430223D400FED1
:1047D40011C06091400270914102C0914202D09197
:1047E4004302FFD36093400270934102C09342029C
:1047F400D0934302C0914402D09145026091460295
:104804007091470207D400FE11C060914402709178
:104814004502C0914602D0914702E3D3609344021B
:1048240070934502C0934602D093470220914202FE
:1048340000914002201B622E20914302009141020C
:10484400200B722EC62DD72D64E070E0E3D3202D0B
:1048540000914602A09044020A19602EA0904702DB
:1048640000914502A00A7A2CC62DD72D64E070E091
:10487400D1D3A02CA2226A2C60FE2EC2A0904002AA
:1048840021E0A20EA092E701A090410220E0A21E26
:10489400A092E801A090440222E0A20EA092E901B5
:1048A400A090450220E0A21EA092EA015091AC0122
:1048B4005093D0015091AD015093D1015091AE016C
:1048C4005093D2015091AF015093D30153DDA09086
:1048D400400222E0A20EA092E701A090410220E053
:1048E400A21EA092E801A090440221E0A20EA09290
:1048F400E901A090450220E0A21EA092EA01509195
:10490400AC015093D0015091AD015093D10150911D
:10491400AE015093D2015091AF015093D3012ADDDF
:10492400A090420222E0A21AA092E701A0904302C2
:1049340020E0A20AA092E801A090440221E0A20E85
:10494400A092E901A090450220E0A21EA092EA01F3
:104954005091AC015093D0015091AD015093D101CD
:104964005091AE015093D2015091AF015093D301B5
:1049740001DDA090420221E0A21AA092E701A090DA
:10498400430220E0A20AA092E801A090440222E09F
:10499400A20EA092E901A090450220E0A21EA092DE
:1049A400EA015091AC015093D0015091AD01509364
:1049B400D1015091AE015093D2015091AF01509367
:1049C400D301D8DCA090400221E0A20EA092E7011E
:1049D400A090410220E0A21EA092E801A09046020D
:1049E40022E0A21AA092E901A090470220E0A20AC4
:1049F400A092EA015091AC015093D0015091AD01C5
:104A04005093D1015091AE015093D2015091AF0116
:104A14005093D301AFDCA090400222E0A20EA092FA
:104A2400E701A090410220E0A21EA092E801A0901C
:104A3400460221E0A21AA092E901A090470220E0D8
:104A4400A20AA092EA015091AC015093D001509176
:104A5400AD015093D1015091AE015093D2015091C8
:104A6400AF015093D30186DCA090420222E0A21A47
:104A7400A092E701A090430220E0A20AA092E801DC
:104A8400A090460221E0A21AA092E901A090470258
:104A940020E0A20AA092EA015091AC015093D00107
:104AA4005091AD015093D1015091AE015093D20178
:104AB4005091AF015093D3015DDCA090420221E0FC
:104AC400A21AA092E701A090430220E0A20AA092B9
:104AD400E801A090460222E0A21AA092E901A09067
:104AE400470220E0A20AA092EA015091AC0150933F
:104AF400D0015091AD015093D1015091AE0150932A
:104B0400D2015091AF015093D30134DCA090400204
:104B140023E0A20EA0920D02A090410220E0A21E6A
:104B2400A0920E02509144025093110250914502FA
:104B340050931202A090420223E0A21AA0920F0204
:104B4400A090430220E0A20AA092100250914402D5
:104B54005093130250914502509314025091AC01AA
:104B64005093FB015091AD015093FC015091AE0163
:104B74005093FD015091AF015093FE0144D8A09091
:104B8400400223E0A20EA0920D02A090410220E078
:104B9400A21EA0920E02509146025093110250910F
:104BA400470250931202A090420223E0A21AA0925C
:104BB4000F02A090430220E0A20AA092100250919A
:104BC400460250931302509147025093140250919D
:104BD400AC015093FB015091AD015093FC015091F5
:104BE400AE015093FD015091AF015093FE010BD8DB
:104BF4005091400250930D025091410250930E0285
:104C0400A090440223E0A20EA0921102A0904502BB
:104C140020E0A21EA09212025091400250930F0273
:104C24005091410250931002A090460223E0A21A30
:104C3400A0921302A090470220E0A20AA0921402BC
:104C44005091AC015093FB015091AD015093FC0184
:104C54005091AE015093FD015091AF015093FE016C
:104C64000E94051E5091420250930D02509143023E
:104C740050930E02A090440223E0A20EA0921102CF
:104C8400A090450220E0A21EA0921202509142027E
:104C940050930F025091430250931002A090460289
:104CA40023E0A21AA0921302A090470220E0A20AD5
:104CB400A09214025091AC015093FB015091AD01AC
:104CC4005093FC015091AE015093FD015091AF01FE
:104CD4005093FE010E94051E08952A9828980E9468
:104CE400121C2A9A089508952A98289A0E94121C40
:104CF4002A9A089508952A98289A5091F201509377
:104D04005C020E94121C50915B025093F601509178
:104D1400F30150935C020E94121C50915B02509369
:104D2400F6015091F40150935C020E94121C5091C0
:104D34005B025093F6012A9A089508955AE250931B
:104D44005C02CBDF50919C0250935C02CDDF50910A
:104D54009B0250935C02C8DF50919E0250935C0208
:104D6400C3DF50919D0250935C02BEDF5BE250931F
:104D74005C02B3DF5091A00250935C02B5DF509106
:104D84009F0250935C02B0DF5091A20250935C02E8
:104D9400ABDF5091A10250935C02A6DF5CE250931A
:104DA4005C029BCF5CB55F7B5CBD5CB55B7F5CBD2F
:104DB4005090590250FE03C05CB554605CBD5CB5B4
:104DC400577F5CBD5090590251FE03C05CB55860DA
:104DD4005CBD5CB55F7E5CBD5DB55E7F5DBD5CB595
:104DE4005E7F5CBD5CB55D7F5CBD60915A026E30D8
:104DF40039F45CB550615CBD5DB551605DBD2DC0DD
:104E040060915A026D3021F45CB550615CBD25C0DF
:104E140060915A026C3039F45CB550615CBD5CB58C
:104E240051605CBD1AC060915A026B3051F45CB59C
:104E340050615CBD5CB552605CBD5CB551605CBDED
:104E44000CC060915A02662309F407C060915A02AB
:104E5400613019F45CB550685CBD5CB550645CBDF0
:104E6400089550E05093610260917402709175024C
:104E7400C0E1D7E2CFD0009400FE1FC0609174025D
:104E840070917502C0E1D7E216D16093700200926E
:104E9400740210927502A0906102A394A092610220
:104EA40024E9A20EAA2D20E001E0201FB22FA09039
:104EB400700220E3A20EAC920AC060917402709159
:104EC4007502C8EED3E0A6D0009400FE1FC0609126
:104ED400740270917502C8EED3E0EDD06093700255
:104EE4000092740210927502A0906102A394A092A1
:104EF400610224E9A20EAA2D20E001E0201FB22FB6
:104F0400A090700220E3A20EAC920AC060917402D9
:104F140070917502C4E6D0E07DD0009400FE1FC0FD
:104F24006091740270917502C4E6D0E0C4D06093BD
:104F340070020092740210927502A0906102A39410
:104F4400A092610224E9A20EAA2D20E001E0201F14
:104F5400B22FA090700220E3A20EAC920AC060911E
:104F6400740270917502CAE0D0E054D0009400FE3F
:104F74001EC06091740270917502CAE0D0E09BD0AB
:104F8400609370020092740210927502A090610204
:104F9400A394A092610224E9A20EAA2D20E001E0CC
:104FA400201FB22FA090700220E3A20EAC92A0901A
:104FB4006102A394A092610224E9A20EAA2D20E02A
:104FC40001E0201FB22FA090740220E3A20EAC9245
:104FD40000927402109275025091610250939401F0
:104FE4000895062E172E6C2F7D2FC02DD12D0895D8
:104FF40000246C1308950094089500246C1719F488
:105004007D1709F40094089500246C1708F008959E
:10501400009408950024D71730F07D1718F06C170A
:1050240008F008950094089550E0052E77FF1BC002
:10503400D7FD04C0A02CA0940A2C0895662E772EC8
:1050440060947094639409F47394862D972D6C2E58
:105054007D2E60947094639409F47394662D772D77
:10506400C82FD92F02C0D7FD0895D71730F07D1768
:1050740018F06C1708F00895009408956D916993E1
:1050840002C06D91960F603009F40895ED91E99393
:105094006A95E1F70895CC2309F40895002458E0B3
:1050A400552E660F001C0C1A616010F46E7F0C0EF6
:1050B4005A94B9F70895862F972FEC2FFD2F50E0BF
:1050C400252E50E0352E6E2F7F2FC0E0D0E095DFE7
:1050D40000FE03C060E070E0089550E1552E88940E
:1050E400881F991F221C331CA22CAE1A2A2CA32C15
:1050F400AF0A3A2C816038F48E7FA22CAE0E2A2C93
:10510400A32CAF1E3A2C5A9451F7682F792F022CF6
:10511400132C0895AD2EA7264A2C77FF09C0662EBE
:10512400772E60947094639409F47394662D772DAC
:10513400D7FF09C06C2E7D2E60947094639409F49B
:105144007394C62DD72DB7DF47FE12C0662E772E77
:1051540060947094639409F47394662D772D602C95
:10516400712C60947094639409F47394062C172C36
:105174000895862F972FEC2FFD2F50E0252E50E019
:10518400352EE0FF06C0A22CA80E2A2CA32CA91EA3
:105194003A2C8894F795E7958894881F991FCE2F09
:1051A400DF2F60E070E036DF00FCEBCF022C132C25
:1051B4000895AD2EA7264A2C77FF09C0662E772EB8
:1051C40060947094639409F47394662D772DD7FFDB
:1051D40009C06C2E7D2E60947094639409F47394CA
:1051E400C62DD72DC6DF47FE09C0602C712C6094F4
:1051F4007094639409F47394062C172C0895C8953D
:10520400602DE39509F4F395699306C0C895602D64
:10521400E39509F4F395960F603009F40895C89561
:10522400E39509F4F39509926A95C9F70895A09056
:10523400520220915102A0914D0200915002B0916E
:105244004E0260904F0260914902C0914A02009060
:105254004B0250904C02509148025FBF5091530250
:105264001895509353025FB750934802A09252028C
:1052740020935102A0934D0200935002B0934E022A
:1052840060924F0260934902C0934A0200924B021B
:1052940050924C0208950F41444C32303030204D2E
:1052A4006F6E69746F720E416374697665204D6523
:1052B40074726963730007566F6C7461676509469D
:1052C40072657175656E6379015601410146074344
:1052D4004F4E53554D4505302E302020012E0120D0
:1052E4005FEF5093990250939A025FEF50939102AB
:1052F400609093026A94A62CC0E06A2D85DE00FCBF
:1053040063C0A0909102A394A0929102A09076020F
:1053140060909102A60CAA2DA090770220E0A21E14
:10532400BA2DA09099026C906A24609299025FEF62
:1053340050939202A0909202A394A092920221E030
:10534400A0909902A2226A2C50E0752E662D772D2A
:10535400C0E0D0E052DE009400FE16C0C091990275
:10536400D0919A0251E050932A020E94471621E0FC
:10537400A090C601A226A092990220EAA090C7019B
:10538400A226A0929A0211C0C0919902D0919A02C9
:1053940051E050932A020E9447165091C60150933F
:1053A40099025091C70150939A026091920267301A
:1053B40008F4C0CF609093026A94A62C6091910285
:1053C400CA2D22DE00FC9DCF5091990250938E028B
:0A53D40050919A0250938F02089541
:00000001FF
