:020000020000FC
:0200000059C0E5
:0200040018954D
:02000800189549
:02000C00189545
:02001000189541
:0200140018953D
:02001800189539
:02001C00189535
:02002000189531
:0200240018952D
:02002800189529
:02002C00189525
:02003000189521
:0200340018951D
:02003800189519
:02003C00189515
:02004000189511
:0200440018950D
:060048000C941F1E189528
:02005000189501
:020054001895FD
:020058001895F9
:02005C001895F5
:020060001895F1
:020064001895ED
:020068001895E9
:02006C001895E5
:020070001895E1
:020074001895DD
:020078001895D9
:02007C001895D5
:020080001895D1
:020084001895CD
:04008A001895189518
:020090001895C1
:020094001895BD
:020098001895B9
:02009C001895B5
:0200A0001895B1
:0200A4001895AD
:0200A8001895A9
:0200AC001895A5
:0200B0001895A1
:1000B40058E05EBF5FEF5EBF0E94FF1D0E94081EF6
:1000C4000E9472290E94641C78940E94581C50E07B
:1000D4005093220250E0509360025093610254E620
:1000E4005093620250E05093630250E05093310207
:1000F4005093320250E050932F025093300251E05B
:100104005093BB0150E05093BC0151E05093BD01AA
:1001140050E05093BE0150E05093480251E0509398
:10012400E5010E94CE1B50E050930E0250930F0243
:1001340050E050931202509313026090D70101E0F3
:10014400601A609210026090D80100E0600A609228
:1001540011026090D50101E0601A6092140260906F
:10016400D60100E0600A6092150250E05093FC0151
:100174005FEF5093FD015093FE0150E05093FF0157
:100184000E94E00C51E050930E0250E050930F0295
:1001940051E05093120250E0509313026090D70143
:1001A40002E0601A609210026090D80100E0600AD8
:1001B400609211026090D50102E0601A609214020C
:1001C4006090D60100E0600A6092150250E05093FE
:1001D400FC015FEF5093FD015093FE0150E05093FA
:1001E400FF010E94E00C6091D7017091D801C2E038
:1001F400D0E00E94EA29662E772E01E0601A609210
:100204000E0200E0700A70920F0254E15093120241
:1002140050E0509313026091D7017091D801C2E06D
:10022400D0E00E94EA29662E772E01E0600E6092EB
:10023400100200E0701E709211025091D50150938B
:1002440014025091D6015093150250E05093FC01D2
:100254005FEF5093FD015093FE0150E05093FF0176
:100264000E941F1450E050930E0250930F0250E06E
:1002740050931202509313025091D70150931002DD
:100284005091D8015093110254E15093140250E05C
:100294005093150250E05093FC015FEF5093FD0121
:1002A4005093FE0150E05093FF010E94E00C5AE885
:1002B4005093440250E05093450252E0509346025A
:1002C40050E050934702C2E5D1E0ECEAF5E50E9424
:1002D4008E2A52E55093770251E0509378025FEFF3
:1002E4005093AF015093B0015093B10150E050933B
:1002F400B2010E94DE1A55E05093440250E050933C
:1003040045025EE15093460250E050934702C2E535
:10031400D1E0ECEBF5E50E948E2A52E5509377028A
:1003240051E05093780250E05093AF015CEF50934A
:10033400B00150E05093B1015093B2010E94DE1A13
:100344005FE05093440250E0509345025CE35093C5
:10035400460250E050934702C2E5D1E0ECECF5E5EB
:100364000E948E2A52E55093770251E0509378020E
:100374005091DD015093AF015091DE015093B001D3
:100384000E948B1A5FE05093440250E05093450260
:1003940050E55093460250E050934702C2E5D1E045
:1003A400E4EDF5E50E948E2A52E55093770251E080
:1003B400509378025091DD015093AF015091DE01CA
:1003C4005093B0010E948B1A6091D7017091D801AB
:1003D400C2E0D0E00E94EA29662E772E0AE0600E81
:1003E40060920E0200E0701E70920F0258E2509369
:1003F400120250E0509313026090D7010AE0601A91
:10040400609210026090D80100E0600A60921102CC
:100414006090D50104E1601A609214026090D601E4
:1004240000E0600A6092150250E05093FC015FEF17
:100434005093FD015093FE0150E05093FF010E9440
:10044400E00C6091D7017091D801C2E0D0E00E9425
:10045400EA29662E772E0AE0600E60920E0200E012
:10046400701E70920F0258E25093120250E05093A3
:1004740013026090D7010AE0601A60921002609043
:10048400D80100E0600A6092110250E55093140212
:1004940050E05093150250E05093FC015CEF5093F0
:1004A400FD0150E05093FE015093FF010E941F1480
:1004B4006091D7017091D801C2E0D0E00E94EA298E
:1004C400662E772E04E1600E60924D0200E0701EED
:1004D40070924E0258E75093510250E050935202EA
:1004E4006090D70104E1601A60924F026090D801D5
:1004F40000E0600A609250026090D50108E2601A40
:10050400609253026090D60100E0600A6092540247
:1005140050E05093AF015FEF5093B0015093B1019D
:1005240050E05093B2010E941C2558E150934402BC
:1005340051E0509345025CE85093460250E05093DA
:100544004702C2E5D1E0EEEDF5E50E948E2A52E5C0
:100554005093730251E05093740254E05093950207
:100564005091DD0150939B025091DE0150939C0207
:100574000E94311B58E15093440251E050934502CC
:1005840054EB5093460250E050934702C2E5D1E049
:10059400E0EEF5E50E948E2A52E55093730251E095
:1005A4005093740254E0509395025091DD0150939E
:1005B4009B025091DE0150939C020E94311B58E132
:1005C4005093440251E0509345025CED509346022F
:1005D40050E050934702C2E5D1E0E2EEF5E50E9417
:1005E4008E2A52E55093730251E05093740254E002
:1005F400509395025091DD0150939B025091DE017E
:1006040050939C020E94311B0E94F0216091480289
:10061400662301F552EC50938A0251E050938B0209
:1006240052E65093920250E0509393025AE0509352
:100634008C0250E050938D0250E05093FC015CEF2B
:100644005093FD0150E05093FE015093FF010E942E
:10065400E81450C052EC50938A0251E050938B023C
:1006640052E65093920250E0509393025AE0509312
:100674008C0250E050938D025091CD015093FC01B7
:100684005091CE015093FD015091CF015093FE0142
:100694005091D0015093FF010E94E81452EC509302
:1006A4008A0251E050938B0252E65093920250E03A
:1006B4005093930259E05093F90150E05093FA019A
:1006C40050E05093FC015093FD015CEF5093FE0108
:1006D40050E05093FF015091EC01509394020E941A
:1006E4000F0E50E050931D0250931E0250931F02B0
:1006F400509320026090480263946092480250E054
:100704005093CD015CEF5093CE0150E05093CF0154
:100714005093D00150E45093440251E05093450269
:1007240052E35093460250E050934702C2E5D1E0B1
:10073400E4EEF5E50E948E2A52E55093730251E0EF
:100744005093740250E05093FC015093FD01509378
:10075400FE015093FF010E94241A50E05093CD01F2
:100764005093CE015093CF015093D0016091240255
:1007740070912502C0E0D0E00E948C2900FE11C0D7
:1007840050911D0250932B0250911E0250932C0243
:1007940050911F0250932D025091200250932E022B
:1007A40058C06091240270912502C8E6D0E00E94EE
:1007B4008C2900FE11C050911D02509327025091C4
:1007C4001E025093280250911F0250932902509107
:1007D400200250932A023DC06091240270912502A8
:1007E400C1E1D0E00E948C2900FE09C050911D0295
:1007F4005093310250911E02509332022AC06091EC
:10080400240270912502CBE0D0E00E948C2900FEE6
:1008140009C050911D025093330250911E0250930F
:10082400340217C06091240270912502CCE0D0E01C
:100834000E948C2900FE0DC050911D0250932F027E
:1008440050911E025093300259E2509369020E9463
:10085400AD275CE850933B0250E050933C025CE3CC
:1008640050933F0250E05093400256E350933D02B0
:1008740051E050933E025CE85093410250E05093A3
:100884004202509133025093990250913402509392
:100894009A025AE05093970250E05093980254E021
:1008A4005093950250E05093960250E05093AF015C
:1008B4005093B0015CEF5093B10150E05093B201FA
:1008C4000E941821509199025093330250919A0238
:1008D4005093340250E050933B0250933C0250E05A
:1008E40050933F025093400256E350933D0251E02F
:1008F40050933E0254EB5093410250E05093420215
:1009040050912F02509399025091300250939A02C1
:1009140054E65093970250E05093980254E0509359
:10092400950250E05093960250E05093AF015093DB
:10093400B0015CEF5093B10150E05093B2010E94BA
:1009440018215091990250932F0250919A0250937A
:1009540030025CE850933B0250E050933C0250E577
:1009640050933F0250E05093400256E350933D02AF
:1009740051E050933E025CED5093410250E050939D
:100984004202509131025093990250913202509395
:100994009A0254E65093970250E05093980254E020
:1009A4005093950250E05093960250E05093AF015B
:1009B4005093B0015CEF5093B10150E05093B201F9
:1009C4000E941821509199025093310250919A0239
:1009D400509332025CE850933B0250E050933C0247
:1009E40054E650933F0250E05093400250E050933D
:1009F4003D0250933E0250E0509341025093420214
:100A040050912B025093990250912C0250939A02C8
:100A140054E65093970250E05093980254E0509358
:100A2400950250E05093960250E05093AF015093DA
:100A3400B0015CEF5093B10150E05093B2010E94B9
:100A440018215091990250932B0250919A0250937D
:100A54002C0250E050932D0250932E025CE85093E8
:100A64003B0250E050933C0258E750933F0250E061
:100A74005093400250E050933D0250933E0250E0A8
:100A8400509341025093420250912702509399028D
:100A94005091280250939A0254E65093970250E0E2
:100AA4005093980254E05093950250E0509396026C
:100AB40050E05093AF015093B0015CEF5093B101FB
:100AC40050E05093B2010E94182150919902509322
:100AD400270250919A025093280250E05093290221
:100AE40050932A0251E05093230251E050931B0289
:100AF400A091BD01DDD000922402A091BD01E7D0F8
:100B0400009225025091240250939E016DD0509181
:100B14009A01509326026091240270912502CFEF2E
:100B2400DFEF0E948C2900FE07C051E05093BD0105
:100B340050E05093BE010BC06090BD01639460927D
:100B4400BD016090BE0109F463946092BE015091AE
:100B540023025093A70253E050939F025091240222
:100B64005093A502509125025093A60250911B0266
:100B74005093A30250E05093A4025CE85093870280
:100B840051E0509388020E94A0205091A7025093F4
:100B940023025091A502509324025091A60250932F
:100BA40025025091A30250931B025FEF5093210240
:100BB400609021026394609221020CE8600EA62DDD
:100BC40000E021E0021FB02F5C91509364020E9468
:100BD400351C60912102673058F3D9E1E0E00E94AE
:100BE400131412CD8895FECF54E250939C0151E02A
:100BF40050939B0152E05093700250E05093710265
:100C0400A0919B0173D000929D0160919D01C091C0
:100C14009E016C1749F460909B016394A62DB0E08B
:100C240065D000929A0108955090710257FE23C036
:100C340000919B0120919C01021B602E2091700267
:100C44003091710220953095239509F43395022F44
:100C5400132F662D70E0C02FD12F0E94A32900947A
:100C640000FE08C060909B0100917002600E6092CB
:100C74009B01C0CF19C000919C0120919B01021BD4
:100C8400602E662D70E0C0917002D09171020E94B6
:100C9400A329009400FE08C060909B01009170029B
:100CA400600E60929B01A6CF50E050939A01089584
:100CB400A73010F000240895EAECFCE0EA0F08F4F1
:100CC400F395C895089506110B0C2268FF00A73010
:100CD40010F000240895E8EEFCE0EA0F08F4F39520
:100CE400C8950895000000000000FF00A53210F030
:100CF40000240895E6E0FDE0EA0F08F4F395C895B2
:100D0400089524000402040404060408040A020BDF
:100D1400020C020D020E020F021002110212021343
:100D24000214021501160200509136025093160265
:100D3400A090160204E8A00EAA2D00E021E0021FF4
:100D4400B02F5C9150939F01609016026394A62C7F
:100D54006A2DC8E00E94DA290092160250917202AC
:100D64005E7F0FF4516050937202F8945091160212
:100D7400509336025090720250FC78940895AF3E1E
:100D840010F000240895E8E9FDE0EA0F08F4F39573
:100D9400C8950895F0008080F8FCFC849C9C1800A1
:100DA400000021213F3F3F2121010000000080C0BD
:100DB400C0404040C080C040000047CFDF989898B2
:100DC400FFFF7F00000004FCFCFC804040C0C080AA
:100DD4000000203F3F3F0100003F3F3F0000004034
:100DE4004040DCDCDC0000000000002020203F3F0D
:100DF4003F2020200000000000404040DCDCDC00FC
:100E040000002060E08080C0FFFF7F00000004FC41
:100E1400FCFC000080C0C0400000203F3F3F0207B0
:100E24000F3D3830000000040404FCFCFC0000000A
:100E34000000002020203F3F3F2020200000C0C0B1
:100E4400C04040C04040C0C080003F3F3F00003F22
:100E540000003F3F3F00C0C0C0404040C0C08000D1
:100E640000003F3F3F0000003F3F3F00000080C0C4
:100E7400C0404040C0C0800000001F3F3F202020F1
:100E84003F3F1F00A03F10F000240895EEE9FEE06C
:100E9400EA0F08F4F395C8950895F00040C080C0A7
:100EA400404040C0C080000080FFFFFF9010101F32
:100EB4001F0F0080C0C0404040C080C04000000FF1
:100EC4001F1F101090FFFFFF8000000040C0C0C033
:100ED40080C0C0C0C0800000203F3F3F210000010F
:100EE4000101000080C0C040404040C080000000BC
:100EF400193B232626263C3D190000004040E0F023
:100F0400F84040404000000000001F3F3F203838B8
:100F140018000000C0C0C0000000C0C0C000000035
:100F24001F3F3F2020203F1F3F200000C0C0C000C3
:100F34000000C0C0C0000000070F1F3830381F0F6A
:100F440007000000C0C0C00000000000C0C0C00016
:100F5400070F3F38380E38383F0F0700C0C0C000B5
:100F640000C0C0C00000000030393F0F0F3F3930CF
:100F74000000000000C0C0C0000000C0C0C00000ED
:100F840080878F9FD8F8783F0F07AD3610F0002484
:100F94000895E4EAFFE0EA0F08F4F395C89508958C
:100FA4007800C0C0404040C0C0C0000000003138DC
:100FB4003C2E27233138000000008080C0787C3C20
:100FC4000404040400000101031E3E3C20202020F0
:100FD400000000000000FEFEFE0000000000000013
:100FE40000007F7F7F0000000000040404043C7CB8
:100FF40078C080800000202020203C3E1E03010198
:1010040000383C3C040C1C3830203C3C1C00A03F05
:1010140010F000240895E8E2F0E1EA0F08F4F395F3
:10102400C8950895F000E0F0F81C0C0C1CF8F0E0F2
:1010340000003F3F3F020202023F3F3F000004FC2A
:10104400FCFC848484FCFC780000203F3F3F242483
:10105400243F3F1E000000FCFCFC0C0C0C0C0C009C
:101064000000003F3F3F0000000000000000E0F0EF
:10107400F81C0C0C1CF8F0E000003F3F3F3030300F
:10108400303F3F3F000004FCFCFC848484C4CC1C3F
:101094000000203F3F3F24242423333800003C1C1D
:1010A4000C0484C4E47C3C1C0000383C3E2723240C
:1010B4002030383C0000FCFCFC808080FCFCFC0000
:1010C40000003F3F3F0101013F3F3F000000E0F0CF
:1010D400F89C8C8C8C9CF8F0E000070F1F393131A0
:1010E40031391F0F0700000404FCFCFC0404000059
:1010F40000000020203F3F3F20200000000004FCAF
:10110400FCFCC0E0703C1C0C0000203F3F3F030788
:101114000E3C3830AE3E10F000240895EEE2F1E1CA
:10112400EA0F08F4F395C8950895F000E0F0F81C70
:101134000C0C1CF8F0E000003F3F3F000000003FB3
:101144003F3F0000FCFCFC78F0E0F078FCFCFC0085
:101154003F3F3F00000100003F3F3F00FCFCFC70AC
:10116400E0C08000FCFCFC003F3F3F00000103079F
:101174003F3F3F00001C1C9C9C9C9C9C1C1C000032
:10118400003838393939393938380000E0F0F81C7A
:101194000C0C0C1CF8F0E000070F1F38303030380E
:1011A4001F0F0700FCFCFC1C1C1C1CFCFCFC0000AE
:1011B4003F3F3F000000003F3F3F000004FCFCFCB9
:1011C400848484FCFC780000203F3F3F240101011B
:1011D40001000000003C7CFCDC9C9C1C1C1C0000EE
:1011E400003C3E3F3B393938383800001C0C0404BD
:1011F400FCFCFC04040C1C00000020203F3F3F20AA
:10120400200000007CFCFC800080FCFC7C000000D2
:101214000020243F3F3F2420AF3510F000240895E0
:10122400E2E3F2E1EA0F08F4F395C895089560E06B
:10123400F0F83818FCFC1838F8F0E0070F1F1C18F9
:101244003F3F181C1F0F07001C3C7CE0C0E07C3CA7
:101254001C000000383C3E0703073E3C38000000F9
:10126400FCFCFC80F8F8F880FCFCFC000001032383
:101274003F3F3F23030100000070FCFC8C8C8CFC7E
:10128400FC70000000003133333333333100AF3EA0
:1012940010F000240895E8EAF2E1EA0F08F4F39567
:1012A400C8950895F0000000000000000000000050
:1012B400000000000000000000000000000000F832
:1012C400FCFCFCF8000000000000000073737300D5
:1012D400000000000000001E3E3E0000003E3E1ED6
:1012E400000000000000000000000000003030FE9C
:1012F400FE30303030FEFE30300C0C7F7F0C0C0C96
:101304000C7F7F0C0C00F0F898FE9898FE989818C3
:1013140000001819197F19197F191F0F00000038D0
:10132400383880C0E07038000000001C0E0703014C
:101334001C1C1C00000038FCC4C4FC3800000080E5
:1013440000001E3F2121333F1E1E372300000020D2
:101354003C3C1C00000000000000000000000000F5
:1013640000000000000000C0E0F0381C0C04040081
:1013740000000003070F1C38302020000000000488
:10138400040C1C38F0E0C000000000202030381CA1
:101394000F070300A03F10F000240895EEEAF3E1E4
:1013A400EA0F08F4F395C8950895F0808890E0E07A
:1013B400FCFCE0E090888001110907073F3F070724
:1013C4000911010000808080F0F08080800000001E
:1013D400000101010F0F01010100000000000000E5
:1013E4000000000000000000004078783800000091
:1013F40000000000808080808080808080800000E9
:1014040001010101010101010101000000000000CE
:101414000000000000000000000038383800000020
:101424000000000000000000000080C0E0703800F0
:101434002030381C0E07030100000000F8FCFC04F7
:10144400040404FCFCF800001F3F3F202020203F40
:101454003F1F0000606060F0FCFC00000000000022
:101464002020203F3F3F202020000000181C1C04A7
:101474000484CCFC7830000030383C2E27232138FB
:1014840038380000181C1C848484CC7C783000001C
:10149400183838242121333E1E0CA13F10F00024BB
:1014A4000895E4EBF4E1EA0F08F4F395C895089580
:1014B400F00080C0603018FCFCFC00000000030356
:1014C4000323233F3F3F23230000FCFCFC8484844C
:1014D400848404040000193939242121333F1F0E68
:1014E4000000E0F0F89C8C848484800000001F3F9E
:1014F4003F242421213F3F1F00003C3C3C040404C2
:101504000484FCFC7C00000000383C3E070301001E
:101514000000787CFCC4C48484FC7C7800001E3EFB
:101524003F212123233F3E1E0000F8FCFC848484D9
:1015340084FCFCF80000000124212131391F0F072D
:101544000000000000707070000000000000000047
:10155400000E0E0E0000000000000000007070700D
:101564000000000000000000101E1E0E000000001D
:10157400000080C0E070381C0E0602000000010369
:10158400070E1C387060400000606060606060603E
:101594006060606060060606060606060606060625
:1015A4000600A03F10F000240895ECEBF5E1EA0FEB
:1015B40008F4F395C8950895F00002060E1C3870DF
:1015C400E0C080000000406070381C0E070301007A
:1015D4000000181C0C0E0686CEFC7C3800000000AF
:1015E40000007373730000000000FCFEFE0202C2E0
:1015F400C2C2FEFEFC003F3F7F60606363636343DF
:101604000300E0F0F81C0C0C1CF8F0E000003F3F75
:101614003F020202023F3F3F000004FCFCFC8484C2
:1016240084FCFC780000203F3F3F2421213F3F1EE3
:101634000000F0F8FC0C0404041C1C1800000F1F2C
:101644003F30202020383818000004FCFCFC04043F
:101654000CFCF8F00000203F3F3F2020303F1F0FDC
:10166400000004FCFCFC848484C4CC1C0000203FE7
:101674003F3F242121233338000004FCFCFC8484F4
:1016840084C4CC1C0000203F3F3F21010103030020
:101694000000F0F8FC0C0404043C3C3800000F1F6C
:1016A4003F302022223E3E3EA13F10F00024089508
:1016B400E2ECF6E1EA0F08F4F395C8950895F0001A
:1016C400FCFCFC808080FCFCFC0000003F3F3F01F0
:1016D40001013F3F3F000000000404FCFCFC040443
:1016E400000000000020203F3F3F202000000000B9
:1016F400000000000404FCFCFC04041E1E3E202028
:1017040020203F3F1F00000004FCFCFCC0E0703CB4
:101714001C0C0000203F3F3F03070E3C3830000004
:1017240004FCFCFC0400000000000000203F3F3FDC
:1017340020202030383C0000FCFCFC78F0E0F078FD
:10174400FCFCFC003F3F3F00000100003F3F3F0026
:10175400FCFCFC70E0C08000FCFCFC003F3F3F0050
:10176400000103073F3F3F00E0F0F81C0C0C0C1C89
:10177400F8F0E000070F1F38303030381F0F070033
:1017840004FCFCFC848484FCFC780000203F3F3F84
:101794002101010101000000E0F8F81C0C040C1CFC
:1017A400F8F8E000071F1F18185C5E7E7F7F470073
:1017B400AF3E10F000240895EAECF7E1EA0F08F4D4
:1017C400F395C8950895F00004FCFCFC848484FC23
:1017D400FC780000203F3F3F0101033F3F3C0000F5
:1017E40078FCFC84848484BC3C3800001C3C3D248C
:1017F4002421213F3F1E00001C0C0404FCFCFC04BB
:10180400040C1C00000020203F3F3F20200000006B
:10181400FCFCFC000000FCFCFC0000001F3F3F201F
:1018240020203F3F1F000000FCFCFC000000FCFCEB
:10183400FC000000070F1F3830381F0F070000009E
:10184400FCFCFC0000800000FCFCFC00030F3F3C9F
:101854003C0F3C3C3F0F03001C3C7CE0C0E07C3C64
:101864001C000000383C3E0703073E3C38000000E3
:101874007CFCFC800080FCFC7C0000000020213FFC
:101884003F3F2120000000003C1C0C0484C4E47C85
:101894003C1C0000383C3E2723212030383C00000B
:1018A4000000FCFCFC0404040400000000003F3FB2
:1018B4003F2020202000AF3E10F000240895E0EDEA
:1018C400F8E1EA0F08F4F395C8950895F0001C3880
:1018D40070E0C08000000000000000000000010370
:1018E400070E1C183000000004040404FCFCFC0077
:1018F40000000000202020203F3F3F000000203057
:10190400381C0E0E1C3830200000000000000000BF
:1019140000000000000000000000000000000000C3
:1019240000C0C0C0C0C0C0C0C0C0C0C0C0000C0C9B
:101934003C30300000000000000000000000000007
:10194400000000000000004040404040C0C0800053
:1019540000001C3E3E2222223F1F3F20000004FCC8
:10196400FCFC404040C0C0800000203F1F3F2020BE
:10197400203F3F1F000080C0C0404040C0C08000E6
:1019840000001F3F3F20202039391900000080C08B
:10199400C0404044FCFCFC0400001F3F3F202020CA
:1019A4003F1F3F20000080C0C0404040C0C08000B6
:1019B40000001F3F3F2222223B3B1B00C0910E022E
:1019C400D0910F0260911002709111020E94992926
:1019D40000FE18C050910E025093E60150910F0280
:1019E4005093E7015091100250930E02509111024E
:1019F40050930F025091E601509310025091E70169
:101A040050931102C0911202D091130260911402FA
:101A1400709115020E94992900FE18C0509112027B
:101A24005093E601509113025093E7015091140230
:101A34005093120250911502509313025091E601F3
:101A4400509314025091E7015093150260900E02D6
:101A540001E0601A6092C30160900F0200E0600A26
:101A64006092C401C0910E02D0910F0260911002E5
:101A7400709111020E94992900FC5BC06090C3011F
:101A840063946092C3016090C40109F4639460920A
:101A9400C4015091C3015093E8015091C401509383
:101AA400E901509112025093EA01509113025093AC
:101AB400EB015091FC015093D1015091FD015093E1
:101AC400D2015091FE015093D3015091FF015093E4
:101AD400D4010E94F7225091C3015093E801509120
:101AE400C4015093E901509114025093EA015091BA
:101AF40015025093EB015091FC015093D101509188
:101B0400FD015093D2015091FE015093D3015091A5
:101B1400FF015093D4010E94F7226091C301709198
:101B2400C401C0911002D09111020E94992900FCB5
:101B3400A5CF6090120201E0601A6092C301609028
:101B4400130200E0600A6092C401C0911202D091B5
:101B5400130260911402709115020E94992900FCED
:101B64005BC06090C30163946092C3016090C40140
:101B740009F463946092C40150910E025093E801F9
:101B840050910F025093E9015091C3015093EA011F
:101B94005091C4015093EB015091FC015093D10139
:101BA4005091FD015093D2015091FE015093D30105
:101BB4005091FF015093D4010E94F72250911002DA
:101BC4005093E801509111025093E9015091C301DF
:101BD4005093EA015091C4015093EB015091FC01E0
:101BE4005093D1015091FD015093D2015091FE01C7
:101BF4005093D3015091FF015093D4010E94F722D6
:101C04006091C3017091C401C0911402D091150276
:101C14000E94992900FCA5CF08955091F901509391
:101C24008C025091FA0150938D0260918C02709154
:101C34008D02C2E0D0E00E94192A662E772E6094AD
:101C44007094639409F473946092490270924A0206
:101C540060918C0270918D02C0919402D0E00E9438
:101C6400A329009400FEBAC160908A0200918C02FC
:101C7400600E6092E80160908B0200918D02601EFC
:101C84006092E9016090920200919402600E609269
:101C9400EA016090930200E0601E6092EB015091B3
:101CA400FC015093D1015091FD015093D201509108
:101CB400FE015093D3015091FF015093D4010E942F
:101CC400F72260908A0200919402600E6092E8010B
:101CD40060908B0200E0601E6092E90160909202C5
:101CE40000918C02600E6092EA0160909302009170
:101CF4008D02601E6092EB015091FC015093D10162
:101D04005091FD015093D2015091FE015093D301A3
:101D14005091FF015093D4010E94F72260908A02EF
:101D240000918C02601A6092E80160908B0200912D
:101D34008D02600A6092E90160909202009194021F
:101D4400600E6092EA016090930200E0601E60926F
:101D5400EB015091FC015093D1015091FD0150933E
:101D6400D2015091FE015093D3015091FF01509341
:101D7400D4010E94F72260908A0200919402601AB2
:101D84006092E80160908B0200E0600A6092E901D1
:101D94006090920200918C02600E6092EA01609061
:101DA400930200918D02601E6092EB015091FC0140
:101DB4005093D1015091FD015093D2015091FE01F5
:101DC4005093D3015091FF015093D4010E94F72204
:101DD40060908A0200918C02601A6092E80160901F
:101DE4008B0200918D02600A6092E9016090920278
:101DF40000919402601A6092EA016090930200E0FC
:101E0400600A6092EB015091FC015093D101509112
:101E1400FD015093D2015091FE015093D301509192
:101E2400FF015093D4010E94F72260908A0200912E
:101E34009402601A6092E80160908B0200E0600AEC
:101E44006092E9016090920200918C02601A6092A3
:101E5400EA016090930200918D02600A6092EB01A6
:101E64005091FC015093D1015091FD015093D20146
:101E74005091FE015093D3015091FF015093D4012E
:101E84000E94F72260908A0200918C02600E609298
:101E9400E80160908B0200918D02601E6092E9015E
:101EA4006090920200919402601A6092EA0160903C
:101EB400930200E0600A6092EB015091FC015093A0
:101EC400D1015091FD015093D2015091FE015093E4
:101ED400D3015091FF015093D4010E94F7226090E6
:101EE4008A0200919402600E6092E80160908B0275
:101EF40000E0601E6092E9016090920200918C0201
:101F0400601A6092EA016090930200918D02600A67
:101F14006092EB015091FC015093D1015091FD016D
:101F24005093D2015091FE015093D3015091FF017F
:101F34005093D4010E94F7226090940263946092BB
:101F440094026091490270914A02C0E0D0E00E947C
:101F5400A32900FE15C000919402000F20914902AC
:101F6400200F622E00914A0220E0021F702E01E031
:101F7400600E6092490200E0701E70924A022DC009
:101F840060908C0201E0601A60928C0260908D0275
:101F940000E0600A60928D020091940220918C020C
:101FA400021B602E00E020918D02020B702E21E0B6
:101FB400620E062D20E0721E172D602F712FC2E0D5
:101FC400D0E00E94682A60904902600C6092490245
:101FD40060904A02611C60924A023ACE08956EE70C
:101FE400C091A0016C1738F0A090A00100E2A01AE3
:101FF400A092A00118C062EDC091A0016C1738F046
:10200400A090A00101E2A01AA092A0010CC06AEF66
:10201400C091A0016C1738F0A090A00102E2A01AB0
:10202400A092A00100C050E05093B401A090B4016C
:10203400A394A092B4016091A001CAE00E94DA299D
:10204400A62E6091A001C8E16C9F602C6A2DC0EFA0
:102054006C9F0091B401060DA02EA018A092BA01A5
:102064006091A001C0E00E9493290094A02CC0912B
:10207400A00169E00E9493290094002D0A21602E9A
:1020840060FE05C0A091BA0102D90092B801609126
:10209400A001CAE00E9493290094A02CC091A00141
:1020A40063E10E9493290094002D0A21602E60FEB2
:1020B40005C0A091BA016ED90092B8016091A00147
:1020C400C4E10E9493290094A02CC091A0016DE169
:1020D4000E9493290094002D0A21602E60FE05C001
:1020E400A091BA01DAD90092B8016091A001CEE1C1
:1020F4000E9493290094A02CC091A00167E20E9441
:1021040093290094002D0A21602E60FE05C0A09141
:10211400BA0147DA0092B8016091A001C8E20E94B6
:1021240093290094A02CC091A00161E30E949329FB
:102134000094002D0A21602E60FE05C0A091BA0112
:10214400B3DA0092B8016091A001C2E30E9493291E
:102154000094A02CC091A0016BE30E9493290094E9
:10216400002D0A21602E60FE05C0A091BA0120DB7B
:102174000092B8016091A001CCE30E9493290094DD
:10218400A02CC091A00165E40E9493290094002D25
:102194000A21602E60FE05C0A091BA018CDB00927A
:1021A400B8016091A001C6E40E9493290094A02C78
:1021B400C091A0016FE40E9493290094002D0A218C
:1021C400602E60FE06C0A091BA010E94C106009272
:1021D400B8016091A001C0E50E9493290094A02C4D
:1021E400C091A00169E50E9493290094002D0A2161
:1021F400602E60FE06C0A091BA010E9444070092BE
:10220400B8016091A001CAE50E9493290094A02C12
:10221400C091A00163E60E9493290094002D0A2135
:10222400602E60FE06C0A091BA010E94C70700920A
:10223400B8016091A001C0EA0E9493290094A02CE7
:10224400C091A00169EA0E9493290094002D0A21FB
:10225400602E60FE06C0A091BA010E940908009297
:10226400B8016091A001CAEA0E9493290094A02CAD
:10227400C091A00163EB0E9493290094002D0A21D0
:10228400602E60FE06C0A091BA010E948C080092E4
:10229400B8016091A001C4EB0E9493290094A02C82
:1022A400C091A00167EB0E9493290094002D0A219C
:1022B400602E60FE06C0A091BA010E940E09009231
:1022C400B8016091B801643219F451E25093B80135
:1022D40050E05093B601A090B601A394A092B60129
:1022E400A090A5016090B401A60CA0921702A09042
:1022F400A60100E0A01EA0921802A090A701609081
:10230400B601A60CA0921902A090A80100E0A01E9C
:10231400A0921A026CE0C091B4016C17C0F4A090B2
:1023240017020CE0A01AA0921702A090180200E075
:10233400A00AA0921802A090190208E0A00EA09290
:102344001902A0901A0200E0A01EA0921A02509056
:10235400B80150FE20C0509117025093E8015091EB
:1023640018025093E901509119025093EA015091D7
:102374001A025093EB015091AF015093D101509147
:10238400B0015093D20150E05093D3015093D40143
:102394000E94F72222C0509117025093E8015091F5
:1023A40018025093E901509119025093EA01509197
:1023B4001A025093EB015091CD015093D1015091E9
:1023C400CE015093D2015091CF015093D30150913B
:1023D400D0015093D4010E94F7225091B80157952F
:1023E4005093B8016091B601683008F474CF6091DD
:1023F400B401683108F41ACE08956EE7C091A001C3
:102404006C1738F0A090A00100E2A01AA092A001DD
:1024140018C062EDC091A0016C1738F0A090A00123
:1024240001E2A01AA092A0010CC06AEFC091A00121
:102434006C1738F0A090A00102E2A01AA092A001AB
:1024440000C050E05093B401A090B401A394A092B2
:10245400B4016091A001CAE00E94DA29A62E60911D
:10246400A001C8E16C9F602C6A2DC0EF6C9F0091A5
:10247400B401060DA02EA018A092BA016091A0018B
:10248400C0E00E9493290094A02CC091A00169E0AF
:102494000E9493290094002D0A21602E60FE06C03C
:1024A400A091BA010E9449090092B8016091A0016B
:1024B400CAE00E9493290094A02CC091A00163E17A
:1024C4000E9493290094002D0A21602E60FE06C00C
:1024D400A091BA010E94CC090092B8016091A001B8
:1024E400C4E10E9493290094A02CC091A0016DE145
:1024F4000E9493290094002D0A21602E60FE06C0DC
:10250400A091BA010E944F0A0092B8016091A00103
:10251400CEE10E9493290094A02CC091A00167E20F
:102524000E9493290094002D0A21602E60FE05C0AC
:10253400A091BA0136D80092B8016091A001C8E216
:102544000E9493290094A02CC091A00161E30E94F1
:1025540093290094002D0A21602E60FE05C0A091ED
:10256400BA01A2D80092B8016091A001C2E30E940E
:1025740093290094A02CC091A0016BE30E9493299D
:102584000094002D0A21602E60FE05C0A091BA01BE
:102594000FD90092B8016091A001CCE30E94932965
:1025A4000094A02CC091A00165E40E94932900949A
:1025B400002D0A21602E60FE05C0A091BA017BD9CE
:1025C4000092B8016091A001C6E40E94932900948E
:1025D400A02CC091A0016FE40E9493290094002DC7
:1025E4000A21602E60FE06C0A091BA010E94C106B5
:1025F4000092B8016091A001C0E50E949329009463
:10260400A02CC091A00169E50E9493290094002D9B
:102614000A21602E60FE06C0A091BA010E94440700
:102624000092B8016091A001CAE50E949329009428
:10263400A02CC091A00163E60E9493290094002D70
:102644000A21602E60FE06C0A091BA010E94C7074D
:102654000092B8016091A001C0EA0E9493290094FD
:10266400A02CC091A00169EA0E9493290094002D36
:102674000A21602E60FE06C0A091BA010E940908DA
:102684000092B8016091A001CAEA0E9493290094C3
:10269400A02CC091A00163EB0E9493290094002D0B
:1026A4000A21602E60FE06C0A091BA010E948C0827
:1026B4000092B8016091A001C4EB0E949329009498
:1026C400A02CC091A00167EB0E9493290094002DD7
:1026D4000A21602E60FE06C0A091BA010E940E0974
:1026E4000092B8016091B801643219F451E2509338
:1026F400B80150E05093B601A090B601A394A09203
:10270400B601A090A5016090B401A60CA092170296
:10271400A090A60100E0A01EA0921802A090A7011C
:102724006090B601A60CA0921902A090A80100E046
:10273400A01EA0921A026CE0C091B4016C17C0F400
:10274400A09017020CE0A01AA0921702A090180201
:1027540000E0A00AA0921802A090190208E0A00EBE
:10276400A0921902A0901A0200E0A01EA0921A02E0
:102774005090B80150FE23C0509117025093E801C5
:10278400509118025093E901509119025093EA01B3
:1027940050911A025093EB015091AF015093D10123
:1027A4005091B0015093D2015091B1015093D30193
:1027B4005091B2015093D4010E94F72222C050914B
:1027C40017025093E801509118025093E901509177
:1027D40019025093EA0150911A025093EB0150915F
:1027E400CD015093D1015091CE015093D20150911B
:1027F400CF015093D3015091D0015093D4010E9442
:10280400F7225091B80157955093B8016091B601E1
:10281400683008F471CF6091B401683108F414CEC3
:102824000895E395AEEF94E19A95F1F7AA95D9F757
:10283400DA95C1F7EA95B1F70895C0910E02D091E7
:102844000F0260911002709111020E94992900FEFA
:1028540018C050910E025093E60150910F0250930C
:10286400E7015091100250930E02509111025093BF
:102874000F025091E601509310025091E7015093DA
:102884001102C0911202D09113026091140270914E
:1028940015020E94992900FE18C05091120250930B
:1028A400E601509113025093E701509114025093A2
:1028B400120250911502509313025091E601509365
:1028C40014025091E70150931502A0900E0201E00A
:1028D400A01AA092C301A0900F0200E0A00AA09247
:1028E400C401C0910E02D0910F0260911002709148
:1028F40011020E94992900FC68C0A090C301A3940E
:10290400A092C301A090C40109F4A394A092C401AD
:10291400A090120201E0A01AA092E601A090130276
:1029240000E0A00AA092E701C0911202D091130224
:1029340060911402709115020E94992900FC39C01B
:10294400A090E601A394A092E601A090E70109F407
:10295400A394A092E7015091C3015093E8015091D0
:10296400C4015093E9015091E6015093EA0150915A
:10297400E7015093EB015091FC015093D101509128
:10298400FD015093D2015091FE015093D301509117
:10299400FF015093D4010E94F7226091E6017091E7
:1029A400E701C0911402D09115020E94992900FCFC
:1029B400C7CF6091C3017091C401C0911002D0913E
:1029C40011020E94992900FC98CF089501E06090BB
:1029D4008C0206190093C50100E060908D0206097F
:1029E4000093C60151E05093BF0150E05093C001E1
:1029F40060918C0270918D02CEEFDFEF0E94682A05
:102A04000092C1011092C20150E05093C70150914D
:102A14008C025093C8016090920200918C02600E67
:102A2400609290026090930200918D02601E609209
:102A340091026090920200918C02601A60928E0260
:102A44006090930200918D02600A60928F0250910F
:102A54008A0250930E0250918B0250930F025091B0
:102A64008E025093120250918F0250931302509190
:102A74008A025093100250918B025093110250918C
:102A840090025093140250919102509315020E94A7
:102A9400311E6091C701C091C8016C1708F020C1B4
:102AA4006091C5017091C601C0E0D0E00E94A329E5
:102AB400009400FE1FC06090C8016A946092C8012F
:102AC4006090C10102E0600E6092C1016090C20199
:102AD40000E0601E6092C2016090C5010091C101D6
:102AE400600E6092C5016090C6010091C201601E33
:102AF4006092C6016090C70163946092C7016090C0
:102B0400BF0102E0600E6092BF016090C00100E06E
:102B1400601E6092C0016090C5010091BF01600E0B
:102B24006092C5016090C6010091C001601E609270
:102B3400C60160908A020091C701600E60920E0285
:102B440060908B0200E0601E60920F02609092021F
:102B54000091C801600E609212026090930200E03E
:102B6400601E6092130260908A020091C701600E99
:102B74006092100260908B0200E0601E609211026D
:102B8400609092020091C801601A609214026090F1
:102B9400930200E0600A609215020E94311E609068
:102BA4008A020091C701601A60920E0260908B0243
:102BB40000E0600A60920F02609092020091C801E6
:102BC400600E609212026090930200E0601E6092B8
:102BD400130260908A020091C701601A6092100289
:102BE40060908B0200E0600A609211026090920291
:102BF4000091C801601A609214026090930200E090
:102C0400600A609215020E94311E60908A0200914F
:102C1400C801600E60920E0260908B0200E0601E9C
:102C240060920F02609092020091C701600E609260
:102C340012026090930200E0601E609213026090A2
:102C4400C80100918A02600E6092100200E0609058
:102C54008B02061D00931102609092020091C7013D
:102C6400601A609214026090930200E0600A60921D
:102C74001502F5D760908A020091C801601A60922B
:102C84000E0260908B0200E0600A60920F02609076
:102C940092020091C701600E60921202609093024A
:102CA40000E0601E6092130260908A020091C801E5
:102CB400601A6092100260908B0200E0600A6092D9
:102CC4001102609092020091C701601A609214028E
:102CD4006090930200E0600A60921502C0D7D9CEDA
:102CE40008955091370250937A0260917A026623D4
:102CF40009F409C08894D795C795A0907A02AA943C
:102D0400A0927A02B9F7C093C901D093CA01089579
:102D1400A13710F000240895EAE2FDE2EA0F08F476
:102D2400F395C89508957000100C0A88223820087D
:102D3400201010808040040000002848466C0000E9
:102D4400002810001000407C008482304E78066C0D
:102D54000C00001028000464F8FE7CFEFEFE7CFEDD
:102D64000040FEFEFEFE7CFE7CFE4C027E3E7EC6E5
:102D74000EC200040008800040FE7070701010FE47
:102D84000040FE00F8F870F810F890107838788851
:102D94001888000000207800A13710F0002408955E
:102DA400E2EBFDE2EA0F08F4F395C895089570FE8E
:102DB400380A06CC667C700440103888A2701C0067
:102DC400000EFE5426920A38821010A010C020A2D1
:102DD40084C282288A940292926CAC28288202923D
:102DE40024928282921282108280108004088212BD
:102DF400821292028040802810A2FE08820480027F
:102E0400A8908888A8FCA8109080208208108828A0
:102E14002810A87C80408050A0C810008210440074
:102E2400A13710F000240895EAE3FEE2EA0F08F463
:102E3400F395C8950895707C7C0000EEEE7CA8FEA6
:102E4400FE545494947C7C009E0028FE10AA0644F0
:102E5400447C7C6010C01092FEA28A248A92E29282
:102E6400926C6C442844A2F22292828292129210B2
:102E7400FE82288018108212A23292FE8080701086
:102E8400E092821082028004A8888888A812A80888
:102E9400FA8850FEF00888282808A89080806020CE
:102EA400A0A86CFE6C104200A13710F00024089515
:102EB400E2ECFEE2EA0F08F4F395C8950895703841
:102EC400FE0C0ACC667C2004403810A288701C00DA
:102ED400000EFE54C8440082381010001000088A06
:102EE400809296FE8A9212925200008228281282C0
:102EF4002492824492129210827E44800420821290
:102F04004252920280408028108A8220FE04800867
:102F1400A8888890A802A808807A88800808882849
:102F24003008A88040408050A098820010204400BF
:102F3400A13710F000240895EAE4FFE2EA0F08F450
:102F4400F395C89508957010000A068822383E0843
:102F5400201010808040040000002824C4A0000039
:102F6400002810001000047C008C622072600E6C3B
:102F74003C00000028100C7CF86C44388202F4FEFB
:102F840000028280FEFE7C0CBC8C64027E3E7EC607
:102F94000E86004000088000F07040FE300478F097
:102FA40000000000F0F07010F8104040F838788805
:102FB400788800000010780050E05093EC015093A2
:102FC400ED0150E05093AA025093AB0250E05093AD
:102FD400AE025093AF025FE35093AC0251E05093C2
:102FE400AD025FED5093B00251E05093B1020E94E4
:102FF4001F285091CD015093F3015091CE0150936D
:10300400F4015091CF015093F5015091D0015093A8
:10301400F6015091F3015093EF015091F401509354
:10302400F0015091F5015093F1015091F601509344
:10303400F2012A98289A50E050937B0258E5509365
:103044007C0253E050937D0251E050937E025091F4
:10305400F1015EBD5DB457FEFDCF5EB550936802CD
:103064005091F0015EBD5DB457FEFDCF5EB5509347
:1030740068025091EF015EBD5DB457FEFDCF5EB5B1
:103084005093680260907B0270907C0280907D0275
:1030940090907E026A9460927B02C9F67A94709250
:1030A4007C02A9F68A9480927D0289F69A94909281
:1030B4007E0269F62A9A0895A090A0010FE0A01A52
:1030C400A092A00150E05093A1015093A2016091FD
:1030D400A001C2EB0E9493290094A02CC091A001EE
:1030E4006AEC0E9493290094002D0A21602E60FE50
:1030F4000CC0A090A70101E0A01AA092A701A09083
:10310400A80100E0A00AA092A80150E05093B401E5
:103114005093B501A090B401A394A092B401A090DF
:10312400B50109F4A394A092B5016091B401709122
:10313400B501C1E0D0E00E948C2900FE09C0A09135
:10314400A001E6DD0092B80150E05093B9014BC0F4
:103154006091B4017091B501C2E0D0E00E948C2965
:1031640000FE09C0A091A00117DE0092B80150E052
:103174005093B90138C06091B4017091B501C3E0B6
:10318400D0E00E948C2900FE09C0A091A00148DE75
:103194000092B80150E05093B90125C06091B40188
:1031A4007091B501C4E0D0E00E948C2900FE09C0F2
:1031B400A091A00179DE0092B80150E05093B901CA
:1031C40012C06091B4017091B501C5E0D0E00E94D5
:1031D4008C2900FE08C0A091A001AADE0092B801CB
:1031E40050E05093B90150E05093A9015093AA01C3
:1031F40050E05093B6015093B701A090B601A39448
:10320400A092B601A090B70109F4A394A092B701CB
:1032140050E05093A3015093A40150E05093AD01AA
:103224005093AE016091DB01613008F4D2C0A090EC
:10323400AD01A394A092AD01A090AE0109F4A394B2
:10324400A092AE01A090A301A394A092A301A09088
:10325400A40109F4A394A092A40150E05093AB01FB
:103264005093AC0150E050934B0250934C02609148
:10327400DB01613008F4A2C0A0904B02A394A09299
:103284004B02A0904C0209F4A394A0924C02A0908B
:10329400AB01A394A092AB01A090AC0109F4A39458
:1032A400A092AC015090B80150FE3FC0A090A5017F
:1032B4000091A101A00E6A2CA090A6010091A20188
:1032C400A01E7A2CA090A3016A0C6092E801A09041
:1032D400A4017A1C7092E901A090A7010091A901B0
:1032E400A00E6A2CA090A8010091AA01A01E7A2C1D
:1032F400A090AB016A0C6092EA01A090AC017A1C28
:103304007092EB015091FC015093D1015091FD0159
:103314005093D2015091FE015093D3015091FF017B
:103324005093D4010E94F7223EC0A090A5010091C1
:10333400A101A00E6A2CA090A6010091A201A01EDA
:103344007A2CA090A3016A0C6092E801A090A401D9
:103354007A1C7092E901A090A7010091A901A00E26
:103364006A2CA090A8010091AA01A01E7A2CA0901A
:10337400AB016A0C6092EA01A090AC017A1C7092D5
:10338400EB015091CD015093D1015091CE01509356
:10339400D2015091CF015093D3015091D001509359
:1033A400D4010E94F72260914B0270914C02C091AB
:1033B400DB01D0E00E94992900FC5ECF6091AD0151
:1033C4007091AE01C091DB01D0E00E94992900FC0C
:1033D4002ECF5091B90157955093B9015091B8012E
:1033E40057955093B801A090A9016090DB01A60CF9
:1033F400A092A901A090AA0100E0A01EA092AA0197
:103404006091B6017091B701C8E0D0E00E9499299B
:1034140000FCF3CEA090A1016090DB01A60CA09269
:10342400A101A090A20100E0A01EA092A2016091BF
:10343400B4017091B501C5E0D0E00E94992900FC67
:1034440069CE0895A0917302B09174025C91509377
:10345400E1016091E101662309F408955091440269
:103464005093E201509145025093E30150E0509390
:10347400E4016091E101613008F442C06090E4012C
:1034840063946092E4015091E2015093A50150913C
:10349400E3015093A601509146025093A701509125
:1034A40047025093A801609073020091E401600EFA
:1034B400A62D6090740200E0601EB62D5C915093BE
:1034C400A001FADD6091DC01C091DB016C9F602CEE
:1034D4002091E201260D022F6090E30120E0621E9C
:1034E400162D21E0020F0093E20100E0101F10935B
:1034F400E3016091E401C091E1016C1708F4BECFCF
:103504005091E201509344025091E30150934502DB
:103514000895A0917702B09178025C915093430290
:1035240060914302662309F4089550914402509334
:10353400E201509145025093E30150E05093790227
:10354400609143026130B8F1A0907902A394A092F3
:1035540079025091E2015093A5015091E3015093F7
:10356400A601509146025093A701509147025093EF
:10357400A801A090770260907902A60CAA2DA090D1
:10358400780200E0A01EBA2D5C915093A0010E9425
:10359400F10FA090E2010DE0A00EA092E201A09034
:1035A400E30100E0A01EA092E30160917902C091C2
:1035B40043026C1748F20895A0917702B091780203
:1035C4005C915093430260914302662309F4089589
:1035D400509144025093E201509145025093E3010B
:1035E40050E050937902609143026130B8F1A090A9
:1035F4007902A394A09279025091E2015093A5011B
:103604005091E3015093A601509146025093A701B3
:10361400509147025093A801A090770260907902DC
:10362400A60CAA2DA090780200E0A01EBA2D5C91F1
:103634005093A0010E94FF11A090E2010DE0A00EA2
:10364400A092E201A090E30100E0A01EA092E30199
:1036540060917902C09143026C1748F20895509129
:10366400DB0150933802509195025093DB01509145
:10367400DD01509339025091DE0150933A0250918A
:103684009B025093DD0150919C025093DE0150E067
:103694005093DF015093E001A0917302B091740242
:1036A4005C915093E1016091E101662309F408956E
:1036B400509144025093E201509145025093E3012A
:1036C40050E05093E4016091E101613008F452C08C
:1036D4006090E40163946092E4015091E20150939C
:1036E400A5015091E3015093A601509146025093D5
:1036F400A701509147025093A80160907302009172
:10370400E401600EA62D6090740200E0601EB62DE8
:103714005C915093A0015091DD015093FC015091B4
:10372400DE015093FD015091DF015093FE01509151
:10373400E0015093FF01C0DC6091DC01C091DB012A
:103744006C9F602C2091E201260D022F6090E30112
:1037540020E0621E162D21E0020F0093E20100E03A
:10376400101F1093E3016091E401C091E1016C1713
:1037740008F4AECF509138025093DB0150913902D6
:103784005093DD0150913A025093DE0150E0509382
:10379400DF015093E00108956091E501643069F41C
:1037A40050E45093D70151E05093D80150EE509318
:1037B400D50151E05093D6013FC06091E5016130DD
:1037C40069F450EE5093D70151E05093D80150E47E
:1037D4005093D50151E05093D6012EC06091E5017C
:1037E400623069F450E45093D70151E05093D8010A
:1037F40050EE5093D50151E05093D6011DC0609115
:10380400E501633069F450EE5093D70151E05093D1
:10381400D80150E45093D50151E05093D6010CC027
:1038240050E45093D70151E05093D80150EE509397
:10383400D50151E05093D601089505D0509164020A
:103844005093EE0108956091B301613059F45FEF34
:10385400509364025090C00057FE04C05091C600BB
:103864005093640208955090C00055FEFCCF5091CF
:1038740064025093C60008956AE0C09167026C1711
:1038840038F4509169025EBD5DB457FEFDCF07C0A8
:103894005DB456FE04C0509169025EBDF9CF5DB4BB
:1038A40057FEFDCF5EB550936802089550E05093E3
:1038B400350250E0509336025091C1005068509345
:1038C400C1000895229A209A219A2498239A259A2D
:1038D4005EE05093670250E0509366020E945328C2
:1038E4002A9A289AD2E3E0E00E941314299AD2E398
:1038F400E0E00E9413142998A3E090E09A95F1F770
:10390400AA95D9F79DE19A95F1F7299AD6E9E0E0CD
:103914000E94131450EE509369020E94AD2750E0A8
:10392400509369020E94B42753E0509369020E94A5
:10393400B42759E0509369020E94B42758E0509389
:1039440069020E94B42756E1509369020E94B42789
:103954005AE0509369020E94B4275FE350936902CE
:103964000E94B42758E7509369020E94B4275CE48C
:10397400509369020E94B42759E0509369020E944F
:10398400B4275AE0509369020E94B42758E0509338
:1039940069020E94B42756E1509369020E94B42739
:1039A4005AE1509369020E94B4275FE05093690280
:1039B4000E94B42751EE509369020E94AD2750E053
:1039C400509369020E94B42756E1509369020E9401
:1039D400B42759E1509369020E94B42753E05093ED
:1039E40069020E94B4275FE0509369020E94B427E1
:1039F40055E0509369020E94B42752E35093690240
:103A04000E94B42755E4509369020E94B42756E4F7
:103A1400509369020E94B42754E0509369020E94B3
:103A2400B4275EE0509369020E94B4275DE050938E
:103A340069020E94B42755E3509369020E94B42797
:103A440057E3509369020E94B4275FE050936902E0
:103A54000E94B42750EC509369020E94AD2757E1AD
:103A6400509369020E94B42755E1509369020E9461
:103A7400B42751EC509369020E94AD2751E450934E
:103A840069020E94B42755EC509369020E94AD2745
:103A940050E0509369020E94B42752E150936902A6
:103AA4000E94B42750E8509369020E94B42756E359
:103AB400509369020E94AD2750E4509369020E941A
:103AC400B4275AE3509369020E94AD2756E65093F7
:103AD40069020E94B42750EB509369020E94AD27FB
:103AE40050E8509369020E94B42751EB5093690245
:103AF4000E94AD2750EA509369020E94B42754EB08
:103B0400509369020E94AD2752E0509369020E94CB
:103B1400B42756EB509369020E94AD2752E05093AC
:103B240069020E94B42752E0509369020E94B427AC
:103B340059EE509369020E94AD2750E050936902F8
:103B44000E94B42757EF509369020E94AD2759EAA7
:103B5400509369020E94B42751E5509369020E9470
:103B6400B4275CE2509369020E94B42752E8509350
:103B740069020E94B42751E1509369020E94AD2763
:103B8400D8E7E0E00E94131459E2509369020E94BE
:103B9400AD27D9E1E0E00E9413145FEF5093DD01FB
:103BA4005093DE015093DF0150E05093E00150E068
:103BB4005093CD015093CE015093CF015093D00137
:103BC40050E45093D70151E05093D80150EE5093F4
:103BD400D50151E05093D60156E05093DC0150E0FA
:103BE4005093D90152E05093DB0157E05093DA012E
:103BF40054E05093E501D0DDDFC950E055B950E001
:103C040058B950E05BB950E05EB9089551E0509363
:103C1400B3015091C00052605093C0005FEC5093C8
:103C2400C40050E05093C5005091C10050615093BE
:103C3400C10058605093C10008950E94BE2AD4D692
:103C44005091C0005F775093C0000C94A62AA091B5
:103C54007502B09176025C915093FB01089550E097
:103C6400509300025093010250E050930402509389
:103C7400050250E050930A0250930B0250E0509317
:103C84000C0250930D0250E0509302025093030231
:103C940050E0509306025093070250E050930802FC
:103CA400509309026090100200910E02601A609213
:103CB40000026090110200910F02600A60920102FA
:103CC4006090140200911202601A609204026090E3
:103CD400150200911302600A60920502C09100026D
:103CE400D091010260E070E00E94A32900FE07C0A9
:103CF40051E050930A0250E050930B0205C05FEF6D
:103D040050930A0250930B02C0910402D091050211
:103D140060E070E00E94A32900FE07C051E05093C8
:103D24000C0250E050930D0205C05FEF50930C025B
:103D340050930D0260910A0270910B02C09100022F
:103D4400D09101020E94682A00920002109201029E
:103D540060910C0270910D02C0910402D091050291
:103D64000E94682A009204021092050260910002E7
:103D740070910102C2E0D0E00E94682A009202021F
:103D8400109203026091040270910502C2E0D0E037
:103D94000E94682A009206021092070260910002B3
:103DA40070910102C0910402D09105020E94A329DE
:103DB400009400FEAAC06090060200910002601AFE
:103DC400609208026090070200910102600A60920A
:103DD400090260910E0270910F02C0911002D091FD
:103DE40011020E948C29009400FE6DC050910E02B5
:103DF4005093E80150910F025093E901509112023F
:103E04005093EA01509113025093EB015091FC013D
:103E14005093D1015091FD015093D2015091FE0174
:103E24005093D3015091FF015093D401DED360909D
:103E34000E0200910A02600E60920E0260900F0260
:103E440000910B02601E60920F0260910802709153
:103E54000902C0E0D0E00E94A32900FE0FC06090D8
:103E6400080200910602600E609208026090090246
:103E740000910702601E6092090224C000910602AC
:103E840020910202021B602E00910702209103027E
:103E9400020B702E00910802060D00930802609038
:103EA4000902671C609209026090120200910C02E0
:103EB400600E609212026090130200910D02601E67
:103EC4006092130286CF50910E025093E8015091F4
:103ED4000F025093E901509112025093EA0150915C
:103EE40013025093EB015091FC015093D101509176
:103EF400FD015093D2015091FE015093D301509192
:103F0400FF015093D40171D3A9C0609002020091C3
:103F14000402601A60920802609003020091050294
:103F2400600A609209026091120270911302C091BA
:103F34001402D09115020E948C29009400FE6DC0D9
:103F440050910E025093E80150910F025093E901F1
:103F5400509112025093EA01509113025093EB01D5
:103F64005091FC015093D1015091FD015093D20125
:103F74005091FE015093D3015091FF015093D4010D
:103F840034D36090120200910C02600E609212020F
:103F94006090130200910D02601E60921302609102
:103FA400080270910902C0E0D0E00E94A32900FE3B
:103FB4000FC06090080200910202600E6092080235
:103FC4006090090200910302601E6092090224C0FD
:103FD4000091020220910602021B602E009103024E
:103FE40020910702020B702E00910802060D009327
:103FF400080260900902671C6092090260900E0238
:1040040000910A02600E60920E0260900F0200910D
:104014000B02601E60920F0286CF50910E025093E5
:10402400E80150910F025093E9015091120250930C
:10403400EA01509113025093EB015091FC0150930B
:10404400D1015091FD015093D2015091FE01509342
:10405400D3015091FF015093D401C7D20895A09188
:104064008102B09182026C91662321F450E0509356
:104074000001089560916F02613018F451E050938B
:104084006F02A0918102B09182026C91C0916F0283
:104094006C1720F450E0509300010895A0906F0233
:1040A400AA94A0926F02A0918102B0918202AC9076
:1040B40060906F02A618A092800260918002C09165
:1040C4006E026C1720F45091800250936E0250E0FF
:1040D4005093800260916E02613058F1A09080028A
:1040E400A394A092800260906F0200918002600EFF
:1040F400A62C609081026A0CA62DA090820200E09A
:10410400A01EBA2D5D9150936C0250936D02A09045
:10411400800200E0A00EAA2D00E021E0021FB02FD3
:1041240050916D025D9360918002C0916E026C1794
:10413400A8F250916E02509300010895A091870255
:10414400B09188025091A7025C93A090870201E08D
:10415400A00EAA2DA090880200E0A01EBA2D5091B6
:104164009F025C93A090870202E0A00EAA2DA0906B
:10417400880200E0A01EBA2D5091A6025C93A09084
:10418400870203E0A00EAA2DA090880200E0A01EE2
:10419400BA2D5091A5025C93A090870204E0A00E72
:1041A400AA2DA090880200E0A01EBA2D5091A4026E
:1041B4005C93A090870205E0A00EAA2DA09088022F
:1041C40000E0A01EBA2D5091A3025C935091870287
:1041D40050938502509188025093860256E0509382
:1041E400A2020E94092B50919D025093A802509163
:1041F4009E025093A902A090870206E0A00EAA2D69
:10420400A090880200E0A01EBA2D5091A8025C93F1
:10421400A090870207E0A00EAA2DA090880200E0DB
:10422400A01EBA2D5091A9025C930895C9E2D1E071
:10423400ECEEF5E50E948E2A6091990270919A0243
:10424400C0E0D0E00E948C29009400FE64C060911C
:10425400990270919A02C0919702D09198020E949B
:10426400EA2960938302709384027AD7C9E2D1E089
:1042740099275991A4E9B1E00E94D029E2EFF5E52C
:104284000E94952AA9E2B1E09C935091990250931F
:10429400830250919A025093840262D754E9509356
:1042A400810251E05093820250919902509383020B
:1042B40050919A025093840253D7CBE6D1E09927C8
:1042C4005991A4E9B1E00E94D029E4EFF5E50E94F8
:1042D400952AABE6B1E09C935BE65093750251E0FE
:1042E40050937602B4DC6090FB016A9460926F0292
:1042F40053E050936E02B3DEC9E2D1E0992759919D
:10430400A9E2B1E00E94D029A0E0B1E00E94D02946
:10431400A9E2B1E09C9360913B0270913C02C0E041
:10432400D0E0F8D70094602C60913F027091400275
:10433400C0E0D0E0EFD70094202D2629022F00FF03
:1043440017C050913B025093440250913C02509349
:10435400450250913F0250934602509140025093BF
:10436400470259E25093770251E05093780224D9DE
:1043740060913D0270913E02C0E0D0E0CBD7009442
:10438400602C6091410270914202C0E0D0E0C2D73B
:104394000094202D2629022F00FF1FC050913D02BA
:1043A4005093440250913E02509345025091410271
:1043B40050934602509142025093470259E250935F
:1043C400730251E0509374025091DD0150939B02AB
:1043D4005091DE0150939C0242D9089550E05093CD
:1043E4001D0250931E0250931F02509320026091AD
:1043F4003502C09136026C1709F4F6C00E94960685
:1044040050919F015093F80160912202662339F57F
:104414006091F801C09123026C1701F550912302B9
:104424005093830250E0509384029AD6CBE6D1E0B5
:1044340099275991E6EFF5E50E94952AA4E9B1E0A0
:10444400ADD7ABE6B1E09C935BE65093770251E0C5
:1044540050937802B1D551E050932202C4C06091C8
:104464002202613089F46091F801C3E04ED700FE66
:1044740007C053E05093220251E050931C0203C042
:1044840050E050932202AFC060912202633009F0E1
:104494009BC060912602613011F5CBE6D1E0EAE0E1
:1044A400F6E50E948E2A5BE65093770251E0509322
:1044B400780282D560911C02623009F40FC06091C9
:1044C4001C02633041F45091F80150931D0254E0F2
:1044D4005093220203C050E0509322026FC06091B7
:1044E4002602623059F5CBE6D1E0EEE0F6E50E9413
:1044F4008E2A5BE65093770251E0509378025CD5A4
:1045040060911C02623009F418C060911C0263308F
:1045140029F45091F80150931E020FC060911C02BF
:10452400643041F45091F80150931D0254E05093CB
:10453400220203C050E05093220240C06091260240
:10454400643009F03BC0CBE6D1E0EEE0F6E5E4D719
:104554005BE65093770251E0509378022DD5609139
:104564001C02623009F42AC060911C02633029F4F1
:104574005091F8015093200221C060911C026430D4
:1045840029F45091F80150931F0218C060911C0245
:10459400653029F45091F80150931E020FC06091C8
:1045A4001C02663041F45091F80150931D0254E00E
:1045B4005093220203C050E05093220260901C02E8
:1045C400639460921C020FC060912202643059F41B
:1045D40050E0509322025AE050936B021BD55DE0E9
:1045E40050936B0217D503CF08956091E5016430B1
:1045F40009F04FC05091E8015093AA025091E9018B
:104604005093AB025091EA015093AE025091EB01EA
:104614005093AF025091E8015093AC025091E901DC
:104624005093AD025091EA015093B0025091EB01C6
:104634005093B10202D55091D1015093F30150919E
:10464400D2015093F4015091D3015093F50150914C
:10465400D4015093F6018DD45091F3015093D101BC
:104664005091F4015093D2015091F5015093D3012C
:104674005091F6015093D40150E45093D70151E086
:104684005093D80150EE5093D50151E05093D60188
:10469400AAC16091E501613009F067C05091EA0157
:1046A4005093AA025091EB015093AB02A090D70112
:1046B4000091E801A01A6A2CA090D8010091E901A8
:1046C400A00A7A2C01E0601A6092AE0200E0700A3F
:1046D4007092AF025091EA015093AC025091EB01F9
:1046E4005093AD02A090D7010091E801A01A6A2C62
:1046F400A090D8010091E901A00A7A2C01E0601A87
:104704006092B00200E0700A7092B10296D45091A7
:10471400D1015093F3015091D2015093F40150917F
:10472400D3015093F5015091D4015093F60121D453
:104734005091F3015093D1015091F4015093D2015F
:104744005091F5015093D3015091F6015093D40147
:1047540050EE5093D70151E05093D80150E4509358
:10476400D50151E05093D6013EC16091E50162301C
:1047740009F07FC0A090D7010091E801A01A6A2C2B
:10478400A090D8010091E901A00A7A2C01E0601AF6
:104794006092AA0200E0700A7092AB02A090D50168
:1047A4000091EA01A01A6A2CA090D6010091EB01B5
:1047B400A00A7A2C01E0601A6092AE0200E0700A4E
:1047C4007092AF02A090D7010091E801A01A6A2C60
:1047D400A090D8010091E901A00A7A2C01E0601AA6
:1047E4006092AC0200E0700A7092AD02A090D50114
:1047F4000091EA01A01A6A2CA090D6010091EB0165
:10480400A00A7A2C01E0601A6092B00200E0700AFB
:104814007092B10212D45091D1015093F30150918E
:10482400D2015093F4015091D3015093F50150916A
:10483400D4015093F6019DD35091F3015093D101CB
:104844005091F4015093D2015091F5015093D3014A
:104854005091F6015093D40150E45093D70151E0A4
:104864005093D80150EE5093D50151E05093D601A6
:10487400BAC06091E501633009F067C0A090D5012A
:104884000091EA01A01A6A2CA090D6010091EB01D4
:10489400A00A7A2C01E0601A6092AA0200E0700A71
:1048A4007092AB025091E8015093AE025091E9012D
:1048B4005093AF02A090D5010091EA01A01A6A2C8E
:1048C400A090D6010091EB01A00A7A2C01E0601AB5
:1048D4006092AC0200E0700A7092AD025091E8015F
:1048E4005093B0025091E9015093B102A6D3509174
:1048F400D1015093F3015091D2015093F40150919E
:10490400D3015093F5015091D4015093F60131D362
:104914005091F3015093D1015091F4015093D2017D
:104924005091F5015093D3015091F6015093D40165
:1049340050EE5093D70151E05093D80150E4509376
:10494400D50151E05093D6014EC05091E8015093E7
:10495400AA025091E9015093AB025091EA0150939D
:10496400AE025091EB015093AF025091E801509385
:10497400AC025091E9015093AD025091EA01509379
:10498400B0025091EB015093B10257D35091D10131
:104994005093F3015091D2015093F4015091D301FB
:1049A4005093F5015091D4015093F601E2D2509105
:1049B400F3015093D1015091F4015093D2015091DD
:1049C400F5015093D3015091F6015093D40150E472
:1049D4005093D70151E05093D80150EE5093D50134
:1049E40051E05093D60108950E941F1C6090350237
:1049F40004E8600EA62D00E021E0021FB02F5091C4
:104A0400EE015C9350913502509389020091350276
:104A14000395602E662DC8E0CBD4009235026091D8
:104A24003502C09136026C1721F4509189025093DB
:104A340035020895C0914D02D0914E0260914F020B
:104A44007091500274D400FE11C060914D027091B7
:104A54004E02C0914F02D091500250D460934D0247
:104A640070934E02C0934F02D0935002C0915102F2
:104A7400D0915202609153027091540258D400FEB6
:104A840011C06091510270915202C0915302D091B1
:104A9400540234D46093510270935202C09353026F
:104AA400D093540200914F0220914D02021B602EBC
:104AB4000091500220914E02020B702EC62DD72D6C
:104AC40064E070E034D4002D20915302A090510290
:104AD4002A19622EA090540220915202A20A7A2C22
:104AE400C62DD72D64E070E022D4A02CA0226A2C1D
:104AF40060FE30C2A0904D0201E0A00EA092E80139
:104B0400A0904E0200E0A01EA092E901A0905102E4
:104B140002E0A00EA092EA01A090520200E0A01EC2
:104B2400A092EB015091AF015093D1015091B0018B
:104B34005093D2015091B1015093D3015091B201DD
:104B44005093D40152DDA0904D0202E0A00EA09239
:104B5400E801A0904E0200E0A01EA092E901A090FE
:104B6400510201E0A00EA092EA01A090520200E0DE
:104B7400A01EA092EB015091AF015093D10150912E
:104B8400B0015093D2015091B1015093D30150918F
:104B9400B2015093D40129DDA0904F0202E0A01A83
:104BA400A092E801A090500200E0A00AA092E901BE
:104BB400A090510201E0A00EA092EA01A09052023E
:104BC40000E0A01EA092EB015091AF015093D101DF
:104BD4005091B0015093D2015091B1015093D3013F
:104BE4005091B2015093D40100DDA0904F0201E036
:104BF400A01AA092E801A090500200E0A00AA0929E
:104C0400E901A090510202E0A00EA092EA01A09056
:104C1400520200E0A01EA092EB015091AF0150930C
:104C2400D1015091B0015093D2015091B1015093F0
:104C3400D3015091B2015093D401D7DCA0904D021E
:104C440001E0A00EA092E801A0904E0200E0A01E98
:104C5400A092E901A090530202E0A01AA092EA01F6
:104C6400A090540200E0A00AA092EB015091AF0181
:104C74005093D1015091B0015093D2015091B101A0
:104C84005093D3015091B2015093D401AEDCA09063
:104C94004D0202E0A00EA092E801A0904E0200E0B6
:104CA400A01EA092E901A090530201E0A01AA092D4
:104CB400EA01A090540200E0A00AA092EB015091F6
:104CC400AF015093D1015091B0015093D201509152
:104CD400B1015093D3015091B2015093D40185DCBA
:104CE400A0904F0202E0A01AA092E801A090500206
:104CF40000E0A00AA092E901A090530201E0A01AEA
:104D0400A092EA01A090540200E0A00AA092EB0154
:104D14005091AF015093D1015091B0015093D20101
:104D24005091B1015093D3015091B2015093D401E9
:104D34005CDCA0904F0201E0A01AA092E801A090D0
:104D4400500200E0A00AA092E901A090530202E000
:104D5400A01AA092EA01A090540200E0A00AA09236
:104D6400EB015091AF015093D1015091B001509398
:104D7400D2015091B1015093D3015091B20150939B
:104D8400D40133DCA0904D0203E0A00EA0920E02E9
:104D9400A0904E0200E0A01EA0920F02509151027A
:104DA400509312025091520250931302A0904F025A
:104DB40003E0A01AA0921002A090500200E0A00A02
:104DC400A092110250915102509314025091520238
:104DD400509315025091AF015093FC015091B001D2
:104DE4005093FD015091B1015093FE015091B201D5
:104DF4005093FF010E94311EA0904D0203E0A00ECB
:104E0400A0920E02A0904E0200E0A01EA0920F02FB
:104E14005091530250931202509154025093130232
:104E2400A0904F0203E0A01AA0921002A09050029A
:104E340000E0A00AA0921102509153025093140270
:104E440050915402509315025091AF015093FC01BC
:104E54005091B0015093FD015091B1015093FE0166
:104E64005091B2015093FF010E94311E50914D02A6
:104E740050930E0250914E0250930F02A090510293
:104E840003E0A00EA0921202A090520200E0A01E25
:104E9400A092130250914D025093100250914E0271
:104EA40050931102A090530203E0A01AA09214029E
:104EB400A090540200E0A00AA09215025091AF0104
:104EC4005093FC015091B0015093FD015091B101F8
:104ED4005093FE015091B2015093FF010E94311E84
:104EE40050914F0250930E025091500250930F0272
:104EF400A090510203E0A00EA0921202A0905202D0
:104F040000E0A01EA092130250914F025093100291
:104F14005091500250931102A090530203E0A01A42
:104F2400A0921402A090540200E0A00AA0921502DC
:104F34005091AF015093FC015091B0015093FD0189
:104F44005091B1015093FE015091B2015093FF0171
:104F54000E94311E08952A9828980E943E1C2A9A7D
:104F6400089508952A98289A0E943E1C2A9A089522
:104F740008952A98289A5091F301509369020E9447
:104F84003E1C509168025093F7015091F4015093E4
:104F940069020E943E1C509168025093F70150919F
:104FA400F501509369020E943E1C5091680250938F
:104FB400F7012A9A08950895A0917702B091780292
:104FC4005C915093430260914302662309F421C02B
:104FD40050E050937902609143026130D0F0A09088
:104FE4007902A394A0927902A0907702609079024A
:104FF400A60CAA2DA090780200E0A01EBA2D5C9108
:1050040050936B0207D060917902C09143026C17F0
:1050140030F3089570916B02AAE0709508F4299812
:1050240008F0299A88E28A95F1F752E050936502D4
:105034005AD17695AA9591F708955AE25093690248
:105044008ADF5091AB02509369028CDF5091AA021F
:105054005093690287DF5091AD025093690282DF59
:105064005091AC02509369027DDF5BE25093690278
:1050740072DF5091AF025093690274DF5091AE0217
:10508400509369026FDF5091B102509369026ADF55
:105094005091B0025093690265DF5CE2509369025B
:1050A4005ACF5CB55F7B5CBD5CB55B7F5CBD5090EB
:1050B400660250FE03C05CB554605CBD5CB5577FAE
:1050C4005CBD5090660251FE03C05CB558605CBD87
:1050D4005CB55F7E5CBD5DB55E7F5DBD5CB55E7FCE
:1050E4005CBD5CB55D7F5CBD609167026E3039F478
:1050F4005CB550615CBD5DB551605DBD2DC0609116
:1051040067026D3021F45CB550615CBD25C06091CF
:1051140067026C3039F45CB550615CBD5CB55160BC
:105124005CBD1AC0609167026B3051F45CB550618C
:105134005CBD5CB552605CBD5CB551605CBD0CC0CF
:1051440060916702662309F407C0609167026130C9
:1051540019F45CB550685CBD5CB550645CBD0895E1
:1051640050E050936E026091830270918402C0E11A
:10517400D7E2DDD0009400FE1FC0609183027091DD
:105184008402C0E1D7E224D160937F0200928302BB
:1051940010928402A0906E02A394A0926E0204E97D
:1051A400A00EAA2D00E021E0021FB02FA0907F02E4
:1051B40000E3A00EAC920AC0609183027091840255
:1051C400C8EED3E0B4D0009400FE1FC06091830207
:1051D40070918402C8EED3E0FBD060937F0200920A
:1051E400830210928402A0906E02A394A0926E0295
:1051F40004E9A00EAA2D00E021E0021FB02FA09028
:105204007F0200E3A00EAC920AC060918302709109
:105214008402C4E6D0E08BD0009400FE1FC06091ED
:10522400830270918402C4E6D0E0D2D060937F02FE
:105234000092830210928402A0906E02A394A09222
:105244006E0204E9A00EAA2D00E021E0021FB02F97
:10525400A0907F0200E3A00EAC920AC0609183028A
:1052640070918402CAE0D0E062D0009400FE1EC0B7
:105274006091830270918402CAE0D0E0A9D0609367
:105284007F020092830210928402A0906E02A39483
:10529400A0926E0204E9A00EAA2D00E021E0021FF4
:1052A400B02FA0907F0200E3A00EAC92A0906E02FB
:1052B400A394A0926E0204E9A00EAA2D00E021E0BE
:1052C400021FB02FA090830200E3A00EAC920092C4
:1052D40083021092840250916E02509394010895B7
:1052E400219A299A0895909165028DEF8A95F1F794
:1052F40000009A9500000000C1F70895062E172EAD
:105304006C2F7D2FC02DD12D089500246C1308958A
:105314000094089500246C1719F47D1709F400947F
:10532400089500246C1708F008950094089500244B
:10533400D71730F07D1718F06C1708F00895009413
:10534400089550E0052E77FF1BC0D7FD04C0A02CA4
:10535400A0940A2C0895662E772E6094709463941A
:1053640009F47394862D972D6C2E7D2E6094709481
:10537400639409F47394662D772DC82FD92F02C036
:10538400D7FD0895D71730F07D1718F06C1708F083
:105394000895009408956D91699302C06D91960FDC
:1053A400603009F40895ED91E9936A95E1F7089561
:1053B400CC2309F40895002458E0552E660F001CF0
:1053C4000C1A616010F46E7F0C0E5A94B9F70895AC
:1053D400862F972FEC2FFD2F50E0252E50E0352EF1
:1053E4006E2F7F2FC0E0D0E095DF00FE03C060E0A9
:1053F40070E0089550E1552E8894881F991F221C4F
:10540400331CA22CAE1A2A2CA32CAF0A3A2C81608E
:1054140038F48E7FA22CAE0E2A2CA32CAF1E3A2C6D
:105424005A9451F7682F792F022C132C0895AD2E1E
:10543400A7264A2C77FF09C0662E772E60947094B5
:10544400639409F47394662D772DD7FF09C06C2EED
:105454007D2E60947094639409F47394C62DD72DB3
:10546400B7DF47FE12C0662E772E60947094639463
:1054740009F47394662D772D602C712C60947094CC
:10548400639409F47394062C172C0895862F972F90
:10549400EC2FFD2F50E0252E50E0352EE0FF06C006
:1054A400A22CA80E2A2CA32CA91E3A2C8894F7957A
:1054B400E7958894881F991FCE2FDF2F60E070E056
:1054C40036DF00FCEBCF022C132C0895AD2EA7265B
:1054D4004A2C77FF09C0662E772E609470946394EB
:1054E40009F47394662D772DD7FF09C06C2E7D2E99
:1054F40060947094639409F47394C62DD72DC6DF19
:1055040047FE09C0602C712C60947094639409F474
:105514007394062C172C0895C895602DE39509F40F
:10552400F395699306C0C895602DE39509F4F39546
:10553400960F603009F40895C895E39509F4F3953E
:1055440009926A95C9F7089560905C0200915D0222
:10555400A0915A0220915E02B0915B0260915602C2
:10556400C091570200905802509059025091550230
:105574005FBF50915F02189550935F025FB75093DD
:10558400550260925C0200935D02A0935A0220933C
:105594005E02B0935B0260935602C093570200927E
:1055A40058025092590208950F41444C3230303021
:1055B400204D6F6E69746F720E4163746976652055
:1055C4004D6574726963730007566F6C7461676527
:1055D400094672657175656E63790156014101462C
:1055E40007434F4E53554D4505302E302020012E94
:1055F4000120134D6F644275734465766963654198
:1056040064647265737303203120032032205FEFDA
:105614005093A8025093A9025FEF5093A0026090A8
:10562400A2026A94A62CC0E06A2D7BDE00FC63C053
:10563400A090A002A394A092A002A09085026090E2
:10564400A002A60CAA2DA090860200E0A01EBA2DEE
:10565400A090A8026C906A246092A8025FEF509315
:10566400A102A090A102A394A092A10201E0A090A3
:10567400A802A0226A2C50E0752E662D772DC0E07A
:10568400D0E048DE009400FE16C0C091A802D0917C
:10569400A90251E0509337020E94731601E0A090D2
:1056A400C901A026A092A80200EAA090CA01A026DF
:1056B400A092A90211C0C091A802D091A90251E000
:1056C400509337020E9473165091C9015093A80257
:1056D4005091CA015093A9026091A102673008F465
:1056E400C0CF6090A2026A94A62C6091A002CA2D39
:1056F40018DE00FC9DCF5091A80250939D0250915A
:08570400A90250939E020895D2
:00000001FF
