:020000040000FA
:060000008A110A12052816
:10000800090078208E200130A9001130B00001309D
:10001800A5002908B3000330AA002508AE00AF01E7
:10002800E830BC000130BD00EE20FF30A600A60A73
:10003800E8302607840083170008C6006F21E430E3
:10004800BE000130BF000130A0004F20E130F200B7
:100058000130F3006D30F7000130F8004A21E1303B
:10006800BE000130BF000130A0004F20073026023B
:10007800031C1B283F2863003F283608C1000319CA
:100088004A280310FA0CF90CC10B45287908A1007D
:100098007A08A20008003E08840083133F188317DB
:1000A8000008B700B70803196C28C00101303702EF
:1000B800031C6C28C00A40083E07840083133F18BD
:1000C80083170008B8006D2037084002031C5E281B
:1000D80008000C1E6D2883160313981C6F288312C2
:1000E8000313380899000800831603139F1383121B
:1000F80003131F10831603139F111F159F141F103E
:1001080007309C008312031385018601870188014B
:1001180089010800813083160313990018151812F5
:100128009816831203139817181618160800FF302C
:10013800B400B500FF30AB002D03C300F90143083C
:10014800F50043217018E928AB0A2B083A07840008
:1001580083133B18831734080006B400FF30AC0043
:10016800AC0A01303405C300C4014308F500440853
:10017800F600F901FA013821F009701CD128340879
:10018800F9003508FA000130B60041200130210697
:10019800B400A0302206B500DC283408F900350880
:1001A800FA000130B60041202108B4002208B50049
:1001B80007302C02031CB4282D03C5002B08F500BA
:1001C8004508F90043217018A8283408A700350805
:1001D800A80008003C08840083133D1883173308DF
:1001E80080003C0A840083133D1883172A08800086
:1001F80002303C07840083133D18831731088000C0
:1002080003303C07840083133D18831730088000AF
:1002180004303C07840083133D1883172F0880009F
:1002280005303C07840083133D1883172E0880008F
:100238003C08BA003D08BB000630AD009B202708EB
:10024800B4002808B50006303C07840083133D1825
:1002580083173408800007303C07840083133D1857
:100268008317350880000800F00175087902031D1E
:10027800080076087A02031D0800F0090800F0015A
:10028800031479087502031CF00908007208840039
:100298008313731883176621F5008000F2075D2920
:1002A800720884008313731883176621F500F60714
:1002B800F207F508031908006621840A8000F50B87
:1002C8006029080078088A007708F70A0319F80AED
:1002D800820001342034023083160317E4000F3003
:1002E800831203134605C200093C03187D29073011
:1002F800C2073030420783160317E6008312031340
:10030800C201C20AC60C04304202031C85290F3000
:100318004605C200093C031893290730C20730304C
:0E032800420783160317E50083120313080033
:02400E007A3FF7
:00000001FF
